S00F000044434D6F746F722E737265637D
S11300000C94C4010C94E5010C94E5010C94E501F5
S11300100C94E5010C94E5010C94E5010C94E501C4
S11300200C94E5010C94E5010C94E5010C94E501B4
S11300300C94E5010C94E5010C94AE020C94E501DA
S11300400C94E5010C94E5010C94E5010C94E50194
S11300500C94E5010C94E5010C94E5010C94E50184
S11300600C94E5010C94E5010C94E5010C94E50174
S11300700C94E5010C94E5010C94E5010C94E50164
S11300800C94E5010C94E5010C94E5010C94E50154
S11300900C94E5010C94E5010C94E5010C94E50144
S11300A00C94E5010C94E5010C94E5010C94E50134
S11300B00C94E5010C94E5010C94E5010C94E50124
S11300C00C94E5010C94E5010C94E5010C94E50114
S11300D00C94E5010C94E5010C94E5010C94E50104
S11300E00C94E5010C94E5010C94E5010C94E501F4
S11300F00C94E5010C94E5010C94E5010C94E501E4
S11301000C94E5010C94E5010C94E5010C94E501D3
S11301100C94E5010C94E5010C94E5010C94E501C3
S11301200C94E5010C94E5010C94E5010C94E501B3
S11301300C94E5010C94E5010C94E5010C94E501A3
S11301400C94E5010C94E5010C94E5010C94E50193
S11301500C94E5010C94E5010C94E5010C94E50183
S11301600C94E5010C94E5010C94E5010C94E50173
S11301700C94E5010C94E5010C94E5010C94E50163
S11301800C94E5010C94E5010C94E5010C94E50153
S11301900C94E5010C94E5010C94E5010C94E50143
S11301A00C94B1030C94E5010C94E5010C94E50165
S11301B00C94E5010C94E5010C94E5010C94E50123
S11301C00C94E5010C94E5010C94E5010C94E50113
S11301D00C94E5010C94E5010C94E5010C943009B0
S11301E00C9458090C94E5010C94E5010C94E50178
S11301F00C94E5010C94E5010C94E5010763423687
S1130200B79BD8A71A39685618AEBAAB558C1D3CA3
S1130210B7CC5763BD6DEDFD753EF6177231BF0067
S11302200000803F08000000BE922449123EABAAA1
S1130230AA2ABECDCCCC4C3E00000080BEABAAAAFC
S1130240AA3E00000000BF000000803F0000000044
S113025000084178D3BB4387D1133D190E3CC3BD7D
S11302604282AD2B3E68EC8276BED98FE1A93E4C2A
S113027080EFFFBE01C4FF7F3F00000000000C942C
S1130280CE070C940E086E616E00696E6600004025
S11302907A10F35A00A0724E18090010A5D4E80091
S11302A000E87648170000E40B54020000CA9A3BA9
S11302B0000000E1F505000080969800000040422F
S11302C00F000000A08601000000102700000000BD
S11302D0E803000000006400000000000A000000C1
S11302E000000100000000002C76D888DC674F086D
S11302F023DFC1DFAE59E1B1B796E5E3E453C63A73
S1130300E651997696E8E6C28426EB898C9B62EDE9
S1130310407C6FFCEFBC9C9F40F2BAA56FA5F490A3
S1130320055A2AF75C936B6CF9676DC11BFCE0E41A
S11303300D47FEF520E6B500D0ED902E0300943570
S113034077050080841E080000204E0A000000C8C3
S11303500C333333330F986E12831141EF8D211414
S1130360893BE65516CFFEE6DB18D1844B381BF7E4
S11303707C1D901DA4BBE424203284725E22810083
S1130380C9F124ECA1E53D2711241FBECFEFCDBF59
S1130390DFE5DEBF00E00CBF10E2A0E0B0E2E8E57C
S11303A0F5E200E00BBF02C007900D92AE35B10735
S11303B0D9F721E2AEE5B0E201C01D92A935B2073A
S11303C0E1F70E94BF020C94AA120C940000E0E52D
S11303D0F0E08BEC8283808188608083818183FF5D
S11303E0FDCFE0E5F0E082EC85838081806180834D
S11303F0818184FFFDCF88ED84BF84E08093400039
S1130400E0E5F0E080818E7F808380818D7F808332
S1130410089542E040930206E0E0F2E038E031A3C0
S113042081E080A320E12283118296E0948380837B
S1130430A0E2B6E012964C931297E0E4F2E031A306
S113044080A3228311829483808330E212963C93AA
S113045038E231A780A7228324E021839483808318
S113046008950E9486070E945D0768E080E30E9469
S1130470010784E00E94CF0680E20E94DD068CE042
S11304800E94F30680E20E94B70681E00E94C30640
S11304900E9482060E9458070E945C050E946B0518
S11304A0E0EAF6E082858064828782E0868B81853B
S11304B08C7F8160818765E070E280E00E942A067B
S11304C060E070E281E00E942A060E947A050895A5
S11304D0E0E0F2E080A1806880A383A18823E9F3AF
S11304E0E0E0F2E024A135A193A1916093A3C901B6
S11304F00895E0E4F2E080A1806880A383A18823CA
S1130500E9F3E0E4F2E024A135A193A1916093A37F
S1130510C9010895E0E6F6E082E0868384E08583FD
S11305200895E0E6F6E084E0868382E0858308951A
S1130530E0E6F6E081E081838583E0E0F9E086E1AE
S1130540818385E0808388E893E186A397A38091E3
S11305500A2090910B2080A791A708951F920F92D3
S11305600FB60F9211248F9380915E208F5F80933A
S11305705E208F910F900FBE0F901F901895CF9310
S1130580DF9300D000D0CDB7DEB70E94E70160E072
S113059078E488EE91E00E942F080E9431020E94C4
S11305A009020E949802E0E6F6E086E0818380E595
S11305B0828380E1848B868BE0E8F6E099E0968381
S11305C0808B838B81E080934106E0E0F8E0118228
S11305D097E0908321E13AE726A337A386837894B2
S11305E00F2EF5E74F2EF02D00E616E00F2EF6E065
S11305F09F2EF02D0F2EF4E66F2EF02D0F2EF5E723
S11306005F2EF02D772473940F2EF6E68F2EF02DA7
S11306100F2EFFE2EF2EF0E2FF2EF02D0F2EF2E769
S1130620AF2EB12CF02D0F2EFDE1CF2EF0E2DF2EF8
S1130630F02D0DC00E948A022FEF8FE493EC21501D
S113064080409040E1F700C0000010925F2080914C
S11306505F20813079F380915E208E3169F51092AC
S11306605E20A982BA820E9468028B839C830E94C6
S11306703E040E94680A6D837E830E94AF0580E079
S113068090E20E940C068E818F938D818F938C81D2
S11306908F938B818F938A818F9389818F93DF923C
S11306A0CF920E943812692DCE0101960E94520702
S11306B00E947A05CDBFDEBF0E947902803B91057E
S11306C018F0109260201EC08091602081111AC021
S11306D0709260200E94AF0585E090E20E940C06B3
S11306E089821F928F92FF92EF920E943812672D97
S11306F0CE0101960E9452070E947A050F900F9036
S11307000F900F90F801808584FF0EC0F4E64F121D
S11307100BC0F801808584FF1EC00E948A02F80184
S1130720808584FDFACF17C0F801808586FF10C04C
S1130730F5E74F120DC0F801808586FF08C00E94BE
S11307409102F801808586FDFACF462C01C0462C23
S1130750F80196827CCFF801808586FDECCF452C8C
S1130760F7CF1F920F920FB60F9211240BB60F9270
S11307701F932F933F934F935F936F937F938F9325
S11307809F93AF93BF93EF93FF93CF93DF9300D0E7
S1130790CDB7DEB7AE014D5F5F4FBE016E5F7F4FD9
S11307A0CE0101960E94EE058B818823D1F00E9430
S11307B0A506682F83E391E20E9455051091332129
S11307C01F921F938CE390E29F938F930E943812A1
S11307D00F900F900F900F901D3619F481E08093C5
S11307E05F202396CDBFDEBFDF91CF91FF91EF91C4
S11307F0BF91AF919F918F917F916F915F914F9135
S11308003F912F911F910F900BBE0F900FBE0F9031
S11308101F901895E0E4F2E080A5806880A783A586
S11308208823E9F3E0E4F2E024A535A593A59160DB
S113083093A7C90108950E940A04BC01990F880B6B
S1130840990B0E94990A9B01AC0160E070EC8FE760
S113085094E40E94F60920E030E040EA50E40E946B
S1130860250B20E030E040E85FE30E94890920E0A6
S113087030E040E251E40E94250B08950E941B04DD
S11308802FE832E449E952E40E94F6092EED37E3F9
S113089041E350EC0E94920B22E434E349EE52E42B
S11308A00E94250B08951F93CF93DF93C0EAD6E0EF
S11308B010E21E838F710E94A0078FEF0E94A00791
S11308C01D83DF91CF911F910895DF92EF92FF92E4
S11308D00F931F93CF93DF937B01C42F90E29093E8
S11308E0A6068F7180620E94A007D82E8FEF8C0F0E
S11308F0CC2369F0E701082F10E00F5F1F4F0E0DA6
S11309001F1D89910E94A007C017D107D1F780E26B
S11309108093A5068D2DDF91CF911F910F91FF90AC
S1130920EF90DF900895FF920F931F93CF93DF937F
S1130930F62EC0EAD6E010E21E838F7180620E9418
S1130940A007082F8F2D0E94A0071D83802FDF9101
S1130950CF911F910F91FF900895BF92CF92DF9294
S1130960EF92FF920F931F93CF93DF936C01842F29
S1130970C0910D201C2F6C1708F4162F909166203F
S1130980911125C00C2F011B90E29093A6060E94A2
S1130990A007B82EEE24EA94E10E111102C00EC095
S11309A000E0E601F12C8FEFE81AF80AEC0CFD1CCC
S11309B089910E94A007EC16FD06D1F7002391F05F
S11309C0C02F80E00E94A007C150D9F70BC090E26D
S11309D09093A6060E94A007B82EEE24EA94E10E96
S11309E01111DECF80E28093A5068B2DDF91CF918C
S11309F01F910F91FF90EF90DF90CF90BF900895DB
S1130A00BF92CF92DF92EF92FF920F931F93CF93F7
S1130A10DF936C01C0910D201C2F6C1708F4162F66
S1130A2080916620811127C00C2F011B80E28093E6
S1130A30A60681E60E94A007B82EEE24EA94E10EF1
S1130A40111102C00FC000E0E601F12C8FEFE81A8B
S1130A50F80AEC0CFD1C8FEF0E94A0078993EC169A
S1130A60FD06C9F7002399F0C02F8FEF0E94A0075D
S1130A70C150D9F70CC080E28093A60681E60E949B
S1130A80A007B82EEE24EA94E10E1111DCCF80E227
S1130A908093A5068B2DDF91CF911F910F91FF902D
S1130AA0EF90DF90CF90BF9008950E94000587E1FA
S1130AB00E945304817008951F93CF93DF93C0EA7B
S1130AC0D6E010E21E8382EE0E94A0071D83DF9110
S1130AD0CF911F9108951F93CF93DF93C0EAD6E07F
S1130AE010E21E8381EE0E94A0071D83DF91CF9147
S1130AF01F91089580E00E94530481FD0CC0682F6B
S1130B00636080E00E9493048FE79EE30197F1F70E
S1130B1000C0000005C0682F616080E00E9493045B
S1130B208FE094E00197F1F700C0000060E787E0F0
S1130B300E94930440910C2061E670E28AE00E94D6
S1130B4065040E945C050E946B0580E88093A506FD
S1130B508FE094E00197F1F700C00000089580E869
S1130B608093A6060E945C050E946B0508950F936E
S1130B701F93CF93DF93EC01162F042F80E00E9484
S1130B80530481FD0DC0682F6E7F626080E00E9477
S1130B9093048FE79EE30197F1F700C0000005C0BE
S1130BA0682F6E7F80E00E9493048FE094E00197A9
S1130BB0F1F700C00000402F612FCE010E94AD0468
S1130BC0E0EAF6E080E885839AE69A95F1F700C0BA
S1130BD08683DF91CF911F910F910895EF92FF9239
S1130BE00F931F93CF93DF937C018B01EA0160E79E
S1130BF087E00E949304982F9072F7019083982FB6
S1130C009071F801908380748883DF91CF911F9154
S1130C100F91FF90EF900895CF93DF93EC014091F3
S1130C200C20BC018AE00E94650440910C20BE01A6
S1130C3080E10E94650460910D20603220F481E11E
S1130C400E94930404C060E281E10E949304DF9156
S1130C50CF9108950F931F93CF93DF93C82F8B01E8
S1130C60811108C040910C2050E081E690E20E947E
S1130C70E81104C0873078F5823058F4EC2FF0E0A6
S1130C80E95AFF4D40910C20B80180810E9465040F
S1130C9008C0E82FF0E0E95AFF4D41E080810E944E
S1130CA06504D0E0FE01EF5AFF4D60910D20808174
S1130CB00E94930482E00E945304C55BDF4D61E00F
S1130CC070E0088002C0660F771F0A94E2F7682B71
S1130CD082E00E949304DF91CF911F910F910895B8
S1130CE01F93CF93DF93C0EAD6E010E21E8380E522
S1130CF00E94A00783E70E94A0071D83DF91CF9184
S1130D001F9108958DE10E945304682F64608DE162
S1130D100E9493048DE10E94530481110AC00E9431
S1130D2070068DE10E945304682F64608DE10E9477
S1130D3093048CE10E945304682F6F638CE10E943A
S1130D40930481E08093662008951F93CF93DF93EB
S1130D50C0EAD6E010E21E8380E60E94A0078FEF6F
S1130D600E94A0071D83DF91CF911F9108958823CE
S1130D702CF0682F85E00E94930408956FE785E0C6
S1130D800E9493040895882329F06FE381E00E9470
S1130D909304089560E081E00E9493040895CF9342
S1130DA0C82F86E00E945304897FC670682F6C2B7D
S1130DB086E00E949304CF910895CF93C82F86E0D4
S1130DC00E945304877D9C2F9872682F692B86E0BC
S1130DD00E94930486E00E94530491E0C81390E0BB
S1130DE0892FCF910895CF93C82F80E00E94530498
S1130DF0837FCC70682F6C2B80E00E949304CF918A
S1130E000895682B84E00E949304089584E00E946E
S1130E105304282F22952F7030E02F5F3F4F9AEF15
S1130E20929FA001939F500D11248F7090E0019622
S1130E309C01429FC001439F900D529F900D11242D
S1130E400895CF93DF930E9406079C01369527955A
S1130E5036952795ABE7B4E10E94F610EC01D695E0
S1130E60C795209771F087E00E9453042197EFE122
S1130E70F3E03197F1F700C00000807311F420977C
S1130E8091F787E00E945304C82F0E945C050E94DA
S1130E906B0560E787E00E9493048C2F8072DF91DA
S1130EA0CF91089540EA0E94B7050E942107089552
S1130EB060E787E00E94930408958FE39CE901971B
S1130EC0F1F700C000006FE584E00E94930486E01F
S1130ED00E94CF0680E20E94DD06882319F081E09B
S1130EE080930E2080E00E94DD068CE00E94F306D1
S1130EF060E08CE10E9493048CE40E94B7060E9497
S1130F0058070E945C050E946B050895E0E4F6E032
S1130F1088E0818384E0828382E08183E0EAF6E0F2
S1130F2080E2818380E4828380E88183E0EAF8E0E0
S1130F3088E1848380EC8583178281E08683089529
S1130F408093A008E0EAF8E0818186FFFDCFE0EA23
S1130F50F8E0818180648183808108958091CC2030
S1130F609091CB20891710F0891B08958C59891B07
S1130F700895CF93C091CB200E94AE078823E1F35C
S1130F80EC2FF0E0E959FF4D808191E09C0F9436FD
S1130F9008F090E09093CB20CF9108950E94B90778
S1130FA090E008952091322191E0920F80913121B7
S1130FB0943610F09DE9920F891710F0891B08955B
S1130FC08C59891B08950F931F93CF93DF93D82FC8
S1130FD000EA1BE0C1E202C0F801C3830E94D20709
S1130FE08823D1F380913221E82FF0E0E353FF4DC1
S1130FF0D0838F5F843608F080E0E0EAF0E09281ED
S1131000292F2E7F22838093322181E28093A30BA8
S11310109283DF91CF911F910F910895CF93DF9326
S1131020D82FCFEF03C0CC2391F0C1500E94D20738
S11310308823C9F3CC2371F0DA3019F48DE00E94CF
S1131040E3078D2F0E94E30780E090E005C081E074
S113105090E002C081E090E0DF91CF9108954F923B
S11310605F926F927F928F929F92AF92BF92EF9214
S1131070FF920F931F93CF934B015C0107E010E0A5
S1131080C9EFEE24E394F12CCC2354F5C501B4014B
S11310900E94970A20E030E041EE59E40E94F609EC
S11310A020E030E040E85FE30E9489092B013C0125
S11310B0B701002E02C0660F771F0A94E2F7072ECD
S11310C0000C880B990B0E94990A9B01AC01C30187
S11310D0B2010E94250B0E94E20B0E94680A2CC0F8
S11310E0C501B4010E94970A20E030E041EE59E4C2
S11310F00E94F6092B013C0188279927801B910B3C
S1131100B70102C0660F771F8A95E2F7072E000C1D
S1131110880B990B0E94990A9B01AC01C301B2018F
S11311200E94F60920E030E040E85FE30E9489096C
S11311300E94E20B0E94680A6115704138F0CF5F8B
S113114001501109C83009F09FCF31C0CC237CF580
S1131150C501B4010E94970A20E030E041EE59E451
S11311600E94F60920E030E040E85FE30E9489092C
S11311704B015C012C2F332721950CF4309561E051
S113118070E002C0660F771F2A95E2F7072E000C65
S1131190880B990B0E94990A9B01AC01C501B4010B
S11311A00E94250B0E94E20B0E94680A2AC0C50116
S11311B0B4010E94970A20E030E041EE59E40E9415
S11311C0F6094B015C0161E070E00C2E02C0660F71
S11311D0771F0A94E2F7072E000C880B990B0E94E4
S11311E0990A9B01AC01C501B4010E94F60920E0F3
S11311F030E040E85FE30E9489090E94E20B0E940C
S1131200680AE0EAF6E088E1828B98E095839183AE
S113121094E09283E0EAFBE066837F70C295C07F2E
S1131220C72BC783848380E28383E0EAF0E0828172
S113123083608283E3E5F1E28FE090E2808391832F
S113124082839383CF911F910F91FF90EF90BF9072
S1131250AF909F908F907F906F905F904F90089584
S11312601F920F920FB60F9211240BB60F928F9309
S11312709F93EF93FF938091CC20E82FF0E090911F
S1131280A00BE959FF4D90838F5F843608F080E00E
S11312909091CB2089138093CC20FF91EF919F9163
S11312A08F910F900BBE0F900FBE0F901F9018954B
S11312B01F920F920FB60F9211240BB60F922F9319
S11312C08F939F93EF93FF938091312190913221DB
S11312D0891769F0E82FF0E0E353FF4D2081209354
S11312E0A00B8F5F843608F080E0891304C080E28D
S11312F08093A30B892F80933121FF91EF919F91CC
S11313008F912F910F900BBE0F900FBE0F901F90D7
S113131018955058BB27AA270E94A1090C94EB0AE0
S11313200E94DD0A38F00E94E40A20F039F49F3F5D
S113133019F426F40C94DA0A0EF4E095E7FB0C9405
S1131340D40AE92F0E94FC0A58F3BA1762077307FC
S11313508407950720F079F4A6F50C941E0B0EF47F
S1131360E0950B2EBA2FA02D0B01B90190010C01B1
S1131370CA01A0011124FF27591B99F0593F50F4C9
S1131380503E68F11A16F040A22F232F342F442721
S1131390585FF3CF469537952795A795F040539519
S11313A0C9F77EF41F16BA0B620B730B840BBAF0E9
S11313B09150A1F0FF0FBB1F661F771F881FC2F754
S11313C00EC0BA0F621F731F841F48F48795779568
S11313D06795B795F7959E3F08F0B0CF9395880F22
S11313E008F09927EE0F9795879508950E940A0AA9
S11313F00C94EB0A0E94E40A58F00E94DD0A40F0C3
S113140029F45F3F29F00C94D40A51110C941F0B5A
S11314100C94DA0A0E94FC0A68F39923B1F3552369
S113142091F3951B550BBB27AA27621773078407F3
S113143038F09F5F5F4F220F331F441FAA1FA9F389
S113144035D00E2E3AF0E0E832D091505040E69577
S1131450001CCAF72BD0FE2F29D0660F771F881FD8
S1131460BB1F261737074807AB07B0E809F0BB0BCB
S1131470802DBF01FF2793585F4F3AF09E3F5105DF
S113148078F00C94D40A0C941F0B5F3FE4F3983E5D
S1131490D4F3869577956795B795F7959F5FC9F7C8
S11314A0880F911D9695879597F90895E1E0660F49
S11314B0771F881FBB1F621773078407BA0720F0C2
S11314C0621B730B840BBA0BEE1F88F7E09508952B
S11314D00E94040B88F09F5798F0B92F9927B751B1
S11314E0B0F0E1F0660F771F881F991F1AF0BA95C4
S11314F0C9F714C0B13091F00E941E0BB1E00895F9
S11315000C941E0B672F782F8827B85F39F0B93FEA
S1131510CCF3869577956795B395D9F73EF4909576
S11315208095709561957F4F8F4F9F4F0895E894F4
S113153009C097FB3EF490958095709561957F4F17
S11315408F4F9F4F9923A9F0F92F96E9BB279395C5
S1131550F695879577956795B795F111F8CFFAF4D5
S1131560BB0F11F460FF1BC06F5F7F4F8F4F9F4F06
S113157016C0882311F096E911C0772321F09EE864
S1131580872F762F05C0662371F096E8862F70E0CA
S113159060E02AF09A95660F771F881FDAF7880FA4
S11315A09695879597F9089597F99F6780E870E075
S11315B060E008959FEF80EC089500240A941616C5
S11315C0170618060906089500240A94121613062D
S11315D0140605060895092E0394000C11F48823BB
S11315E052F0BB0F40F4BF2B11F460FF04C06F5FD7
S11315F07F4F8F4F9F4F089557FD9058440F551FAD
S113160059F05F3F71F04795880F97FB991F61F080
S11316109F3F79F087950895121613061406551FF7
S1131620F2CF4695F1DF08C0161617061806991F63
S1131630F1CF86957105610508940895E894BB2758
S113164066277727CB0197F908950E94380B0C94ED
S1131650EB0A0E94DD0A38F00E94E40A20F0952388
S113166011F00C94D40A0C94DA0A11240C941F0B74
S11316700E94FC0A70F3959FC1F3950F50E0551F2B
S1131680629FF001729FBB27F00DB11D639FAA27D3
S1131690F00DB11DAA1F649F6627B00DA11D661F22
S11316A0829F2227B00DA11D621F739FB00DA11D43
S11316B0621F839FA00D611D221F749F3327A00DFD
S11316C0611D231F849F600D211D822F762F6A2F99
S11316D011249F5750409AF0F1F088234AF0EE0FFE
S11316E0FF1FBB1F661F771F881F91505040A9F72B
S11316F09E3F510580F00C94D40A0C941F0B5F3F5D
S1131700E4F3983ED4F3869577956795B795F79566
S1131710E7959F5FC1F7FE2B880F911D96958795DE
S113172097F90895FA01EE0FFF1F30962105310550
S1131730A1F16115710561F48038BFE39B0749F19C
S113174068949038810561F08038BFEF9B0741F0C1
S113175099234AF5FF3FE1053105210519F1E89484
S11317600894E795D901AA2329F4AB2FBE2FF85F7B
S1131770D0F310C0FF5F70F4A695E0F7F73950F08E
S113178019F0FF3A38F49F779F930DD00F9007FC20
S11317909058089546F00C94DA0A60E070E080E80E
S11317A09FE308954FE79F775F934F933F932F9362
S11317B00E94DA0C2F913F914F915F910E94250B6B
S11317C00C940E0C0E94040BE8F09E37E8F0963956
S11317D0B8F49E3848F4672F782F8827985FF9CF9C
S11317E086957795679593959539D0F3B62FB17013
S11317F06B0F711D811D20F48795779567959395DF
S11318000C94400C0C945B0C0C941F0B29F416F0F4
S11318100C94D40A0C941E0B0C94DA0A0E94040B48
S1131820A8F39638A0F707F80F92E8942BE33AEA66
S113183048EB5FE70E943B0B0F920F920F924DB75C
S11318405EB70F920E94220DECEFF1E00E94690C4A
S11318504F915F91EF91FF91E595EE1FFF1F49F0C6
S1131860FE57E0684427EE0F441FFA95E1F74195CF
S1131870550B0E949C0C0F9007FE0C94900C08953D
S1131880882371F4772321F09850872B762F07C093
S1131890662311F499270DC09051862B70E060E007
S11318A02AF09A95660F771F881FDAF7880F9695A6
S11318B0879597F908959F3F31F0915020F48795CB
S11318C077956795B795880F911D9695879597F9A4
S11318D00895DF93CF931F930F93FF92EF92DF92BC
S11318E07B018C01689406C0DA2EEF010E94380B4C
S11318F0FE01E894A5912591359145915591A6F362
S1131900EF010E94A109FE019701A801DA9469F789
S1131910DF90EF90FF900F911F91CF91DF91089589
S11319209B01AC0160E070E080E89FE30C94F60951
S11319300C94D40A0C945B0C0E94040BD8F39923E6
S1131940C9F3940F511DA3F39150504094F059F0F2
S1131950882332F0660F771F881F91505040C1F7DB
S11319609E3F51052CF7880F911D9695879597F901
S113197008955F3FACF0983E9CF0BB278695779521
S11319806795B79508F4B1609395C1F7BB0F58F705
S113199011F460FFE8CF6F5F7F4F8F4F9F4FE3CF0E
S11319A00C941F0B16F00C945B0C0C94DA0A6894DC
S11319B00C94D40A0E94040BA8F39923C1F3AEF348
S11319C0DF93CF931F930F93FF92C92FDD278823B3
S11319D02AF02197660F771F881FDAF720E030E09E
S11319E040E85FEB9FE3883920F0803E38F0219691
S11319F08F770E948A09E4E2F2E004C00E948A0917
S1131A00E1E5F2E00E94690C8B01BE01EC01FB2EC2
S1131A106F5771097595771F880B990B0E94990A66
S1131A2028E132E741E35FE30E94380BAF2D9801D0
S1131A30AE01FF900F911F91CF91DF910E94A109F8
S1131A400C94EB0AFA01DC01AA0FBB1F9B01AC0149
S1131A50BF5728F4222733274427507820C0B75192
S1131A6090F4AB2F0024469537952795011CA39538
S1131A70D2F3002071F0220F331F441FB395DAF321
S1131A800ED00C94890961307105A0E88A07B94623
S1131A9030F49B01AC01662777278827907830962D
S1131AA021F0208331834283538308952F923F9200
S1131AB04F925F926F927F928F929F92AF92BF925A
S1131AC0CF92DF92EF92FF920F931F93CF93DF9306
S1131AD0CDB7DEB76097CDBFDEBF7C011B016A01C5
S1131AE0FC0116821782838181FF44C39E012F5F0C
S1131AF03F4F3901F7019381F10193FD859193FFE4
S1131B0081911F01882309F431C3853239F493FD8F
S1131B10859193FF81911F01853239F4B70190E0DB
S1131B200E94FC1156016501E5CF10E0512C912C67
S1131B30FFE1F915D8F08B3279F038F4803279F07E
S1131B408332A1F4F92DF0612EC08D3261F080331F
S1131B5069F4292D21602DC0392D3260932E892DF1
S1131B608460982E2AC0E92DE86015C097FC2DC02A
S1131B7020ED280F2A3088F496FE06C03AE0139F21
S1131B80200D1124122F19C08AE0589E200D112413
S1131B90522EE92DE0629E2E10C08E3231F496FC56
S1131BA0E5C2F92DF0649F2E08C08C3621F4292D4E
S1131BB02068922E02C0883641F4F10193FD85918C
S1131BC093FF81911F018111B3CF9BEB980F933049
S1131BD020F4992D9061805E07C09BE9980F9330A3
S1131BE008F066C1992D9F7E96FF16E09F73992E8B
S1131BF0853619F49064992E08C0863621F4392F5D
S1131C003068932E02C01111115097FE07C01C3387
S1131C1050F444244394410E27E00BC0183038F0AC
S1131C2027E017E005C027E09CE3492E02C0212FDE
S1131C30412C560184E0A80EB11CF601608171812B
S1131C4082819381042DA3010E9405116C01F98105
S1131C50FC87F0FF02C0F3FF06C091FC06C092FEB1
S1131C6006C000E205C00DE203C00BE201C000E0C3
S1131C708C858C7019F001115AC29BC297FE10C05A
S1131C804C0CFC85F4FF04C08A81813309F44A9426
S1131C90141474F528E0241578F588E0482E2CC037
S1131CA096FC2AC0812F90E08C159D059CF03CEF9A
S1131CB0C3163FEFD30674F0892D8068982E0AC0AE
S1131CC0E2E0F0E0EC0FFD1FE10FF11D80818033B5
S1131CD019F411501111F4CF97FE0EC0442443940B
S1131CE0410E812F90E0C816D9062CF41C1904C0AB
S1131CF04424439401C010E097FE06C01C141D0444
S1131D0034F4C601019605C085E090E002C081E08C
S1131D1090E001110196112331F0212F30E02F5F63
S1131D203F4F820F931F252D30E08217930714F441
S1131D30581A01C0512C892D897049F4552039F065
S1131D40B70180E290E00E94FC115A94F7CF00237F
S1131D5029F0B701802F90E00E94FC1193FC09C088
S1131D60552039F0B70180E390E00E94FC115A94A9
S1131D70F7CF97FE4CC04601D7FE02C0812C912CB0
S1131D80C60188199909F301E80FF91FED87FE8749
S1131D909601241931092F87388B012F10E01195F2
S1131DA0019511093FEF8316930629F4B7018EE2DA
S1131DB090E00E94FC11C814D9044CF08F859889D6
S1131DC08815990524F4ED85FE85818101C080E3A1
S1131DD0F1E08F1A91082D853E852F5F3F4F2D87A7
S1131DE03E87801691062CF0B70190E00E94FC110A
S1131DF0D9CFC814D90441F49A81963320F4953389
S1131E0019F43C8534FF81E3B70190E04EC08A8128
S1131E10813319F09C859F7E9C87B70190E00E94D6
S1131E20FC11111105C094FC18C085E690E017C0A0
S1131E30B7018EE290E00E94FC111E5F82E001E097
S1131E40080FF301E80FF11D8081B70190E00E94B3
S1131E50FC11802F0113F3CFE6CF85E490E0B701A6
S1131E600E94FC11D7FC06C0C114D10441F4EC85D6
S1131E70E4FF05C0D194C194D1088DE201C08BE286
S1131E80B70190E00E94FC1180E32AE0C216D1045D
S1131E902CF08F5FFAE0CF1AD108F7CFB70190E0AA
S1131EA00E94FC11B701C601C0960E94FC1154C1E6
S1131EB0833631F0833779F0833509F056C020C07A
S1131EC0560132E0A30EB11CF6018081898301E042
S1131ED010E0630112C05601F2E0AF0EB11CF6012E
S1131EE0C080D18096FE03C0612F70E002C06FEF06
S1131EF07FEFC6010E94F1118C01F92DFF7714C008
S1131F00560122E0A20EB11CF601C080D18096FEDB
S1131F1003C0612F70E002C06FEF7FEFC6010E9423
S1131F20DD118C01F92DF0689F2EF3FD1AC0852D6B
S1131F3090E008171907A8F4B70180E290E00E9426
S1131F40FC115A94F4CFF60197FC859197FE819188
S1131F506F01B70190E00E94FC1151105A94015096
S1131F6011090115110579F7F7C0843611F0893686
S1131F7061F5560197FE09C024E0A20EB11CF601DA
S1131F8060817181828193810AC0F2E0AF0EB11C3D
S1131F90F60160817181072E000C880B990BF92DD5
S1131FA0FF769F2E97FF09C0909580957095619557
S1131FB07F4F8F4F9F4FF0689F2E2AE030E0A301A0
S1131FC00E944C12C82EC6183FC0092D853721F433
S1131FD00F7E2AE030E01DC0097F8F3691F018F49F
S1131FE0883559F0C3C0803719F0883711F0BEC066
S1131FF0006104FF09C0046007C094FE08C00660C5
S113200006C028E030E005C020E130E002C020E155
S113201032E0560107FF09C084E0A80EB11CF601A6
S1132020608171818281938108C0F2E0AF0EB11C9E
S1132030F6016081718180E090E0A3010E944C125E
S1132040C82EC6180F77902E96FE0BC0092D0E7F52
S1132050C11650F494FE0AC092FC08C0092D0E7EED
S113206005C0DC2C092D03C0DC2C01C0D12E04FFDB
S11320700DC0FE01EC0DF11D8081803311F4097E49
S113208009C002FF06C0D394D39404C0802F86787D
S113209009F0D39403FD11C000FF06C01C2DD51414
S11320A080F4150D1D190DC0D51458F4B70180E244
S11320B090E00E94FC11D394F7CFD51410F45D186E
S11320C001C0512C04FF10C0B70180E390E00E94CE
S11320D0FC1102FF17C001FD03C088E790E002C0B5
S11320E088E590E0B7010CC0802F867859F001FF95
S11320F002C08BE201C080E207FD8DE2B70190E0EF
S11321000E94FC11C11638F4B70180E390E00E94EC
S1132110FC111150F7CFCA94F301EC0DF11D80812D
S1132120B70190E00E94FC11C110F5CF15C0F4E096
S1132130F51560F584E0581A93FE1FC0011127C0FD
S11321402C8523FF2AC006E812E0392D3071932E26
S1132150F8018491811124C0552009F4E4CCB7011D
S113216080E290E00E94FC115A94F6CFF701868138
S1132170978126C08FEF9FEF23C0B70180E290E0E4
S11321800E94FC115A945110F8CFD8CF512CB701AA
S1132190802F90E00E94FC11D3CF0AE812E0D5CF43
S11321A091108052B70190E00E94FC110F5F1F4F05
S11321B0CFCF23E0251510F483E0BDCF512CC0CF41
S11321C06096CDBFDEBFDF91CF911F910F91FF903D
S11321D0EF90DF90CF90BF90AF909F908F907F90C3
S11321E06F905F904F903F902F900895A29FB00101
S11321F0B39FC001A39F700D811D1124911DB29F37
S1132200700D811D1124911D0895283008F027E0D8
S11322103327DA01990F311D87FD9160009661051E
S1132220710539F432602E5F3D9330E32A95E1F76E
S113223008959F3F30F080387105610509F03C5FD7
S11322403C5F3D93913008F08068911DDF93CF93FC
S11322501F930F93FF92EF92192F987F9695E92F72
S113226096959695E90FFF27E851FD4F9927332757
S1132270EE24FF24A701E70105900894079428F4AD
S1132280360FE71EF81E491F511D660F771F881F62
S1132290991F0694A1F70590079428F4E70EF81EF9
S11322A0491F561FC11D770F881F991F661F06946B
S11322B0A1F70590079428F4F80E491F561FC71F6D
S11322C0D11D880F991F661F771F0694A1F70590EB
S11322D0079420F4490F561FC71FD81F990F661F74
S11322E0771F881F0694A9F784911095177041F001
S11322F0D695C79557954795F794E7941A95C1F7DE
S1132300EEE8F2E0689415901591359165919591F8
S113231005907FE27395E118F10A430B560BC90B44
S1132320D009C0F7E10CF11E431F561FC91FD01D71
S11323307EF4703311F48A95E6CFE894015030F0BE
S1132340080F0AF40027021708F4202F2395022F00
S11323507A3328F079E37D932A95E9F710C07D93C9
S11323602A9589F606949795679537951795179446
S1132370E118F10A430B560BC90BD00998F02395C9
S11323807E9173957A3308F070E37C932013B8F749
S11323907E9170617D9330F0839571E37D9370E35A
S11323A02A95E1F71124EF90FF900F911F91CF919F
S11323B0DF91992787FD90950895FC010590615060
S11323C070400110D8F7809590958E0F9F1F089547
S11323D0FB01DC0102C001900D9241505040D8F73E
S11323E00895FC016150704001900110D8F7809568
S11323F090958E0F9F1F08950F931F93CF93DF9394
S1132400FB01238121FD03C08FEF9FEF2CC022FF2E
S113241016C046815781248135814217530744F4FD
S1132420A081B1819D012F5F3F4F208331838C9325
S1132430268137812F5F3F4F2683378314C08B015A
S1132440EC01FB010084F185E02D1995892BE1F65F
S1132450D80116968D919C911797019616968D9397
S11324609C931797CE01DF91CF911F910F910895FF
S1132470CF93DF93CDB7DEB7AE014A5F5F4FFA016A
S113248061917191AF0180915521909156210E94E3
S1132490560DDF91CF910895FA01AA27283051F102
S11324A0203181F1E8946F936E7F6E5F7F4F8F4F81
S11324B09F4FAF4FB1E03ED0B4E03CD0670F781FE0
S11324C0891F9A1FA11D680F791F8A1F911DA11DC5
S11324D06A0F711D811D911DA11D20D009F46894FE
S11324E03F912AE0269F11243019305D3193DEF6A6
S11324F0CF010895462F4770405D4193B3E00FD05C
S1132500C9F7F6CF462F4F70405D4A3318F0495D46
S113251031FD4052419302D0A9F7EACFB4E0A69529
S11325209795879577956795BA95C9F7009761054B
S1132530710508959B01AC010A2E069457954795A1
S113254037952795BA95C9F7620F731F841F951F96
S10B2550A01D0895F894FFCFCB
S11325585241414D454C414D5000F30105200100C5
S1132568000003000000000E08CE07000053656E4B
S1132578643A2025632C2025642C2025640A005302
S1132588656E643A2027256327200A00526563652F
S1132598697665643A202563200A00000102030471
S11125A8051112131415160A0B0C0D0E0F005C
S9030000FC
