:100000000C94FE000C941F010C941F010C941F0112
:100010000C941F010C941F010C941F010C941F01E0
:100020000C941F010C941F010C941F010C941F01D0
:100030000C941F010C941F010C941F010C941F01C0
:100040000C941F010C941F010C941F010C941F01B0
:100050000C941F010C941F010C941F010C941F01A0
:100060000C941F010C941F010C941F010C941F0190
:100070000C941F010C941F010C941F010C941F0180
:100080000C941F010C941F010C941F010C941F0170
:100090000C941F010C941F010C941F010C941F0160
:1000A0000C941F010C941F010C941F010C941F0150
:1000B0000C941F010C941F010C941F010C941F0140
:1000C0000C941F010C941F010C941F010C941F0130
:1000D0000C941F010C941F010C941F010C941F0120
:1000E0000C941F010C941F010C941F010C941F0110
:1000F0000C941F010C941F010C941F010C941F0100
:100100000C941F010C941F010C941F010C941F01EF
:100110000C941F010C941F010C941F010C941F01DF
:100120000C941F010C941F010C941F010C941F01CF
:100130000C941F010C941F010C941F010C941F01BF
:100140000C941F010C941F010C941F010C941F01AF
:100150000C941F010C941F010C941F010C941F019F
:100160000C941F010C941F010C941F010C941F018F
:100170000C941F010C941F010C941F010C941F017F
:100180000C941F010C941F010C941F010C941F016F
:100190000C941F010C941F010C941F010C941F015F
:1001A0000C948F020C941F010C941F010C941F01DE
:1001B0000C941F010C941F010C941F010C941F013F
:1001C0000C941F010C941F010C941F010C941F012F
:1001D0000C941F010C941F010C941F010C94360504
:1001E0000C945E050C941F010C941F010C941F01CC
:1001F0000C941F010C941F010C941F0111241FBEAD
:10020000CFEFCDBFDFE5DEBF00E00CBF10E2A0E026
:10021000B0E2E4EDFBE000E00BBF02C007900D92FE
:10022000AC31B107D9F723E2ACE1B0E201C01D92D5
:10023000A430B207E1F70E948A020C94E8050C94FE
:1002400000000F931F93CF93DF9300E216E08CE33F
:10025000F8018283C0E1C58BC48BC38BC28B0E9423
:100260000E050E94E50468E080E30E94DB0484E060
:100270000E94A90480E20E94B7048CE00E94CD0491
:1002800080E20E94910481E00E949D040E945C042F
:100290000E94E0040E9493030E94A203E0EAF6E0B9
:1002A000828580648287D2E0D68B81858C7F816055
:1002B000818762E070E280E00E9404040E94B10342
:1002C000D0930206E0E0F2E028E021A381E080A3E1
:1002D000C283118296E094838083F801D283E0E4A4
:1002E000F2E021A380A3C283118294838083809350
:1002F0006106E0E0F9E083E1818383E080838FE0C1
:1003000097E286A397A310A611A6E0EAF0E0828107
:10031000816082837894DF91CF911F910F9108952E
:10032000E0E0F2E080A1806880A383A18823E9F364
:10033000E0E0F2E024A135A193A1916093A3C9016B
:1003400008950E9490018C3627E09207ECF480918A
:100350001E2090911F200A96803127E292072CF4EC
:1003600080931E2090931F2006C08FE097E2809319
:100370001E2090931F2080911E2090911F2080931B
:10038000280990932909089585339840BCF08091FD
:100390001E2090911F200A972AF080931E20909390
:1003A0001F2004C010921E2010921F2080911E203A
:1003B00090911F2080932809909329090895E0E4E3
:1003C000F2E080A1806880A383A18823E9F3E0E4C0
:1003D000F2E024A135A193A1916093A3C9010895EE
:1003E0000E94DF0120911C2030911D202A30310510
:1003F00024F010921C2010921D2020911C2030917E
:100400001D20F901EE0FFF1FE051FD4D8083918308
:100410002F5F3F4F20931C2030931D20E0EFF2E22E
:1004200044E053E220E030E081919191280F391FA0
:10043000E417F507C9F7ADECBCEC0E94AE05969544
:100440008795969587959695879508950E94F001D2
:100450009C01AFE0B7E20E94AE052FEF3FE040E025
:1004600050E00E948F0530E020932809309329093D
:10047000089580910020909101208230910569F0CB
:100480001CF4019739F008958330910549F00497E1
:1004900071F008950E94A10108950E942602089516
:1004A0008FE097E28093280990932909089510928C
:1004B00028091092290908958091280682FF07C013
:1004C00081E090E0809300209093012020C08091F3
:1004D000280683FF07C082E090E08093002090937D
:1004E000012015C08091280684FF07C083E090E0BA
:1004F00080930020909301200AC08091280685FFF8
:1005000006C084E090E080930020909301200E9438
:10051000390208950E9421010E945C02FDCF1F92C2
:100520000F920FB60F9211240BB60F922F933F9399
:100530004F935F936F937F938F939F93AF93BF93EB
:10054000EF93FF93CF93DF9300D0CDB7DEB7AE012B
:100550004D5F5F4FBE016E5F7F4FCE0101960E94DF
:10056000E6038B81882389F00E947F04682F82EF45
:1005700090E20E948C038091F220833631F483E074
:1005800090E080930020909301202396CDBFDEBFA2
:10059000DF91CF91FF91EF91BF91AF919F918F919B
:1005A0007F916F915F914F913F912F910F900BBE73
:1005B0000F900FBE0F901F9018951F93CF93DF934E
:1005C000C0EAD6E010E21E838F710E9428058FEFEB
:1005D0000E9428051D83DF91CF911F910895DF921E
:1005E000EF92FF920F931F93CF93DF937B01C42F62
:1005F00090E29093A6068F7180620E942805D82E03
:100600008FEF8C0FCC2369F0E701082F10E00F5F0C
:100610001F4F0E0D1F1D89910E942805C017D1077D
:10062000D1F780E28093A5068D2DDF91CF911F91A8
:100630000F91FF90EF90DF900895FF920F931F931B
:10064000CF93DF93F62EC0EAD6E010E21E838F71BF
:1006500080620E942805082F8F2D0E9428051D8387
:10066000802FDF91CF911F910F91FF900895BF923E
:10067000CF92DF92EF92FF920F931F93CF93DF936E
:100680006C01C09108201C2F6C1708F4162F809164
:100690002520811127C00C2F011B80E28093A60624
:1006A00081E60E942805B82EEE24EA94E10E11118D
:1006B00002C00FC000E0E601F12C8FEFE81AF80A43
:1006C000EC0CFD1C8FEF0E9428058993EC16FD06AB
:1006D000C9F7002399F0C02F8FEF0E942805C15061
:1006E000D9F70CC080E28093A60681E60E94280517
:1006F000B82EEE24EA94E10E1111DCCF80E2809353
:10070000A5068B2DDF91CF911F910F91FF90EF9058
:10071000DF90CF90BF9008950E94370387E10E9439
:10072000DD02817008951F93CF93DF93C0EAD6E076
:1007300010E21E8382EE0E9428051D83DF91CF9177
:100740001F9108951F93CF93DF93C0EAD6E010E284
:100750001E8381EE0E9428051D83DF91CF911F919A
:10076000089580E00E94DD0281FD0CC0682F636067
:1007700080E00E941D038FE79EE30197F1F700C020
:10078000000005C0682F616080E00E941D038FE0BB
:1007900094E00197F1F700C0000060E787E00E9455
:1007A0001D034091072060E270E28AE00E94EF02A0
:1007B0000E9493030E94A20380E88093A5068FE025
:1007C00094E00197F1F700C000000895EF92FF92C6
:1007D0000F931F93CF93DF937C018B01EA0160E7B6
:1007E00087E00E941D03982F9072F7019083982F45
:1007F0009071F801908380748883DF91CF911F916D
:100800000F91FF90EF9008950F931F93CF93DF9375
:10081000C82F8B01811108C04091072050E080E271
:1008200090E20E94DF0504C0873078F5823058F4EA
:10083000EC2FF0E0EA5EFF4D40910720B801808187
:100840000E94EF0208C0E82FF0E0EA5EFF4D41E0B1
:1008500080810E94EF02D0E0FE01E05FFF4D6091D9
:10086000082080810E941D0382E00E94DD02C65F95
:10087000DF4D61E070E0088002C0660F771F0A94C8
:10088000E2F7682B82E00E941D03DF91CF911F9158
:100890000F9108951F93CF93DF93C0EAD6E010E243
:1008A0001E8380E50E94280583E70E9428051D839A
:1008B000DF91CF911F9108958DE10E94DD02682F95
:1008C00064608DE10E941D038DE10E94DD028111B3
:1008D0000AC00E944A048DE10E94DD02682F646014
:1008E0008DE10E941D038CE10E94DD02682F6F6381
:1008F0008CE10E941D0381E08093252008951F93C1
:10090000CF93DF93C0EAD6E010E21E8380E60E9418
:1009100028058FEF0E9428051D83DF91CF911F913D
:10092000089588232CF0682F85E00E941D03089508
:100930006FE785E00E941D030895882329F06FE387
:1009400081E00E941D03089560E081E00E941D0384
:100950000895CF93C82F86E00E94DD02897FC6707C
:10096000682F6C2B86E00E941D03CF910895CF93D2
:10097000C82F86E00E94DD02877D9C2F9872682F29
:10098000692B86E00E941D0386E00E94DD0291E053
:10099000C81390E0892FCF910895CF93C82F80E09E
:1009A0000E94DD02837FCC70682F6C2B80E00E9458
:1009B0001D03CF910895682B84E00E941D030895C4
:1009C00060E787E00E941D0308958FE39CE901978B
:1009D000F1F700C000006FE584E00E941D0386E08F
:1009E0000E94A90480E20E94B704882319F081E0E4
:1009F0008093092080E00E94B7048CE00E94CD041F
:100A000060E08CE10E941D038CE40E9491040E942E
:100A1000E0040E9493030E94A2030895E0E4F6E03C
:100A200088E0818384E0828382E08183E0EAF6E0EB
:100A300080E2818380E4828380E88183E0EAF8E0D9
:100A400088E1848380EC8583178281E08683089522
:100A50008093A008E0EAF8E0818186FFFDCFE0EA1C
:100A6000F8E0818180648183808108951F920F92D4
:100A70000FB60F9211240BB60F928F939F93EF93A3
:100A8000FF9380918B20E82FF0E09091A00BEA5D1E
:100A9000FF4D90838F5F843608F080E090918A202C
:100AA000891380938B20FF91EF919F918F910F90ED
:100AB0000BBE0F900FBE0F901F9018951F920F92B4
:100AC0000FB60F9211240BB60F922F938F939F9313
:100AD000EF93FF938091F0209091F120891769F0B6
:100AE000E82FF0E0E457FF4D20812093A00B8F5FAB
:100AF000843608F080E0891304C080E28093A30B61
:100B0000892F8093F020FF91EF919F918F912F91EA
:100B10000F900BBE0F900FBE0F901F901895052ED3
:100B200097FB1EF400940E94A60557FD07D00E9473
:100B3000BD0507FC03D04EF40C94A60550954095D6
:100B4000309521953F4F4F4F5F4F08959095809579
:100B5000709561957F4F8F4F9F4F0895A29FB00171
:100B6000B39FC001A39F700D811D1124911DB29FE1
:100B7000700D811D1124911D0895A1E21A2EAA1B4A
:100B8000BB1BFD010DC0AA1FBB1FEE1FFF1FA2173D
:100B9000B307E407F50720F0A21BB30BE40BF50B3A
:100BA000661F771F881F991F1A9469F760957095C3
:100BB000809590959B01AC01BD01CF010895FB018B
:100BC000DC0102C001900D9241505040D8F70895C9
:040BD000F894FFCFC7
:100BD4000400487641303105200100010203040578
:0C0BE4001112131415160A0B0C0D0E0F45
:00000001FF
