S01300005665726C69636874696E672E7372656392
S11300000C94FE000C941F010C941F010C941F010E
S11300100C941F010C941F010C941F010C941F01DC
S11300200C941F010C941F010C941F010C941F01CC
S11300300C941F010C941F010C941F010C941F01BC
S11300400C941F010C941F010C941F010C941F01AC
S11300500C941F010C941F010C941F010C941F019C
S11300600C941F010C941F010C941F010C941F018C
S11300700C941F010C941F010C941F010C941F017C
S11300800C941F010C941F010C941F010C941F016C
S11300900C941F010C941F010C941F010C941F015C
S11300A00C941F010C941F010C941F010C941F014C
S11300B00C941F010C941F010C941F010C941F013C
S11300C00C941F010C941F010C941F010C941F012C
S11300D00C941F010C941F010C941F010C941F011C
S11300E00C941F010C941F010C941F010C941F010C
S11300F00C941F010C941F010C941F010C941F01FC
S11301000C941F010C941F010C941F010C941F01EB
S11301100C941F010C941F010C941F010C941F01DB
S11301200C941F010C941F010C941F010C941F01CB
S11301300C941F010C941F010C941F010C941F01BB
S11301400C941F010C941F010C941F010C941F01AB
S11301500C941F010C941F010C941F010C941F019B
S11301600C941F010C941F010C941F010C941F018B
S11301700C941F010C941F010C941F010C941F017B
S11301800C941F010C941F010C941F010C941F016B
S11301900C941F010C941F010C941F010C941F015B
S11301A00C9489020C941F010C941F010C941F01E0
S11301B00C941F010C941F010C941F010C941F013B
S11301C00C941F010C941F010C941F010C941F012B
S11301D00C941F010C941F010C941F010C941F011B
S11301E00C941F010C941F010C941F010C941F010B
S11301F00C941F010C941F010C941F0111241FBEA9
S1130200CFEFCDBFDFE5DEBF00E00CBF10E2A0E022
S1130210B0E2EEEDFAE000E00BBF02C007900D92F1
S1130220A032B107D9F722E2A0E2B0E201C01D92E8
S1130230AD33B207E1F70E9483020C946D050C9470
S11302400000E0E0F2E080A1806880A383A188231D
S1130250E9F3E0E0F2E024A135A193A1916093A336
S1130260C90108950E942101843A26E09207E8F426
S113027080912220909123200A96803127E29207D0
S11302802CF4809322209093232006C08FE097E2E1
S113029080932220909323208091222090912320E8
S11302A0809328099093290908958D3F9840B8F0C8
S11302B080912220909123200A972AF08093222073
S11302C09093232004C01092222010922320809126
S11302D0222090912320809328099093290908953E
S11302E0E0E4F2E080A1806880A383A18823E9F39D
S11302F0E0E4F2E024A135A193A1916093A3C901A4
S113030008950E94700120912020309121202A30EC
S1130310310524F0109220201092212020912020D9
S113032030912120F901EE0FFF1FE75DFD4D808321
S113033091832F5F3F4F2093202030932120E9E2C7
S1130340F2E24DE352E220E030E081919191280FF6
S1130350391FE417F507C9F7ADECBCEC0E9455054D
S113036096958795969587959695879508950E9475
S113037081019C01AFE0B7E20E9455052FEF3FE0F9
S113038040E050E00E943305209328093093290966
S11303900895823061F018F4813031F0089583308B
S11303A049F0843071F008950E94320108950E944A
S11303B0B70108958FE097E2809328099093290963
S11303C008951092280910922909089590912806F9
S11303D092FD16C09091280693FD14C090912806B2
S11303E094FD12C09091280695FD10C09091242090
S11303F0933071F090912420913059F481E009C038
S113040081E007C082E005C083E003C084E001C04E
S113041083E00E94C901089542E040930206E0E0AF
S1130420F2E038E031A381E080A320E1228311824D
S113043096E09483808340932206E0E4F2E031A3C3
S113044080A32283118294838083089581E0809322
S11304506106E0E0F9E083E1818383E080838FE05B
S113046097E286A397A310A611A608950E940B05F0
S11304700E94E20468E080E30E94D80484E00E94C1
S1130480A60480E20E94B4048CE00E94CA0480E2C4
S11304900E948E0481E00E949A040E9459040E94E2
S11304A0DD040E9490030E949F03E0EAF6E0828547
S11304B08064828782E0868B81858C7F81608187DE
S11304C065E070E280E00E94010460E070E281E097
S11304D00E9401040E94AE030895E0E2F6E08CE37A
S11304E0828380E1858B848B838B828B0E9436028E
S11304F00E940C020E942602E0EAF0E08281816000
S11305008283789408950E946D0280E00E94E6013F
S1130510FCCF1F920F920FB60F9211240BB60F92BD
S11305202F933F934F935F936F937F938F939F93F7
S1130530AF93BF93EF93FF93CF93DF9300D0CDB7E7
S1130540DEB7AE014D5F5F4FBE016E5F7F4FCE01E0
S113055001960E94E3038B818823A1F00E947C040E
S1130560682F8BE290E20E94890380912B208336CE
S113057021F483E08093242005C0863619F481E0B9
S1130580809324202396CDBFDEBFDF91CF91FF91CE
S1130590EF91BF91AF919F918F917F916F915F91F7
S11305A04F913F912F910F900BBE0F900FBE0F9064
S11305B01F9018951F93CF93DF93C0EAD6E010E203
S11305C01E838F710E9425058FEF0E9425051D83D0
S11305D0DF91CF911F910895DF92EF92FF920F93D5
S11305E01F93CF93DF937B01C42F90E29093A606D1
S11305F08F7180620E942505D82E8FEF8C0FCC233B
S113060069F0E701082F10E00F5F1F4F0E0D1F1D4B
S113061089910E942505C017D107D1F780E2809304
S1130620A5068D2DDF91CF911F910F91FF90EF9033
S1130630DF900895FF920F931F93CF93DF93F62ECD
S1130640C0EAD6E010E21E838F7180620E94250505
S1130650082F8F2D0E9425051D83802FDF91CF91B8
S11306601F910F91FF900895BF92CF92DF92EF9266
S1130670FF920F931F93CF93DF936C01C0910B20D4
S11306801C2F6C1708F4162F80912A20811127C083
S11306900C2F011B80E28093A60681E60E942505AB
S11306A0B82EEE24EA94E10E111102C00FC000E04E
S11306B0E601F12C8FEFE81AF80AEC0CFD1C8FEF21
S11306C00E9425058993EC16FD06C9F7002399F0CD
S11306D0C02F8FEF0E942505C150D9F70CC080E2CE
S11306E08093A60681E60E942505B82EEE24EA949E
S11306F0E10E1111DCCF80E28093A5068B2DDF91F2
S1130700CF911F910F91FF90EF90DF90CF90BF900A
S113071008950E94340387E10E94DA0281700895EB
S11307201F93CF93DF93C0EAD6E010E21E8382EEDC
S11307300E9425051D83DF91CF911F9108951F937A
S1130740CF93DF93C0EAD6E010E21E8381EE0E94CD
S113075025051D83DF91CF911F91089580E00E94AC
S1130760DA0281FD0CC0682F636080E00E941A03E6
S11307708FE79EE30197F1F700C0000005C0682FE2
S1130780616080E00E941A038FE094E00197F1F722
S113079000C0000060E787E00E941A0340910A202D
S11307A065E270E28AE00E94EC020E9490030E94DB
S11307B09F0380E88093A5068FE094E00197F1F70A
S11307C000C000000895EF92FF920F931F93CF9300
S11307D0DF937C018B01EA0160E787E00E941A0342
S11307E0982F9072F7019083982F9071F80190835D
S11307F080748883DF91CF911F910F91FF90EF90C8
S113080008950F931F93CF93DF93C82F8B0181110A
S113081008C040910A2050E085E290E20E946405FD
S113082004C0873078F5823058F4EC2FF0E0E75EAE
S1130830FF4D40910A20B80180810E94EC0208C05B
S1130840E82FF0E0E75EFF4D41E080810E94EC027A
S1130850D0E0FE01ED5EFF4D60910B2080810E948F
S11308601A0382E00E94DA02C35FDF4D61E070E0A8
S1130870088002C0660F771F0A94E2F7682B82E0B3
S11308800E941A03DF91CF911F910F9108951F9336
S1130890CF93DF93C0EAD6E010E21E8380E50E9486
S11308A0250583E70E9425051D83DF91CF911F91C4
S11308B008958DE10E94DA02682F64608DE10E9440
S11308C01A038DE10E94DA0281110AC00E944704D2
S11308D08DE10E94DA02682F64608DE10E941A03A0
S11308E08CE10E94DA02682F6F638CE10E941A0384
S11308F081E080932A2008951F93CF93DF93C0EA69
S1130900D6E010E21E8380E60E9425058FEF0E9448
S113091025051D83DF91CF911F91089588232CF025
S1130920682F85E00E941A0308956FE785E00E940E
S11309301A030895882329F06FE381E00E941A03C3
S1130940089560E081E00E941A030895CF93C82FB0
S113095086E00E94DA02897FC670682F6C2B86E0DD
S11309600E941A03CF910895CF93C82F86E00E9466
S1130970DA02877D9C2F9872682F692B86E00E948B
S11309801A0386E00E94DA0291E0C81390E0892FEE
S1130990CF910895CF93C82F80E00E94DA02837F1D
S11309A0CC70682F6C2B80E00E941A03CF910895BD
S11309B0682B84E00E941A03089560E787E00E9490
S11309C01A0308958FE39CE90197F1F700C0000032
S11309D06FE584E00E941A0386E00E94A60480E288
S11309E00E94B404882319F081E080930C2080E0F5
S11309F00E94B4048CE00E94CA0460E08CE10E946E
S1130A001A038CE40E948E040E94DD040E94900369
S1130A100E949F030895E0E4F6E088E0818384E087
S1130A20828382E08183E0EAF6E080E2818380E4ED
S1130A30828380E88183E0EAF8E088E1848380ECC3
S1130A408583178281E0868308958093A008E0EA75
S1130A50F8E0818186FFFDCFE0EAF8E081818064DF
S1130A60818380810895A1E21A2EAA1BBB1BFD017C
S1130A700DC0AA1FBB1FEE1FFF1FA217B307E40779
S1130A80F50720F0A21BB30BE40BF50B661F771FD1
S1130A90881F991F1A9469F76095709580959095B1
S1130AA09B01AC01BD01CF010895A29FB001B39F8A
S1130AB0C001A39F700D811D1124911DB29F700D63
S1130AC0811D1124911D0895FB01DC0102C00190D8
S1110AD00D9241505040D8F70895F894FFCF8E
S1130ADE4C414D5000434C4F434B05200100010245
S1130AEE0304051112131415160A0B0C0D0E0F0028
S9030000FC
