S00D0000416C61726D2E737265632A
S11300000C94CF2E0C94F02E0C94F02E0C94F02E15
S11300100C94F02E0C94F02E0C94F02E0C94F02EE4
S11300200C94F02E0C94F02E0C94F02E0C94F02ED4
S11300300C94F02E0C94F02E0C94F02E0C94F02EC4
S11300400C94F02E0C94F02E0C94F02E0C94F02EB4
S11300500C94F02E0C94F02E0C94F02E0C94F02EA4
S11300600C94F02E0C94F02E0C94F02E0C94F02E94
S11300700C94F02E0C94F02E0C94F02E0C94F02E84
S11300800C94F02E0C94F02E0C94F02E0C94F02E74
S11300900C94F02E0C94F02E0C94F02E0C94F02E64
S11300A00C94F02E0C94F02E0C94F02E0C94F02E54
S11300B00C94F02E0C94F02E0C94F02E0C94243A04
S11300C00C94F02E0C94F02E0C94F02E0C94F02E34
S11300D00C94F02E0C94F02E0C94F02E0C94F02E24
S11300E00C94F02E0C94F02E0C94F02E0C94F02E14
S11300F00C94F02E0C94F02E0C94F02E0C94F02E04
S11301000C94F02E0C94F02E0C94F02E0C94F02EF3
S11301100C94F02E0C94F02E0C94F02E0C94F02EE3
S11301200C94F02E0C94F02E0C94F02E0C94F02ED3
S11301300C94F02E0C94693A0C94F02E0C94F02E3E
S11301400C94F02E0C94F02E0C94F02E0C94F02EB3
S11301500C94F02E0C94F02E0C94F02E0C94F02EA3
S11301600C94F02E0C94F02E0C94F02E0C94F02E93
S11301700C94F02E0C94F02E0C94F02E0C94F02E83
S11301800C94F02E0C94F02E0C94F02E0C94F02E73
S11301900C94F02E0C94F02E0C94F02E0C94F02E63
S11301A00C94C53C0C94F02E0C94F02E0C94F02E70
S11301B00C94F02E0C94F02E0C94F02E0C94F02E43
S11301C00C94F02E0C94F02E0C94F02E0C94F02E33
S11301D00C94F02E0C94F02E0C94F02E0C943847C2
S11301E00C9460470C94F02E0C94F02E0C94F02E8A
S11301F00C94F02E0C94F02E0C94F02EB032B032FD
S1130200B0326F336F33DA32EC32033312332133CB
S11302103C336F336F336F33573351486A484E481A
S11302207E48884892489C484A48464842483E4846
S11302300C943E480C9403330C9412330C945733AF
S11302400C94D6450C9492480C9484390C949C4894
S11302500C94DA320C946A480C9421330C94EC32EA
S11302600C9448350C9430360C9451480C94C03599
S11302700C943C330C9442480C9499470C94B0323F
S11302800C9416460C949B330C944E480C9488485A
S11302900C947E480C9446480C942B480C944A4881
S11302A00C946F33F410101028F500F411368011FB
S11302B03680102AA00000A0FF00A00000A0FF00CC
S11302C0102BB00000B0FF0062009F102C7000F4EF
S11302D0113640113640102AA00000A0FF00620031
S11302E07F102BB80100B0FF0062009F102C70003B
S11302F0F4113600102AA00000A0FF00A00000A006
S1130300FF00102BB00000B0FF0062009F102C70A3
S113031000F4113600102AA00000A0FF0062007F44
S1130320102BB00000B0FF0062009F102C7000F48E
S1130330113600102AA00000A0FF0062007F102BDD
S1130340B00000B0FF0062009F102C7000FDF1F5BA
S11303508005F08005F18032F41011800A1013102A
S113036020113A061029113600142A0000007F14C7
S11303702B0000009F102CF500BD010504060701A9
S113038005073040FEF323F724FA08021133200C4A
S11303900EF0707EF8FFFF3F0E00211512F0907EE4
S11303A0F8F74AABFFFFFF3E544AABFBF0C3002211
S11303B03116F0B07EF89F2BA59C520A22A520622C
S11303C0082286206208228620620822862062088B
S11303D022862062461A67A471C687FFFFBF040005
S11303E0236524F0207FF8FFDF2086D871C61D86A0
S11303F05862882566DC618825865862C61D675860
S113040062C87B80A507587A803D62C61D67DC619F
S1130410882586D871C61D865862C87B80A5075872
S11304207A803D62C61D67DC618825865862C61DD8
S1130430865862882566DC718625865862881D6721
S11304407CF8FF5100246C1BF0D87EF86F8B2CAB2A
S113045009BAF580480F8C548818E594220839C4E9
S113046008520C318294528C20A514231E31E211BF
S1130470235E29E29D21E082EEBDF65E8B222028D8
S11304808879A294274A79C290270C21C50853463B
S113049031C210528C308414230C29A588528A212D
S11304A08218F340410F0CF540608D8A2CF7E1B7B8
S11304B00025892CF0607FF8FFFFD290060EB81A51
S11304C0798D8D674851E41553D278E51434604131
S11304D0040D581039231644CE880511336441A401
S11304E010591029639653C8A8E41432AA21858CA4
S11304F0DBCAC0AB0C63DE3184283D48BB641452B4
S1130500EE18C5943A4839A40E425099A31054E603
S1130510280415394A412512435089E310542039DF
S11305200415385039048E544C81431552E0600D43
S11305308EA6E280E6C3FF7F1600266A25F0287F98
S1130540F8FF0F25DDEEABC6905A10A124114A1214
S1130550A124115A0EA9C5145B48B92698BC36E2E9
S113056028159752610C956584396515624C51C5FF
S113057098525439869454D01925956406514519D6
S11305804154592610559852A5A155DC61C51966E8
S1130590186226ADF5005B0F1061D82BA62D643EC2
S11305A0FCFF6100271312F0907EF8F74AAB1CFDA4
S11305B0B9F1A60FFFFF07282411F0887EF883C342
S11305C08D46DA6814238DC60A238D62F5FF355AE9
S11305D02B8DCE9146DC70C44D1F0E292A11F08854
S11305E07EF85BE30D371C69C4914639D268ADB01F
S11305F0D2E8FF6315238D6285914631D2481B6E84
S1130600B4F1E10A002A401FF0F87EF8FF5BA2086B
S11306104A0A9964104A06A9638C3BC2C8228829F5
S11306204A29823D40D8038495314699258F302E3E
S113063009C48E312A19649242E628C386123EFC0C
S1130640FFFF3F06002B5931F0887FF8FFFFFF1FA3
S11306501C1FBCF1C11B1FBCF1C11B1FBCF1C11B82
S11306601FBCF1C11B1FBCF1C11B1FBCF1C11B1F6F
S113067088071C7DC0D107DC07627CF0C6076F7C4D
S1130680F0C6076F7CF0C6076F7CF0C6076F7CF07E
S1130690C6076F7CF0C6076F7CF8FF7F09002C1A31
S11306A00DF0687EF8FF5F30A7A0720AAA1041051A
S11306B09144D248E4C30A002D1010F0807EF8FF64
S11306C05F6184F7E17F1D002E0F0DF0687EF8FF57
S11306D05F28A8DE8717012F3713F0987EF847C7E5
S11306E0236FC0F1C81B703CF2069C1E79038E4731
S11306F0DE80D3236FC0F1C81B703CEA0D381E792D
S1130700038E47DE80D3236FC0F1C8872F02305B8E
S11307101BF0D87EF87F4A41D61E08EB81A0CA316F
S1130720A9A04A95435639841153183185955258D6
S113073029859552582985955258298595525829C5
S11307408595525829859552582985955258318452
S113075015431839849153544144155425638C7AB4
S11307602030E7584C1FFEEF0131201BF0D87EF8F3
S1130770FF96A1672299E07AEC99501E19E58952F7
S11307806CFDFFFFF7E17F120032391BF0D87EF8D1
S11307907F4BBDD6DE7A4028730A3289A0A2CA29CB
S11307A0AA9CA2CA29AAD8CA125B6AA9A656D5507D
S11307B0FBD143EDEA03C63C60CC03C63C603EFC7F
S11307C05F0233491BF0D87EF87F4A3DC71E08EB11
S11307D00191CC31A8A472CA22A72C72CA2A965CB1
S11307E0624B2DF34015D14C52D5732B5B6EB15532
S11307F029AC94C24A31AB14B3C829AA9C630E7ABB
S113080060A80702734F7DF8BF070034481BF0D877
S11308107EF8FF9AA1D74432451549289088F28A78
S1130820288F8CE20829AD90D248298C98B28A2965
S11308308B9CA2082AA9A092482A88A8728A2A878F
S1130840AC721E48E381341E48E381248BADBF0F94
S1130850FF830035411BF0D87EF8FFC403233D30ED
S1130860D203233D3052B1F5274E2B41AD078442CC
S1130870A524832A451059E510462E7DA63062CA68
S11308802AA62C728A2AC89CA21E10EA81D0DA53A6
S11308901FFE370136521BF0D87EF87F4BBDD6DEE3
S11308A03AA5A882AA545051E494454EB1E4D29199
S11308B0C3C850A988764A702795634E2AC6AC529D
S11308C0CC2AA534524A23A534524A2BA434524A82
S11308D023863462CA2AA62C82CC31E901B15E6B2C
S11308E0307DF8BF070037361BF0D87EF8FFC2030F
S11308F0C63C60CC03C63C602EB1C5125B5962ABEA
S11309005A6CB1C45696D8AA165BD5624B2DB6AABA
S1130910C5966A6AB1A5165B3EFC0F0338581BF0F6
S1130920D87EF87F6AB9B71E10E90182CCB1923142
S11309306515535631651553563165954316412552
S113094095648A59CFADC7DC5BC598549DB2C82164
S1130950AC94D248298D94D248298D94D248298DBB
S113096094C28A29AB18830C7A80A407C47A6E7D5A
S1130970F83F070039541BF0D87EF87F6A39C71E48
S113098008EA8181AC53543964155358298595522A
S113099058298595525829859552582965194396A1
S11309A031251D730C3A0F14D442494B947548B148
S11309B0952597D872C82A87A8824AAA4E510F88CB
S11309C0F55A7BEAC3FF41003A130DF0687EF8DF65
S11309D02BA8DE87970AAAF7E145003B1C0DF068B7
S11309E07EF8DF2BA8DE8797CC29A83A0515441298
S11309F0412451697C58013C4E31F0887FF8FFFF57
S1130A00FFFF11F1412B1FACF301421F1CF4013A0B
S1130A101F20F4013A1FA0F3413A1FA0F3812A1FBB
S1130A20B4F1C1331FB8F3413B1FB8F341431FB4C2
S1130A30F341431F34F4413B1FB4F381231F40F1BE
S1130A40E1FFFF2F003D2531F0887FF8FFFFFFFF16
S1130A50FFDD071C7DC0D107DC87FFC8038E3EE0A5
S1130A60E803EEC3FFFFFFFF06003E4E31F0887F30
S1130A70F8FFFFFFFF90F800960FDAF9A0A10F1A14
S1130A80FAA09D0F1AFAA09D0FDCF9A09D0FDCF9C6
S1130A90C0950FDEF880990FD2F9209D0FD0F90090
S1130AA0A10FD0F900A10F0EFA009D0FD2F96091A9
S1130AB00F9CF8F0FFFFC7013F2D19F0C87EF8BF67
S1130AC0A45C5B0F04F4803828A862922983152360
S1130AD058A1354A6899B549668D924ADF878D4297
S1130AE0EB3EFCAF0240AB30F0807FF8FFFFC7D491
S1130AF007E401D11F30F90155934AF3C0130D35B2
S1130B00CFDCE24A2EACECA20A2FAA24338A21A914
S1130B1020158A29A89C07C421881C43D021889CBD
S1130B2072CC29A642E61453A5728A2986A8728A31
S1130B302986A8728A2986A8728A29A5A8728A2970
S1130B40A5A8728A2986A8728A2986A8728A298603
S1130B50A8720822A6A4620A22A620630A2AA6185A
S1130B60444A2AA7900786228709B6CA516331836B
S1130B708C49AED802CD07CC7CC0CE07EB7CB0D478
S1130B8012FB01C31F281F8007C407837DF84B0095
S1130B90415D24F0207FF8FF9F30DE74C4D14E5BAA
S1130BA069124A2EA26032CA2DA4D8424A2DA5D475
S1130BB0620A25A7CC828A2CA8C4A20A2CAA40B215
S1130BC0CA2BACB8C24A7B20B107D27A40AD079693
S1130BD02292A4220B2AB29C428B29B418524B298C
S1130BE0B69062CB28B88882CB87FF1F014264206D
S1130BF0F0007FF8FFA30F0CF740610F1CF5004ACB
S1130C00659D549A41C515541E41E511541E41E594
S1130C1011541E41C515545A496519F580590F9050
S1130C20F640610F1C55D649C515545E39E59553F8
S1130C30203905925360310592535E39E59553DAB4
S1130C40396521F4004A0F1CF580590F8C0FFFEF12
S1130C5002433F20F0007FF8FFED35DF7B80B007D3
S1130C60CA3AC9A8D20A2AAEA0F2C829909C02C9DD
S1130C70219CECFA1FA7F102092290A0E24A2AADB6
S1130C8024A3CC7AA0B407C67B2048F6E1FFBB00BE
S1130C90446222F0107FF8FF57DF7C80BC074C7B56
S1130CA0E0B0A2D02AECA8E24C2AAFA4020B2AB0EE
S1130CB0A012CB29B19C12CB29929C22C929929CC7
S1130CC022C929B29822C929929C22C929929C122C
S1130CD0CB29B19C12092AB0A0F20C2AAFA4E24C91
S1130CE02AECA8A2D07AE0B0074C7B80BCF7E1FFE5
S1130CF0BB0045321DF0E87EF8FF8D07CE79E09CFD
S1130D0007CE79E09C82EB3FFC80410F18F48041D0
S1130D100F185470FD0F3F70CE03E73C70CE03E70D
S1130D20C3FF210046281BF0D87EF8FFC403E53C2E
S1130D3050CE03E53C504EB1F59F7D80A007087A64
S1130D4080A007082AB6FE7F1FFEC701476424F06F
S1130D50207FF8FF2F84DEEA03423E40DE03A71D16
S1130D60759671461558529124914950F900900F87
S1130D7002F900940F40F900940F40F90014D64C86
S1130D8061CD14D64C61CD145A4CA1E5105A4E993C
S1130D90E594594E990515595091259558928145D8
S1130DA09D66D6038A3D90DC0326BE0FFFBF050077
S1130DB0486522F0107FF8FF570B2CA8C0820A2C3C
S1130DC0A8C0820A2CA8C0820A2CA8C0820A2CA817
S1130DD0C0820A2CA8C0820A2CA8C0820A2CE881EE
S1130DE0851E58E881851E58A8C0820A2CA8C08296
S1130DF00A2CA8C0820A2CA8C0820A2CA8C0820A85
S1130E002CA8C0820A2CA8C0820A2CA8C0820A2C52
S1130E101FFE3F060049110CF0607EF85439F5FFBF
S1130E20FFFFDF8747004A271BF0D87EF8FF62B137
S1130E30F5FFFF67C9298B9CB2C829AA20920C2A06
S1130E40C7A807C27A203406D587FF4D004B5F2020
S1130E50F0007FF8FFA3A5195498496519559459D2
S1130E6025195690690515574E79C514584A898530
S1130E709858869145985982A1AB2ABB2AA3259CF0
S1130E8059C491659C588889A51858CA79C51C57B6
S1130E90CE690599569261459955D451659D54D8AA
S1130EA041A519549C39E5990FFFEF014C1C19F029
S1130EB0C87EF87FA1D0FAFFFFFFE803A53C50CA23
S1130EC003A53C503EFC07014D9A2BF0587FF8FFD8
S1130ED0FF14A207A189109A08A598508A09A59819
S1130EE0907A0AA9474241259047424125945642A7
S1130EF041459046444145904644414594554441BA
S1130F0065904546416594544641659454464185EF
S1130F109044484185945348418594434A41A5905F
S1130F20434A41A5D45031A410535031A410535016
S1130F3031651453503964905350394494535039A3
S1130F402594535041241054A184AA745241259DE0
S1130F5054504927155454858AAA5051D587FFFF08
S1130F600A004E7923F0187FF8FFCF9C57D07905FB
S1130F702157506A05A5569062052956D05A059501
S1130F80505641251855501145155484490595610D
S1130F9050350CAA88390595524E41A51853503145
S1130FA0152AC69482CA29A5A0720C29A820330A3E
S1130FB02AC88C824A32A2A0A28A28A828130A2A04
S1130FC0AB8482CA5AA830850A53A8B4844A4BA871
S1130FD03884CA3BA8BCF3E1FFCB004F6025F0285E
S1130FE07FF8FF2F35FB80980F90F880796699661B
S1130FF02D038B2AB1A4320B2AB320520922959CCB
S1131000528B29B598528B29B598528B29B5985291
S11310108B29B598528B29B51C52092295A0320B05
S11310202AB324228B2AB1ACF24A2BCDB493CE7BC3
S1131030C0C407087D787DF8FF470050401EF0F0DB
S11310407EF8FFCDF71E18EC81A21E30A924840A75
S11310502BA8B4724A2BA7B4724A2BA7B4724A2B9A
S1131060A7B4724A2BA7B0824A42E801931E28EA29
S113107081C1DE2BB9FEBF0FFF0F01516526F03091
S11310807FF8FF2FB3FB80A00F10F98081661967EA
S11310909A6106965562516596546649A492442A0B
S11310A041A596536A39A596536A39A596536A3968
S11310B0A596536A39A596536A41A492442A496570
S11310C0965466514496556261E515579A71271DE9
S11310D0F88009473DD0D803CB3D903EFCFF330058
S11310E052641EF0F07EF8FFCD07827B80AC074C83
S11310F07AE0A0A20E2ACC9CD2CA298E9CE2C829EE
S11311008E9CE2C8298E9CD2CA29ACA0A24C7AA09B
S1131110A807067B80AC078A2ACAA4B24A2AACA0D4
S1131120C20A2AACA0D2082A8DA0D2CA29AD9CD268
S1131130CA298E9CE2C8298E9CE28A29AE98F2C8FC
S113114087FFA300534E20F0007FF8FFE5351F080A
S1131150EF81D11E28AB52A595441E49E411541EBB
S11311604984135EB6D128ABEBE603413E10A6BB1F
S11311704A9F5D78D99529B098028B29B09CF208D2
S11311802AAEA0A38C7AE0AC074A7B4044F6E1FF88
S1131190CB00541C1EF0F07EF8FFC1079A78A0899A
S11311A0079A78A0B592EBFFFFFFFBF0FF005564B0
S11311B023F0187FF8FFCF14594E91E514594E913E
S11311C0E514594E91E514594E91E514594E91E5A3
S11311D014594E91E514594E91E514594E91E51464
S11311E0594E91E514594E91E5144950910415490D
S11311F050910415491289259158528144955756A6
S113120069661D65DA03E63D50E00382B60FFFBF51
S11312100000565A1FF0F87EF8FF0B65166164193A
S1131220259A5162210696529E29E515635C39A5DB
S113123099535A418695549649651565545925998B
S11312405552690595568E69E594574C79A51458FD
S11312504A898594584691659459449925145A426B
S1131260A9AA269B2EBA275B1FFE1F0357A02FF0A7
S1131270787FF8FFFF4BC599574471A71951DC6972
S11312808514865A2185A156486169155316096447
S113129015535409641553540964915314112515B5
S11312A05412192415540D920AAA064944114448AB
S11312B0394595430A394515530A398411434C2954
S11312C08511430E298595420E298515520E29C490
S11312D011425019C595411219C5954112190412AC
S11312E05112190412415409059640160924AA45BD
S11312F00291889140246A48A276E869871A77A8FF
S113130079C596572C81E5C3FFFF0900585B22F08D
S1131310107FF8FF470D34C738934C2BCA30B38C79
S113132032CDA4E20C32CF9C128B29D29042CD282C
S1131330B58862175619E9C3CD463965754B30B582
S11313408C52CB30B314138D29B11CF34A32CDA87F
S1131350D2CA32AB34938C33A83C734A34C5C443E9
S1131360CA341FFE3F0500593C20F0007FF8FF8B74
S11313706696616229059A625E39A619545A4966CD
S1131380D59649A595545C39E599526229259A5117
S113139066198596506A09E4A68BB2D9F5FFFBF06D
S11313A0FF34005A341DF0E87EF8FF890752792093
S11313B095075279205DCBDAECB1367BACCD1E6B50
S11313C0B3C7DAECB1367BACB90F28F280220F2810
S11313D0F280FAF07F07005B1613F0987EF8E7932B
S11313E04AAAB8FAFFFFFFFFB9A4B20F015C2A139F
S11313F0F0987EF887089C41022748E00C12384197
S1131400022748E00C123841026790C009123841A3
S11314100267907CF80C005D1514F0A07EF80FA60E
S1131420955EFDFFFFFFFFADDC8706005E6B30F0CD
S1131430807FF8FFFFFF77C8078D7CD0C807CC7C7E
S1131440B0CC074B08F1811A627C9086181FA0412A
S1131450C4076890F1C119647C60A60FCA30E383A5
S11314602290F8800C343E18038D0F8650E203312D
S1131470D4F8200C353E00830D3FD8F0838D3EDC3C
S1131480E0C30D2EA0D8030E3DE0C8430E3CE4C0DB
S1131490438E0FFFFF07015F1318F0C07EF8FFFFB4
S11314A0FFFF971FF801F6E1350060170BF0587E37
S11314B0B8590E39E51044D0480311343EFC7F1E60
S11314C00061421AF0D07EF8FFFF026B4F3D20907E
S11314D0390595540E51C594452CD59A7A20A00708
S11314E0C641A618938A29AA94B24A29AB94B24A4F
S11314F029CA94A28C29079917086282A444CA872E
S1131500FF6500624B1CF0E07EF8FF62B9F5BF9105
S113151056092D3D50103A059D548E59E498554C6A
S113152061C594464C69C494464C69C494464C695C
S1131530C494464C69C414564C61E41855CE410514
S11315402163D0032495C05419E8C3FF0500633117
S113155019F0C87EF8FF7F6635A71E08A81C634AE9
S11315602AA62862C822A52C520AADBF450C59C42C
S113157094544C49E554E981A05C531FFE0701646F
S11315804C1CF0E07EF8FF8D72EBBF9546494C147D
S1131590E44239C6A4531032451D539631849952FE
S11315A09829A595525A29A595525A29A595525A72
S11315B029A515439831651953D439251D544C4A2E
S11315C00F10C5426168940FFFD300653C1AF0D038
S11315D07EF8FFFFC46A6E3D1092390511554C59CF
S11315E0C410560A61851456C803873C70C8038723
S11315F0945AB384954258294595535241E594F43D
S11316004060CDA90FFF07661C11F0887EF87BE9C6
S113161028B34C61A411560F3DF199C2EAFFFF3E75
S1131620FC3800675A1CF0E07EF8FFFF5D254A6A2B
S1131630A1A007CA31071DA28E29CB18C24C29CC00
S113164094D24A29AD94D24A29AD94D24A29AD9470
S1131650D24A29AD18C28C29CB98A2CE29089D5311
S11316601272A1A8250A3B8460EA94554E59E514E8
S11316705552954E31EB81E098441FE601684B1BAF
S1131680F0D87EF8FF42B1F53FA154090D3D40105A
S113169032E698544E59C594554C59C594554C59F5
S11316A0C594554C59C594554C59C594554C59C578
S11316B094554C59C594554C59C594554C59C59499
S11316C0554C59E5C3FF1A0069140BF0587E78B8DD
S11316D098DA876A31F5FFFFFB7016006A180EF07E
S11316E0707EF8B5926A1FE64AAAFFFFFFCF9C639B
S11316F050F920026B4518F0C07EF8BF5766FD0F05
S113170099528E31C598538A4185985448516594AD
S11317105544612594A65C7ACAAD568261459855B4
S113172046596518558849A518544C41C598538E97
S11317303105995252F9F01F016C110BF0587E7863
S1131740B898FAFFFFFFEFC359006D5A2BF0587F8A
S1131750F8FFFFFFBF5246326995C0084B0F10E1F6
S113176010322510539049279563D249E5945516B4
S1131770396595454E596591535665CAAA4C599594
S113178029AB326555A6ACCA945599B22A5356650D
S1131790CAAA4C599529AB326555A6ACCA94557D55
S11317A0F8FF1F046E481BF0D87EF8FFFF6E114A45
S11317B095C0D203049D63A572CA2AA6AC62CA2A44
S11317C0A6AC62CA2AA6AC62CA2AA6AC62CA2AA677
S11317D0AC62CA2AA6AC62CA2AA6AC62CA2AA6AC61
S11317E062CA2AA6AC62CA2A1FFE2F016F451CF0EA
S11317F0E07EF8FFFF61055D7B20AC724C2AC99C3A
S1131800B2CA29AC18D24A298E94E248298E94E2AD
S113181048298E94E248298E94E28821AD98C28AA0
S113182029ABA0924C2AC7AC074273507DF8BF0E77
S113183000704C1CF0E07EF8FFFFC932D22AA1A54B
S1131840070A42C79C93CA31AB18B38A298D98D230
S11318504A29AD94D24A29AD94D24A29AD94D24AA8
S113186029AD94D24A31AB18B38A39A91C74CC7906
S1131870A0A0125A2A23AD72EBDF874300714B1CE0
S1131880F0E07EF8FFFFDD344A62A2A007CA310708
S11318909D928E29CB98B24C29AD94D24A29AD940D
S11318A0D24A29AD94D24A29AD94D24A29AD94D2D0
S11318B08A29CB98B2CC29E91C73107AA0A416CA41
S11318C04AA3DCFAEFC32C00721A11F0887EF8FFE9
S11318D078198594704847123ACAACC2EAFFEFC33C
S11318E0AF01733618F0C07EF8FF3FB5984B0F84F4
S11318F0531D92C821891C92C821B44C14976BAD16
S11319003D25CD2C9494A248298A94928A29C7987B
S113191007047A6B7DF89F00741A10F0807EF86FCC
S1131920863656BDE38467CAAAFF7F2C9D84D08780
S1131930EF0275491BF0D87EF8FFFFCDB28A29ABC0
S113194098B28A29AB98B28A29AB98B28A29AB9803
S1131950B28A29AB98B28A29AB98B28A29AB98B2D9
S11319608A29AB98B28A29AB98B2CA29C91C730ECA
S11319707A80A0168A52A27CF85F03763E1AF0D0D1
S11319807EF8FFFF6A7145144748618514564A5929
S1131990C414554C5104D51051E510554C51C51083
S11319A0560A6185104708714594470481251098AB
S11319B024360D35B47CF81F02777127F0387FF890
S11319C0FFFFFF0F14751611451D5506514795412C
S11319D0D4518414440241A510440241C410440269
S11319E041C414430631E510430631041143063162
S11319F004155208292411420A214411420A21449F
S1131A0011420C196411410E118411410E118411FB
S1131A1041D010A4A1841C4AC8A1849E59069A6589
S1131A20A0592692463EFCFF510078421AF0D07E1F
S1131A30F8FFFFAC59A594554C49E59853523165CC
S1131A4095425A19A599505E0924A279A6A166A2C5
S1131A50A85E11C591615821651553523906156464
S1131A604C51A514564669E6C37F1D0079481AF007
S1131A70D07EF8FFFF6A7145144748618514564AC1
S1131A8059C414554C5104D5A572882AA62C62CA8F
S1131A902A85B0424A2B83B822CA2BA1BC12484CD7
S1131AA0114934CF34B5AAA4964A6A55492D95589C
S1131AB0F2210F007A2E16F0B07EF8FF1F7A4094C0
S1131AC007447940C4020B34CFC00A9A676005CD3D
S1131AD033B082E61958C5070679609007C6877F38
S1131AE009007B2F18F0C07EF8BF51E281E8195934
S1131AF0CD3209A5FF66996496682082279E88A442
S1131B00A185125A28FD8F164A689966A27866E163
S1131B10007C1110F0807EF8BA70F2FFFFFFFFFF27
S1131B20DF017D3018F0C07EF8DF2DF34434CD2C76
S1131B3094D042E97FB450420B3512C50B2268623F
S1131B409964964928FD37CB24B348F3103CB17C03
S1131B5080007E1C1AF0D07EF8FFFFFFD64984B4C3
S1131B6061C6036714D24649E7C3FFFF1C00A00CFB
S1131B700EF0707EF8FFFF3F0E00A11512F0907E6C
S1131B80F8FFF1D2EA3E544AABFFFF7F1F7400A274
S1131B905A1AF0D07EF8FFAF083CAEB8D3157035B2
S1131BA0B71E08AA94834A1981A052842887182151
S1131BB08A2965B452842B45B842862B64B842C442
S1131BC02B63BC32C62B43C0324429878851CA29AF
S1131BD04198724A10A5A4438C7AAC39050516774E
S1131BE05C81C51D397C781200A3331BF0D87EF8C4
S1131BF07F31D4E5DE7A4024730C2AA99CB28A2969
S1131C00AB9862EBCD07C27A20AC07822BB6FE7F7D
S1131C10F301441E40E401F4E17F0C00A4531EF0E0
S1131C20F07EF8FF8BC18632E828438E338A29235D
S1131C300DA1C4580F8C6688710491461461D31A9F
S1131C406EA8E1861A6EA8E1861A6EA8E1861A6E5D
S1131C50ACC106238A3482483BE4AC074A22428959
S1131C60914631659C218711547CF8FFBF0600A57D
S1131C70421CF0E07EF8FF5E81459467467185144E
S1131C80574A61C514564E510515555241451554D0
S1131C901639E528A3842A4B2CB250190516512273
S1131CA00945AA89D6034B3CB058B9F5FF3EFC1F41
S1131CB001A61510F0807EF879E1E4FF7F1F1685F8
S1131CC093FFFF7D8001A74616F0B07EF86FABC589
S1131CD05243E50844625DB4E081E82188D84A0EA5
S1131CE015624C650822A5A0420A22A52052CA29E1
S1131CF0C594724E30A829E5327845138BA48BC560
S1131D008454CE2806B5C4DAF9300D00A8100EF0BC
S1131D10707EF89D4274A47CF8FFDF06A98B2AF03C
S1131D20507FF8FFBFCCF803013F50AA5166124818
S1131D302291E48D83CE68C33033D628AF1035C8E2
S1131D4021A68C344A41C40C344851A40C244A5171
S1131D50C488334A51C44C85D46184215618518AAD
S1131D601546946285118658618421561861881538
S1131D706614B288194794A288114894928A11680B
S1131D80948288194918438C116A9467C61A8699F3
S1131D90D1C64167BC41471C724CE24835C8E007D4
S1131DA002671FFEFFE700AA3613F0987EF80F1CA7
S1131DB0B51019E44C669C0127950E33860C33CE7E
S1131DC028038D32D028E390320E31649883C240C8
S1131DD046900FFA03423C203EFCFF1600AB3E1B2C
S1131DE0F0D87EF8FFFF2749218D14D288218D1465
S1131DF0D24829AC14D248218D94C24A218D14E2D0
S1131E004A218E94E24821AE14E248298E14E288D5
S1131E10218E14F248211FFE3F0100AC191EF0F080
S1131E207EF8FFFF7FE381451E58E481B5E7EFC3E9
S1131E30FFFFA700AE922AF0507FF8FFBFCCF80353
S1131E40013F50AA5166124822118C90378823A36F
S1131E508DF2C858A40C540651C30C35C848E30C81
S1131E6035CA40E30C35CA40020D358C38038D4425
S1131E70CC8406226718915C124624B68411C925C5
S1131E8061441A882061449A9030224D48988146D2
S1131E901A671C81461A472081861A46A071861A41
S1131EA0652471861A45A861861A642C61861A63B2
S1131EB03481C51375C421C71C70D4A20A7E207056
S1131EC0F6E1FF7F0E00AF100EF0707EF8D5071E0E
S1131ED0601FFEFFB701B0220FF0787EF8F192CEBA
S1131EE01963146106114710710411479051A6310A
S1131EF0CE49E5C3FF7F0200B14E31F0887FF8FF81
S1131F00FFFF1F1C1FBCF1C11B1FBCF1C11B1FBC69
S1131F10F1C11B1FBCF1C11B1F88071C7DC0D10769
S1131F20DC07627CF0C6076F7CF0C6076F7CF0C6E6
S1131F30076F7CF0C6076F7CF8F30F38FA80A30FA5
S1131F40B80FFFFFB701B22011F0887EF85B08AD2F
S1131F50C20A21850C431AC54823AB6E915531370B
S1131F60BC0FFF7F1000B32912F0907EF8DBE9303C
S1131F70D30829858C431CC58A3AAB34E4081C6415
S1131F80A041061A8494429A59E97CF8FF3701B4B7
S1131F90160CF0607E78A81C72CAA1D040E41034FC
S1131FA03EFCFF3900B6761BF0D87EF8FFCE530F07
S1131FB088848A58A908A58A48AB88B48A48AB881B
S1131FC0B48A48AB88B48A48AB88B48A48AB08A5BD
S1131FD08A58A908868A78A508298A90A208298A95
S1131FE090A208298A90A208298A90A208298A9096
S1131FF0A208298A90A208298A90A208298A90A274
S113200008298A90A208298A90A208298A90A208FD
S1132010298A90A208298AF8701100B70F0DF06878
S11320207EF87FA4A07A1FFEE700B8190EF0707E38
S1132030F8FFFF19C124760E524591350951C85055
S1132040044900B9160EF0707EF835920A32E71C86
S113205021C69AFFEFC3FF3B00BA3A15F0A87EF8F9
S11320609F304D29420822869C8186218894A1466E
S1132070196A94A146196A94A146196A14828819A6
S1132080681C6208228428D5CC87D603823C203E73
S1132090FCFF03BB3E1BF0D87EF8FFFFC748218E30
S11320A018E248218F14E288218E14E24A218E948A
S11320B0E24829AD14D24829AC90C24A218D14D2E9
S11320C088218D14D248218D18D248211FFE3F0447
S11320D000BC7927F0387FF8FF5F1D91BC018B1B92
S11320E0EFB8F146186D4021062374B051C722752C
S11320F0AC61871A77A871471A78A481071A79A066
S113210091C7197A18A2871988BC5146226F948105
S11321108A1DC8D8814C1D688451071A61D08186F4
S113212018939C31C61C489021C91964C87146197A
S113213071A007021BE881B0467A20AC11C71B725C
S11321403822871B737CF8FF9B00BD7027F0387F13
S1132150F8FF9F1D903CF2CA1BEEB8F146186E3C86
S113216021461B743042071B752C52C71A76A8717E
S1132170871A77A481072278A091C721799CA18727
S113218019C7B86146516C9461D61C8590128719A1
S113219086405288217040F2062C6F40F20624706B
S11321A0B802872B90B412472372B032C72A733017
S11321B0A706736934F7E1FFCF01BE7D27F0387FAE
S11321C0F8FF1F262CB9B11823ABADB188218AAC16
S11321D071881A96A4614922F2A8318D2213A18133
S11321E0C9217A9801071A65C4810621919442860F
S11321F06C845055C621EB9881081EA7DC718C2590
S1132200668461C7196154628618759831061D4742
S11322109041871964CC614619929461861CE681C9
S1132220D0887920B4711E086CC401471C6FC8E1C2
S1132230881C1FFEFF2200BF2C19F0C87EF8FFFF88
S11322404AA1751F3648A547CBACA425CBAC28A121
S1132250756C14A34A39A79807C87940A4C7D83B1A
S11322601FAA00C07224F0207F88960F42F92090A4
S11322700F04F920900F04F940900FC4F8608C0FFC
S11322805F36DE74C4D14E5B69124A2EA26032CA34
S11322902DA4D8424A2DA5D4620A25A7CC828A2C23
S11322A0A8C4A20A2CAA40B2CA2BACB8C24A7B204A
S11322B0B107D27A40AD07962292A4220B2AB29C8F
S11322C0428B29B418524B29B69062CB28B8888225
S11322D0CB87FF1F01C17124F0207F1828BE7C002A
S11322E0C807807C10C807807C00C807617C10C6C2
S11322F0874F1B6F3AE268A7AD340925175130198F
S1132300E516526C21A596526A3185925366414571
S1132310165462510516552059E515565C61A53DC4
S113232090D803693DA0D6034B1149529105155924
S11323304EA1C5145A0CA9A5145B48B165145C449C
S1132340C1E5C3FF8F00C26F24F0207F281B6F3AC2
S1132350E26813413411241342F030E30E343E7C1E
S1132360D478D311473B6DA54928B98882C928B7C9
S113237090620B29B594528B29949C320B2AB2A0FB
S1132380128B2AB0A802C92AAFB0E20A2BED81C48D
S11323901E48EB01B51E588A48928A2CA8C8720AB6
S11323A02DA6D062482DA5D8428A2DA3E0220A2E5C
S11323B01FFE7F0400C36924F0207FF84E21E3222E
S11323C0312EBB43A03B48F9F0DBC69B8E38DA695B
S11323D02B4D42C945144C46B985145B48A9A594B4
S11323E05A4CA1E494595091059558548145154887
S11323F0567985155758690F24F6405A0FA8F5C029
S113240052449254644145965368318516436A296F
S1132410C516526C1905175170F9F0FF2300C46AF0
S113242024F0207FF84C21C516526C21C516526C3D
S113243021E5C32F176FFCE18827AD7409251351DB
S113244070190497516C21C596522A3185965326EA
S11324504145964464490516556059E511565C6931
S1132460A53D80D803893DA0D4034B95581291050E
S113247095594E99C5944A4CA9A5105B48B96594E1
S11324805B44C1E6C3FF6F00C57124F020BFE20FB7
S11324901F63E85146164764714416476461861EFB
S11324A063F0E3CB872F9B7E3AE2682BAD7209255C
S11324B017516E19E516526C21A596526A3165962C
S11324C053664145925462510516555E59E51556B9
S11324D05AD51E48EC81B41E58EA81958A24A9C8AD
S11324E082C82CA7D062482DA558528A2DA3DC326D
S11324F00A2EA2E0F2E1FF4700C67A2FF0787FF8B7
S1132500FFFFDB0FA8FAC0AA0F2CFA00A3EA83523C
S113251042F9A094503E2045940F4811E583517D23
S113252030AA0F4421E5836048F92094523E00A666
S1132530940F40310F1867CC03C695F38069E63CCD
S1132540605A41851B54F803643F50F603453F60CD
S1132550745925175672610597567069E51657AC7C
S1132560710F9C52DE038798F7C021053E703EFC34
S1132570FF2F03C74A20F0007FF8FFED35DF7B8093
S1132580B007CA3AC9A8D20A2AAEA0F2C829909CB8
S113259002C9219CECFA1FA7F102092290A0E24A89
S11325A02AAD24A3CC7AA0B407C87BB261E1256F1D
S11325B034E2A4933E51510A5D357D8801C83C1D27
S11325C0F0E87E88944C72C944133D34A5C78767EC
S11325D01E38E781731E38E781730AAEFFF00306E5
S11325E03D60D003063D6050C1F53FFCC0390F9CEF
S11325F0F3C0390F9C0FFF8700C93B1DF0E87EA88C
S1132600955B30C1055379CAE4C33B0F9CF3C039D1
S11326100F9CF3C03905D77FF801831E30E801838E
S11326201E30A8E0FA1F7EE09C07CE79E09C07CE1E
S113263087FF4300CA441DF0E87E08957BECA98916
S113264092402619448E32E238038E333E3CF1C068
S1132650390F9CF3C0390F9C5370FD871F30E8017C
S1132660831E30E801830AAEFFE107CE79E09C07C0
S1132670CE79E07CF83F0400CB3F1DF0E87E385E65
S11326804A71A514574A71A514574AF9F0FC03E797
S11326903C70CE03E73C704EC1F51F7EC0A0070C12
S11326A07AC0A0070C2AB8FE871F38E781731E384A
S11326B0E781F3E1FF1000CC1B0CF06062822A4436
S11326C01241249134D4F85029A7FEFFFFFFFBF0F8
S11326D00800CD1A0DF0687E300AA25041549AD4F5
S11326E0F8502BA8FEFFFFFFFBF02400CE210DF0D5
S11326F068FA72CC39051512C8206322240C33C23F
S113270038E343A7A0FAFFFFFFEFC39300CF1F0FE7
S1132710F0787EA8155242212514524221251452E4
S11327203E4C1455FFFFFFFF7DF81E00D06722F0DA
S1132730107FF8FF57DF7C80BC074C7BE0B0A2D051
S11327402AECA8E24C2AAFA4020B2AB0A012CB298F
S1132750B19C12CB29929C22C9784028321E108A3F
S11327608C07842AE201A1C829929C22C929929C3F
S113277012CB29B19C12092AB0A0F20C2AAFA4E210
S11327804C2AECA8A2D07AE0B0074C7B80BCF7E1DD
S1132790FFBB00D18523F0187FF84221C322316C9E
S11327A0AB24203B0AF9F053E715745E41C8159435
S11327B05A41A915A458418A15B456412594555037
S11327C009461554445105156152416518540D8349
S11327D02A624E41A594535029C614544C858A311B
S11327E0A5A0724A29A81C430A2AC88C820A32A3CB
S11327F0A0928C28A8A8220A2ACA8482CA2AA1A044
S1132800B2162A4CA1C2142A2DA1D2122A0EA1F268
S11328100E2AEF7CF8FF3200D27525F0287F089746
S11328200F42F940940F04F960900FC6F860900FBE
S113283006F9608C0FDF6EF601311F20F101F3CC35
S113284032CD5A06165562496516546641A412449F
S11328502A39A516536A31A516536A31A516536A47
S113286031A516536A31A516536A39A412442A4174
S113287065165466494416556259E595569A692772
S11328809DF780890F10FAF0FAF0FFEB00D375255D
S1132890F0287F58281F84F201281F04F241201FCA
S11328A088F181201F04F281181FBEDEEC03623E12
S11328B040E203E699659AB50C2CAAC492CA2CA8E6
S11328C0CC8248258854724A2DA6D4624A2DA6D4B7
S11328D0624A2DA6D4624A2DA6D4624A2DA6D47289
S11328E04825885482CA2CA8CC92882CAAC4B2CA7F
S11328F02BAD34D34E3AEF01131F20F4E1F5E1FF81
S1132900D701D47325F0287F88970FC0F1A7274EED
S113291002D964103DCAC8C40C3CCEF8F0DD661F71
S113292010F301121F30CF2CD3AC6560512596549F
S113293066416516442A41A492536A31A516536A26
S113294031A516536A31A516536A31A516536A3157
S1132950A596432A41A412546641659644645125C0
S113296096555E69A59976D2790F98F800A10FAFB4
S11329700FFFBF0E00D56C25F0287FF81A29031F1E
S11329803170C3431C3C0AF9F0079A7D40CC0748D8
S11329907CC03CB34CB396814595585299059559E2
S11329A010A904914A4EA9C5945A4CA9C5945A4CED
S11329B0A9C5945A4CA9C5945A4CA9C5945A0EA9B0
S11329C004914A509905955912914595585679A5FF
S11329D09566DA49E73D60E203843EBC3EFCFF3A7B
S11329E000D66D25F0287FF85629C596526C29C566
S11329F096526C29E5C36F37FB80980F90F8807965
S1132A006699662D038B2AB1A4320B2AB32052098E
S1132A1022959C528B29B598528B29B598528B29B3
S1132A20B598528B29B598528B29B51C5209229519
S1132A30A0320B2AB324228B2AB1ACF24A2BCDB498
S1132A4093CE7BC0C407087D787DF8FF7500D75905
S1132A5030F0807FF8FFFFFF7F5150718924974049
S1132A609289239B30D289221F0082C8078218F2E0
S1132A7001A13E3044900F10FA40990F18F9809943
S1132A800F14FA0011413E3084900F0831E40341E1
S1132A9010F90010453A616413473281E41249AEDB
S1132AA0A0E2C3FFFF6F02D88925F0287FF8FF7BDF
S1132AB0E283413E10E503506013E53D70DC03C73B
S1132AC03D809A59871976966149959652692514DD
S1132AD054980905915606418415524C598614534D
S1132AE05629C514554C958CA95239C5145499725C
S1132AF00C2AA69C928AA95431A518554C29651113
S1132B00444861041561564145145612098515A5BA
S1132B1058598815765871271DF7C0710F1CF78016
S1132B208145B0583E08E483503E18E2C37F10004C
S1132B30D97923F0187F68960F00F900940F40F9B3
S1132B4000900F02F9208C0FC4F8208C0F1F2AB2BA
S1132B509C22CB29B29C22CB29B29C22CB29B29CA9
S1132B6022CB29B29C22CB29B29C22CB29B29C2213
S1132B70CB29B29C22CB29B29C22CB29B29C22CB5A
S1132B802992A022092A92A022092A9224124B22D5
S1132B90B1A402892AAFACD2CC3ACAB407CC7BA088
S1132BA0C007046D1FFE7F0100DA7023F0187F88D0
S1132BB0975E79EA03403CF9008C0FC0F8F0A92233
S1132BC0CB29B29C22CB29B29C22CB29B29C22CB0A
S1132BD029B29C22CB29B29C22CB29B29C22CB299C
S1132BE0B29C22CB29B29C22CB29B29C22CB29B203
S1132BF09C22092A92A022092A92A0224922B124C5
S1132C00124B2A90A8F2CA2ACDACA34C7BC0BC07B5
S1132C100A7C40D0F6E1FF1700DB7523F0187FE84B
S1132C20166FF8D94993503019048F422C31C30ED2
S1132C30343E7CA3C8728A2CA7C8728A2CA7C87297
S1132C408A2CA7C8728A2CA7C8728A2CA7C8728A31
S1132C502CA7C8728A2CA7C8728A2CA7C8728A2C7F
S1132C60A7C8728A2CA748828A24A848828A24A8E2
S1132C704892482C89C4920A24AABCB24A33EB284D
S1132C80D31E30EF81021F10B47DF8FF0500DC6E07
S1132C9023F0187FF891520A2DA5D0520A2DA57C55
S1132CA0F89922CB29B29C22CB29B29C22CB29B2FF
S1132CB09C22CB29B29C22CB29B29C22CB29B29C48
S1132CC022CB29B29C22CB29B29C22CB29B29C22B2
S1132CD0CB29B29C22092A92A022092A92A0224935
S1132CE022B124124B2A90A8F2CA2ACDACA34C7B61
S1132CF0C0BC070A7C40D0F6E1FF1700DD4520F098
S1132D00007FA8925D74D914279BF0E9C3AB669643
S1132D10616229059A625E39A619545A4966D596A4
S1132D2049A595545C39E599526229259A51661949
S1132D308596506A09E4A68BB2D9F5FFFBF0FF34FF
S1132D4000DE451EF0F07EF8FFCD92EBE5F71E188D
S1132D50EC81A21E30A92484CA32A8B0824A2BA7CF
S1132D60B4724A2BA7B4724A2BA7B4724A2BA7B0E9
S1132D7082CA32A824841E30E981A21E18ECBD92B6
S1132D80EBF7E1FF2100DF641CF0E07EF87F5A419D
S1132D90D71E08EA18932A54164165115416416542
S1132DA0115454412555C7A862CC2AC5B0524A2BA8
S1132DB085B852882BA5B4520C2BE6A872102A2889
S1132DC099A25029CC94D20C29AE90F20829AF8C48
S1132DD0220A22A488820829832042CA30A590426C
S1132DE05C29859972D287FFC300E04A1AF0D07E2D
S1132DF0F83F406C65C92577E0E9C359D69E7A400F
S1132E0020730A2AA91CA28A298B58AA35F54040A6
S1132E100F8C834C312615535429659552562965D8
S1132E20955294294519530E322F10C4044989949C
S1132E300FFF7900E14A1AF0D07EF8DF2A9566493F
S1132E402576BAE3C369D69E7A4020730A2AA91C60
S1132E50A28A298B58AA35F540400F8C834C312621
S1132E601553542965955256296595529429451947
S1132E70530E322F10C4044989940FFF7900E25491
S1132E801AF0D07EF8DF31D44C24512482C041C6DC
S1132E9023653462461B687CB8C9DA530F08644E54
S1132EA041259543543165114BB5A61E08E881713F
S1132EB09029C6A4628A2AA5AC52CA2AA5AC528A11
S1132EC032A52863CA41E6058298202991F2E13FA0
S1132ED00F00E34E1AF0D07EF87F9594D190188DB0
S1132EE03512501BA47C7890B5A71E10C89C824A4A
S1132EF02A87A862CA22966A4D3D10D003E3205364
S1132F008C49C514554A59A594554A59A514654A7E
S1132F1051C69483CC0B0431415222E5C37F1E0079
S1132F20E44D1AF0D07EF87FB390C20A29AC90C267
S1132F300A291FBEC4DA530F08644E412595435431
S1132F403165114BB5A61E08E881719029C6A462AB
S1132F508A2AA5AC52CA2AA5AC528A32A52863CAC9
S1132F6041E6058298202991F2E13F0F00E5581AC5
S1132F70F0D07EF82749355310118511501801857A
S1132F801150180185115110314D251F0EB3F6D47F
S1132F90030299535049E510554C59C452ADA90741
S1132FA0027A601C648A31A998A24A29AB94B24A75
S1132FB029AB94A24C29CA98729079812026484A58
S1132FC0A47CF8CF03E6602BF0587FF8FFFFFFBF27
S1132FD0B490628F34F540180F194404399542A90E
S1132FE098A2CE22D62C620B2BB534B21E7840A008
S1132FF0071E28E681074E49A758A34A2DACD4C220
S11330004A2DCCAC42CA3A8B94B246188B94A2484F
S113301020A99882C820A79C07C478E919C65652EB
S11330201FFEFF4701E73E19F0C87EF8FF7F6635B3
S1133030A71E08A81C634A2AA62862C822A52C52E7
S11330400AADBF450C59C494544C49E554E981A0D8
S11330501C5B525CE99A892AB1C44E4D94D2D44384
S11330601F7000E8471AF0D07EF8DF28B65872C9FE
S11330701D97BA038F0F875773EB8190CC2988A8CB
S113308062CA2286B052082BA4B0421E38E481439F
S11330901E38A4D49A25AC14C24A29AA9C920A2A9E
S11330A0A7A407026B4E7DF85F01E9471AF0D07EB2
S11330B0F81F23B5D052293B2CA9C48E0FB75773E0
S11330C0EB8190CC2988A862CA2286B052082BA42E
S11330D0B0421E38E481431E38A4D49A25AC14C2ED
S11330E04A29AA9C920A2AA7A407026B4E7DF85F7C
S11330F001EA4F1AF0D07EF8DF31D44C1453248205
S11331003C42C61B853462461B687C38BA9A5B0F06
S113311084644E41441553163184954258218515D3
S1133120F2C0210F1CF2C021A5D62C61A510564A6D
S113313051E594545039253D105873EAC3FF0A00F1
S1133140EB481AF0D07EF87FB390C20A29AC90C243
S11331500A291F3EB59A5B0F84644E4144155316E9
S11331603184954258218515F2C0210F1CF2C021EB
S1133170A5D62C61A510564A51E594545039253DE5
S1133180105873EAC3FF0A00EC1B0CF0607E78A1B0
S1133190A08248A21049240D353E54CAA9FFFFDF7E
S11331A0873700ED180CF0607E78A81CEA9443A1E0
S11331B009910F9DFAFFFFFBF00A00EE2310F08047
S11331C07EF8B4512621840E11C490410829830C41
S11331D043C440E343B9ACFAFFFF7DF83800EF1C69
S11331E00FF0787EF8DD424A28A484424A28A47C61
S11331F0582CAAFEFF7F1FBE0700F05A1CF0E07E89
S1133200F8FFE6586299435A2105AA792892EB956A
S11332105218418585556E798E3D20D403239973C8
S11332205049E694554E61C590564A71A414474AD4
S113323071A414474A71A414474A71A414470C6931
S1133240C514564C590595649039463D209A7BEB3C
S1133250C3FF0500F1541BF0D87EF8FF0E29E21DD0
S1133260315C73439C270AF9F066114A95C0D20376
S1133270049D63A572CA2AA6AC62CA2AA6AC62CA15
S11332802AA6AC62CA2AA6AC62CA2AA6AC62CA2A18
S1133290A6AC62CA2AA6AC62CA2AA6AC62CA2AA68C
S11332A0AC62CA2A1FFED700F2501CF0E07EF89FE1
S11332B02FB86092092699E4A187161F9E51D0B5B4
S11332C007C22AC7A492CC29AB9CC28A21AD94E23E
S11332D048298E94E248298E94E248298E94E24843
S11332E0298E18D28A29AC98B20A2AC9A472CC7A37
S11332F0203407D587FF0B00F34D1CF0E07EF8BFA8
S1133300532E85C9A5F094C787871474ED81B0CA7C
S113331031A92473CA2AA7B062482BA538528A233C
S1133320A538528A23A538528A23A538528A23867F
S1133330B4620A2BA6AC824A32A91CB31E08CD4142
S1133340F5E1FF0200F4561CF0E07EF8BF51AEA98F
S1133350A7A24904896490380A79E38C37D0F8F03D
S11333608282AE3D1056392695644E59E514560CAA
S113337069A514474A71A414474A71A414474A71B1
S1133380A414474A71C490564C61C59455504926BB
S11333909563D603A139A83EFC5F00F5511CF0E00B
S11333A07EF8FF2E29E31D315E7B431C3808F9F0BB
S11333B005055D7B20AC724C2AC99CB2CA29AC18A5
S11333C0D24A298E94E248298E94E248298E94E2C6
S11333D048298E94E28821AD98C28A29ABA0924CE8
S11333E02AC7AC074273507DF8BF0000F64F1CF0AB
S11333F0E07EF8FF6A21C515525C21C515523E7C5A
S11334005A41D71E08AB1C934A32A7AC720A2B86CA
S1133410B4528A23A538528A23A538528A23A53860
S1133420528A23A53862482BA6B062CA2AA82493DC
S1133430CA31EB81D01C541FFE2F00F73631F088BF
S11334407FF8FFFFFFFF97C907CD7CC0CC07CC7C7A
S1133450D0C8871F7BC0D1071C7DC07D78987CD0E5
S1133460CC07CC7CC0CC07CC7CD0C887FFFFFF4DF9
S113347000F85E1CF0E07EF8FF7F506472091E4D78
S113348005B21E08EB81B0CA31A9A0730A42A7A0F5
S1133490118A21888452CA21A294620821A59851D4
S11334A04829852A8510434A19E490520639A41400
S11334B04110312410540C4AC520549095CA31EA65
S11334C001A11E108A08B5081E79E8F0E18F03F9FE
S11334D0541BF0D87EF85F2C97607209A6F0C803DD
S11334E08F0F97CB2AA6AC62CA2AA6AC62CA2AA6B8
S11334F0AC62CA2AA6AC62CA2AA6AC62CA2AA6AC24
S113350062CA2AA6AC62CA2AA6AC62CA2AA6AC625D
S1133510CA2AA72473CC39E801825A284A89F2E1DD
S11335207F0D00FA511BF0D87EF85F2E9676892520
S113353077C2E3C3EDB28A29AB98B28A29AB98B2B9
S11335408A29AB98B28A29AB98B28A29AB98B28AF5
S113355029AB98B28A29AB98B28A29AB98B28A2946
S1133560AB98B2CA29C91C730E7A80A0168A52A2DB
S11335707CF85F03FB5C1BF0D87EF85F2DF5D0333D
S11335804920920412C9207094F1C6196E20F1E109
S11335906A59C594554C59C594554C59C594554CC4
S11335A059C594554C59C594554C59C594554C59C5
S11335B0C594554C59C594554C59C594554C59E529
S11335C094648E39073D40500B4529513EFCAF01B0
S11335D0FC541BF0D87EF8FF48298595525829855C
S11335E095523E7CACAC62CA2AA6AC62CA2AA6AC8E
S11335F062CA2AA6AC62CA2AA6AC62CA2AA6AC626D
S1133600CA2AA6AC62CA2AA6AC62CA2AA6AC62CAF4
S11336102AA6AC724A32C79C831E20A885A294288D
S11336201FFED700FD551AF0D07EF85F23B5D052A7
S1133630293B2CB1D3879BC515511C2185155258A4
S113364029651153543145115497CA21AA98B24A95
S113365029AB90C20A29AD0CE28A28AF84F24A2031
S1133660314524D13CD3D45249AD2A79829456466B
S113367071EBA99866F9B00000FE4D1CF0E07EF8ED
S1133680FF62B9F5BF9156092D3D50103AE69C549E
S11336908E59C598554C69C494564A69A594564A9E
S11336A069A594564A69A594564A69A594568A59B7
S11336B0C59855CC49E5A063CE030595D052196948
S11336C0955BFF3E6C01FF531AF0D07EF87FB390F8
S11336D0C20A29AC90C20A291FBE515C11C595517A
S11336E0582185955216314595535239251154A5C3
S11336F072882AA6AC52CA2A8534424A2BA3B43211
S1133700C82BA1BC1248CCE499679A5A5552AB4ACB
S11337106AA9C4925A2AF990070000BD010402055F
S113372005010406171EFFFA11FB11FD03A907A9E1
S11337302008C797F3F9FF00210EC817F499CBFCB2
S1133740BFC7C9F4CC002212CA17F539966C241BE2
S1133750DF8434214D9EFF182329D197F8F9BB8CBF
S11337605423D54825528D6EF020A7C966A41AA902
S113377026377890D34835D98C5423D54835797E6B
S1133780052433CD97F6B90D2707B3C140A4896842
S113379034118D26A7C90D12C1C12037180813830F
S11337A05C6497916832124D4632C968065783416A
S11337B0329C670D2536D597FAF90F06C1DC609661
S11337C0DB8874225150A4118A344991442A311E51
S11337D0483283B064B08D8894129132231286ECFF
S11337E04476B1C14E37C8F397002631D197F8F922
S11337F0A3417630888A9422A566B9D80EC42BD505
S113380042A4926C449B8948B510C906A9D94C3688
S1133810480D1283816CB0D9F33500270CC817F416
S113382099CB7C97E76F012813C817F43990A964E2
S1133830562B993F9BB993E9B1002912C817F45943
S1133840EB72323B99FF4A6616D3A3012A1ACF972B
S1133850F7F95526AAD026B4CBC15964924C641505
S1133860D24C9EFFAF002B24D817FCF9FFDB3C3071
S11338700FCC03F3C03C300F193CD023F2C03C30D2
S11338800FCC03F3C03C30CF7F062C0EC617F3F9E0
S1133890C3CD46A411E961002D0BC817F4F9A78321
S11338A03DCF012E0BC617F3F943913D21002F158F
S11338B0C997F4B9D4E97276C19C5DCE2E98B3CB86
S11338C0E999013027CD97F6F96A101C0C5222951C
S11338D08D4C23D3C834328D4C23D3C834328D4C11
S11338E0241A990D06B9419E87003111CD97F6F936
S11338F06C39080E840AADFFEF7908321BCD97F6B8
S1133900F96A901B0C5422D14AB3D24A97D3E54F9B
S1133910A50707795E01331FCD97F6F96A201B0CC2
S113392054362BADE5703BC86E6D649A954874307F
S1133930D00DF23C043421CD97F6F970BA1C04156D
S113394042854E229BC8342A914A64251A1C480693
S1133950074AAD7B9E01351FCD97F6F96630506955
S1133960BD18C40603954815D37A23D38C548341D8
S11339707090E721003627CD97F6F96AA05BAC6C0E
S1133980561AADC920A5180C3283CCD54427D14989
S113399074129D46A55A0C62033DEF003719CD976A
S11339A0F6F964709035D54AA75AE9542B9D6AA557
S11339B053E99EA7003826CD97F6F96AA05BAC8C34
S11339C05422954865A31BE8162B1B9D4427D14917
S11339D0741AD5669018C4067ADE013924CD97F698
S11339E0F96A201B1CA934B2894EA293C826ABCD18
S11339F04168B0D09A6E5422D1C14037D0F30E3A08
S1133A000DC617F33917D9938AEC09013B0FC61772
S1133A10F33917D9938A6C44F630003C24D817FC48
S1133A20F9FF6FF5A8411E32C863F6983D680FDBB5
S1133A30030779E01E38C80307799C9EFF21003DE7
S1133A4014D817FCF9FFFFABC1033DEF060FF4FCDC
S1133A50FF15003E24D817FCF9FFE77ADC200F1C81
S1133A60E4817BE41EB887ED31833C668F19E42141
S1133A70833C4ACFFF15003F19CB97F57935480DA4
S1133A80061AD124A63414EE0E95F6144A3DB70056
S1133A904049D797FBF91F0D06F1C18174101B042F
S1133AA0A73BF14A344868549AC14073A31969ACDE
S1133AB0441A2B91C64AA4B11269AC441A2B9166DC
S1133AC0A3D9A8349AC140251A44063A3D6C0FDBA9
S1133AD0E3068A3D6230C853004126D197F8F9B312
S1133AE0F97A20566817538D5433540955BAD56C56
S1133AF070201B3C528A949AA9442BD1EEF91842A7
S1133B002AD017F8F9E5E04E3450E94642915024A2
S1133B1014E946B2D5E04E3548E9464291502414A2
S1133B20E946A2816A70CFB700431ECF97F7F9D553
S1133B3060373848C936428D50A2F673B5502453C5
S1133B400D0E72833D1F01442AD197F8F98BC140B1
S1133B50A919E8CC842AA14A29528A9422A5482981
S1133B60528A9422A14AA892CD3403DD60A0E7478B
S1133B70004516CE17F7F97470A011FBF1E020246C
S1133B80F6E3C1819EA7004612CD97F6F9667090C0
S1133B90D1FAEDE048EBEF790C4729D197F8F9AB6E
S1133BA0C1727010D38D9422B91EA007E801B2C16E
S1133BB046AA916A9622A568A8DAC90607C2C14036
S1133BC0CF0F4827D017F8F9A5502414094542917E
S1133BD0502414094542D1E09150241409454291DE
S1133BE05024140945423D1F02490CC617F3C94528
S1133BF0FEFF3D21004A14CD97F6F954EBFF8D4C9E
S1133C0033520D06B2819E87004B27CF97F7F9896F
S1133C104E24539989749A9D64A8580EA48AA56267
S1133C2010940C353BD14CB5928D6423DD9E2F004E
S1133C304C11CC17F6792BF5FFD3C141647090E792
S1133C40184D3BD597FAF9E783E42034480E4283B4
S1133C50E420A4D029440A9D42A4582D441295443A
S1133C602451494492CD44A471A4716421722172F7
S1133C7021B25A89542B916AA5E70F014E32D1978C
S1133C80F8F98BA16890130D64A2814CA45889148F
S1133C902B91646423B2D9886C44A28948B510A9D5
S1133CA01622D940241B8874839070CFE7004F2AD2
S1133CB0D197F8F9AB81749018E4AC9422A5462B03
S1133CC0D14AB412AD442BD14A961BA548A9D2E9D6
S1133CD006894174A0E73700501DCE17F7F97430F8
S1133CE090690622D946A7D169741AD946351A5C57
S1133CF089FD3D1F01512CD217F9F9E38176901803
S1133D00047532A54A29D26AB41AAD46ABD16AB455
S1133D109AE548A952CA74C24162201D1CE8F911EF
S1133D20005229CF97F7F9C960A0D30C54B2914E31
S1133D30A413E9443A91EA60A053AD642A994A363F
S1133D40D28974229D48A7E713005326CF97F7F929
S1133D50D16038B8926D841AF578101E0C8483D320
S1133D60C178AD116A8422D9689018E8067BBE0236
S1133D70540FCF97F7F9C5E04150EDFFEFF90C551B
S1133D802AD197F8F90BA54829528A9422A54829E3
S1133D90528A9422A54829528A9422A54AB7D2E984
S1133DA00689417230C8F313005624CF97F7F9857A
S1133DB072A194EC363A914EB45A99A9649B9D46EB
S1133DC0A8112E960AA9423AD08EF77C06573ED601
S1133DD017FBF98F76B3856C105BC80631C96A107E
S1133DE0D3A814A28D482272225269241B95C6645A
S1133DF0251149640B9144A75029740AD5203888A9
S1133E000D92B34172B714EAF927005826D017F877
S1133E10F9E54E345BAD741BE164B9D00EC283F096
S1133E20203C902A9693A168A63A1B0927C33DDF3C
S1133E3001591CCF97F7F9C170B2D3CC462B9968BE
S1133E40B6114A940BE9203C56FB3DDF015A18CECB
S1133E5017F7F9747020D64E6FA7B7D307D107D1DF
S1133E60EDE03D4F015B0FC997F4B91AA474FEFF4E
S1133E70EF0661005C17C997F439D209833A61509F
S1133E80272CD409833A61A19E05005D0ECA17F55B
S1133E90B91E04FDFF3F1BA4015E28D797FBF9FF61
S1133EA08B3C6C8F4AE4410A3DA61E530FD1E811A6
S1133EB0A93C229507A8E4B9B44E9C0C27F3FC4B0B
S1133EC0005F0CCC17F6F9FF3F1EBC2703600CC53E
S1133ED097F209441A919E6F016121CD97F6F94F2B
S1133EE007B2416265A4D2AA0603D120A35969642A
S1133EF01AD56831500D227A5E016224CE17F7F983
S1133F0054EC93414C31188456A2D546A7D1697418
S1133F101A9D66B55989068A956490E73500631938
S1133F20CC17F6F9D703D56020124D6412A9671A8D
S1133F30D16630900DF43C6424CE17F7F98DD8B3D4
S1133F404144343808890699D546A7D169741A9D25
S1133F506635525D0C6483889EB700651ECD97F666
S1133F60F94F07B2C1406523D3C83483838CD64C40
S1133F70A4520D06B9819E77006613C997F4B91B44
S1133F808406229DD56010D2F9DFB306672ACE17C6
S1133F90F7F9DF0D14AAC1916AB3DAE8343A8D4E09
S1133FA0A3D3AC46AAD12031900D2262916AA49287
S1133FB00D06C1811E046821CE17F7F954EC934114
S1133FC06CA0588D4632914C2413C94432914C2430
S1133FD013C944323D6F01690DC597F2C9347A8C17
S1133FE0FFF724006A0FC797F3D9A9F45895FF1F68
S1133FF08DA4006B1DCC17F6792BF5D1463392AC0A
S11340001433856EA053E82432C94A3372B4E71AD4
S11340106C0CC617F3C945FEFF3D21006D27D597EB
S1134020FAF9FF73C92033500D2E0683D04168235B
S1134030B391D9C86C6436321B998DCC466623B3D0
S1134040E7EF006E1FCE17F7F95F2906B2C1D568F6
S11340502413C94432914C2413C94432914C24D3BF
S1134060F3166F20CD97F6F94F07BAC140A4D2AC2E
S1134070263A894EA293E824AB8D4A3518C8067AAD
S1134080DE017025CE17F7F95F4906B18162105A37
S113409089561B9D46A7D169749AD566251A2806A8
S11340A021C92026F61E097125CE17F7F9DF0D2246
S11340B0A2416220526D561B9D46A7D169749AD5C0
S11340C048351A2406B24144EC7B04007211C997A6
S11340D0F4F9956210196C663AFF9E3900731CCB93
S11340E097F5F90703D5602051499407BBC170A225
S11340F092A8348BD540CF25007413C997F479A9BD
S1134100B31A0C423AFF6E911AE49902751FCE1746
S1134110F7F95FC94432914C2413C94432914C24B9
S113412013C9445783B34144CF5B00761DCC17F6C3
S1134130F9A73A854CB2D2883622954625912D743A
S11341400ADD203848EA7902772DD397F9F9FFCDB3
S11341506A2551AD24224568B25168441A85462423
S1134160B11149340A9942A3900D420AD920355C11
S11341700D657B7E0D781DCD97F6F9EF56A2CD4ADD
S1134180235B0807CA83E44027596D54A28D6CCF82
S113419023007920CC17F6F9A73A854CB2D2883699
S11341A01B954625592D740ADD207929552EA57AAB
S11341B00C007A15CA17F5F98BC140A89BEDEC7673
S11341C0763BE160A0E7027B16CB97F5391EE476D7
S11341D04A3FDC1D0E9252A59F2A0761007C0CC841
S11341E017F4C973FDFFFF0D007D13CB97F5395C00
S11341F05EFAE5BB43A51FEA067904007E0FCC17DF
S1134200F6F97F3B900C26833D7F0DA008C797F3FA
S1134210F9FF00A10DC817F4F952A62790F9BF05BC
S1134220A227CE17F7F907E9CA816E3090691222E6
S11342308D42A4096A8212A12429C9A80691D560D5
S1134240201C08D3F5CC00A317CD97F6F96CA05B1E
S1134250AC8CB496834150EB5F0E0EF43C02A42365
S1134260CD97F6F93892CC24068AD020B152D58560
S113427072A15C281752A536AAC440914986F3FC62
S11342801AA51ECE17F7F952A89189642AD14A2497
S11342901A48062A8972A01CC406EFC47ECF07A65A
S11342A00DC817F439C8F5F794B9FE16A723CA1731
S11342B0F5B91E88061BA1E56E901B8816938D44E4
S11342C024D14C16A3816E101C3AC91CEC8100A8A1
S11342D00CC797F3196906193DFF18A936D397F946
S11342E0F95703F1203108EE6699C12495994C429F
S11342F091912493914632D248461AC9482319957C
S1134300A646330985069B5436A614AAC4033D7FEA
S113431001AA1BC997F4B91A680683882898194C0E
S113432036915424A41924A2837B7E03AB19CD9720
S1134330F6F93FD3C824328D6A2293E8263A8D4E8B
S113434022CCE8F906AC0ECE17F7F97F3278DD3DC2
S1134350FF1500AE3AD397F9F95703F1203108EE6F
S11343606691C12092CA6826A18C489209D9444218
S1134370835524A4114542A292904D8D4812CA88B7
S113438024A96C6C371C2406E1819EBF00AF0CC7C6
S113439097F3D90E0679FE3100B012C797F3996DE1
S11343A014924C24135168F6FC0500B121D817FC73
S11343B0F9FFDB3C300FCC03F390C1033D220FCC5B
S11343C003F3C03C30CFF3C1033DFF1CB214C997C3
S11343D0F4391B8406138D4EE66A3618E4F93B0063
S11343E0B315C997F4391B8406138D6C25DC492455
S11343F09B819E3F04B40BC597F2694C34793E0609
S1134400B635CD97F6F96A30480D22A9812434983F
S1134410840693D060921A485203496C104946921C
S113442091642419494692916424194946929164ED
S11344302419C9C301B70BC617F3792BB2E71500CA
S1134440B80DC797F3F91FC70631956230B90CC789
S113445097F3D98966FD9E4F01BA1BCA17F5B91E99
S1134460A4061B914415514554119146131AC807CB
S1134470033D7F01BB19CD97F6F93F9208253A8D8C
S11344804EA29BC824328D4C2293E8F90CBC2CD24A
S113449017F9F94B9D6C978C2963D19434950D854C
S11344A033E24C482A928612494D2499910443835D
S11344B0414A984BC694797E06BD2CD397F9F917D7
S11344C0C2DC4E998BC6A4296D2A1C1287D219C945
S11344D04029590C3376425D50271BC69431A56C94
S11344E030C8F35300BE32D397F9F907035D6A303D
S11344F048495549597490116B821A895032890E72
S1134500241AAD481B4A44358A684692D40C06B92D
S113451060654E99E7C700BF18CC17F6F90FA47A67
S113452022A9E570B73435930C320703D9400FC084
S11345302DD197F8717B801EA147E419CDD703B123
S113454042BB986AA49AA14AA8D2AD668303D9E073
S11345509152A4D44C255A8976CFC700C12CD19747
S1134560F8C1723D200FC8339AAF0762857631D502
S11345704835439550A55BCD0607B2C123A548A98C
S1134580994AB412ED9E8F01C22DD197F891F3414F
S11345905821CEE859CCD703B142BB986AA49AA15A
S11345A04AA8D2AD668303D9E09152A4D44C255ACB
S11345B08976CFC700C32AD197F8491752C59EA35D
S11345C0F97A20566817538D5433540955BAD56C6B
S11345D070201B3C528A949AA9442BD1EEF918C43A
S11345E02AD217F989355A8D9EBBF9203E102FC463
S11345F012B1642A928A862BA1ECE0D9E099522464
S11346001549275B8958CF8F00C52DD197F8D60A55
S113461071269C49EFD9CCD703B142AC986AA49ACD
S1134620E148A812CA648303D9E09152A4D44C256A
S11346305A8976CFC700C632D797FBF95F0D1E445F
S11346400779CC408F51E8210B3DC41E31D123346E
S11346507AC066702013C947F2C1F54A2D13CFC43E
S11346603AAD7070A0E71F01C724CF97F7F9D56062
S1134670373848C936428D50A2F673B55033530DBE
S11346800E72836D7C905E2B077B0C00C819CE17CD
S1134690F7316AEB3CD9E04023F6E3C14148ECC76B
S11346A083033D4F01C91ACE17F7715AB1564F36DD
S11346B038D088FD78701012FBF1E040CF5300CA67
S11346C01DCE17F74183E820291186F24483038D18
S11346D0D88F070721B11F0F0EF43C05CB19CE1755
S11346E0F7490C257A3683038DD88F070721B11F2C
S11346F00F0EF43C05CC0EC617D354567984C8FF6C
S1134700BF2704CD0FC6175335A2901E21F2FFEF29
S11347100901CE11C617132783486490898BFCFFC7
S11347207B4200CF0EC797D335838C1EA8F2FFEFD0
S113473019D02CD197F8F98BC140A919E86433A199
S11347404AA8528A9422A5643050899422A5482903
S113475012AA742BD94C33D00D067A7E04D136D1EB
S113476097F84917D2C19EF95034C8890632D1400E
S11347702652AC448A954832B211D96C443622D1BF
S113478044A45A88540B916C20920D44BA4148B801
S1134790E77300D231D197B8F6003D428FC823F4B5
S11347A04C06D2416290B3528A941AAD442BD14A3A
S11347B0B412AD442B596E9422A54AA71B2406D1EA
S11347C0819EDF00D32FD19738E7F6803C40CF6637
S11347D0201D2406392BA548A9D14AB412AD442B77
S11347E0D14AB492E5462952AA74BA4162101DE82E
S11347F0F90D00D430D197F8E66B85389315E51997
S11348000CA483C42067A51429355A8956A2956837
S1134810255A8956B2DC28454A954E37480CA203DE
S11348203DBF01D52BD197F8491752C59E9B817482
S11348309018E4AC9422A5462BD14AB412AD442B73
S1134840D14A961BA568B7BA1B9C0EF4FC06D62E5B
S1134850D197F849255A899E9381749018E4AC94B1
S113486022A5462BD14AB412AD442BD14A961BA59E
S113487048A9D2E906894174A0E73700D724D7971D
S1134880FBF9FF374AAD4EADD203347A88420FDAD2
S1134890A3F620851EA2D103546A9D56A9E77F0181
S11348A0D83CD197F8F9320FD80D16B24162209353
S11348B00D42BA4148A698C826661A896A23118D02
S11348C024229544B3922C561B854C34908906318E
S11348D0D94031882906BB3D20CF3B00D92ED19742
S11348E0B8F6003D428FC843F2D44A9152A4142929
S11348F0454A9152A41429454A9152A41429454386
S1134900956E7537B81C0CF2FC04DA2CD19738E795
S1134910F6803C404FAE1429454A9152A4142945CF
S11349204A9152A41429454A91523454E956778342
S1134930CBC120CF4F00DB2ED197F8E66B8538939F
S113494015E5699522A54829528A9422A548295239
S11349508A9422A54829528A862ADDEA6E7039187B
S1134960E4F90900DC2ED197F849255A899EB552FD
S1134970A41429454A9152A41429454A9152A414D5
S113498029454A9152A55BE97483C4203918E4F996
S11349900900DD20CF97F78162B5584F379CEC347E
S11349A0B3D14A269A6D8412E5423A088FD57ECF58
S11349B07700DE1BCE17F7F954EC7870A51AC936C8
S11349C03A8D4EA3D3A846832BB1F77C04DF2CCDBC
S11349D097F6F96A201B0C442B8D4CA3DA88469A6F
S11349E09546A6918946AA4144B7102A840A894863
S11349F021192424A2419E5700E025CD97F679275A
S1134A001687F55403D920B13252695583816890D1
S1134A10D1AC34328D6AB418A806113DAF00E1263A
S1134A20CD97F639966AA5DA3CDD403648AC8C540D
S1134A305AD560201A64342B8D4CA31A2D06AA4132
S1134A4044CF2B00E228CD97F639BD54E824BA9020
S1134A509E66201B2456462AAD6A30100D329A9564
S1134A6046A6518D1603D520A2E71500E324CD9761
S1134A70F6F96A211BEC990C6483C4CA5638500DAC
S1134A8006A29146A6516D54A3C5403588E8790520
S1134A90E425CD97F6F94823D3E8590C6483C4CAB6
S1134AA048A5550D06A24146B3D2C834AAD162A086
S1134AB01A44F4BC02E52ACD97F6192F15C24C30DE
S1134AC0135428F75403D920B132526955838168AD
S1134AD090D1AC34328D6AB418A8060A3DAF00E612
S1134AE030D417FAF9FFA34168A01A0C1483414883
S1134AF034086957529968F041669091AEA4B29512
S1134B00443508890683C860901A88067AFE06E749
S1134B101FCC17F6F9D703D56020124D6412A9678C
S1134B201AD16630900D84D941742A1BE801E82219
S1134B30CD97F639148BC3F65403D960A0B29169AA
S1134B40649AC141466B2652A90683DC40CF3B00E0
S1134B50E922CD97F639964E6DF37403D960A0B26D
S1134B609169649AC141466B2652A90683DC40CF01
S1134B703B00EA26CD97F639950E928AA04417CACF
S1134B80130D648381CA46A69169060719AD994835
S1134B90A51A0C72033DEF00EB23CD97F6F94823D9
S1134BA0D3E8590C748B4148A599497492C1814446
S1134BB06BA751A91683D840CF3B00EC0FC617F35F
S1134BC0C954567984C8FF3D2100ED0FC617F34937
S1134BD035467988C8FF3D2100EE11C617F3E90672
S1134BE0914142328A8BFCDF1302EF0FC797F3190E
S1134BF04914123D52E5FF9E01F028CD97F6F9467F
S1134C00241B0C07B9C5763718840647AAC94CA2D9
S1134C1093E8243A894E32D3A85483816CA0E71DCB
S1134C2000F123CE17F7F95A121CECD92806B2C1A9
S1134C30D5682413C94432914C2413C94432914C8D
S1134C4024D3F316F225CD97F639DC8AC5E93CD591
S1134C5040371888549AD54427D14974129D64B5B5
S1134C6051A90603D940CF3B00F324CD97F6399ED2
S1134C70DA66F56403DD6020526956139D4427D13A
S1134C80497492D546A51A0C64033DEF00F427CD70
S1134C9097F639BD540833398D9E66A01B0C442AFF
S1134CA0CD6AA293E8243A894EB2DAA85483816C7F
S1134CB0A0E71D00F524CD97F6F96A211BEC990CA9
S1134CC074838148A5594D74129D4427D149561BBC
S1134CD0956A30900DF4BC03F624CD97F6F9482379
S1134CE0D3E8590C74838148A5594D74129D442707
S1134CF0D149561B956A30900DF4BC03F719D817A7
S1134D00FCF9FF9FEB717A9C9EA3C1033DA91EA7EA
S1134D10C7E9F97F08F827CD97F6F98FB2AAC12021
S1134D20351888449B0389286223712351882403FE
S1134D30CD91689018841203959E1300F923CE1721
S1134D40F739578BD5EA3C99914C2413C9443291D5
S1134D504C2413C94432D1D562201B44F4BC05FA57
S1134D6024CE17F779A3156BC5793A994826928909
S1134D7064229948269289642299E86A31900D2226
S1134D807ADE02FB28CE17F779A11D440749893042
S1134D909427928964229948269289642299482604
S1134DA09289AE1603D920A2E72D00FC23CE17F773
S1134DB0F9582294E8D9C84432914C2413C9443296
S1134DC0914C2413C9445783B34144CF5B00FD2560
S1134DD0CC17F6792455DA13E81432C94A23DA6C6D
S1134DE0541A9564B5D0297483E4A554A6980D8407
S1134DF07B1000FE26CE17F7F954EC93416CA018F3
S1134E008456A2D546A7D169741A9D66B5598906F8
S1134E108A4148328889BD4702FF24CD97F6F94874
S1134E2023D3E8A975929946B55189362B8D6CA286
S1134E3053EC14C281727AAA954EF528000000BD85
S1134E4001040204050103050F14FFFC0BFD0BFD17
S1134E5002670510200745A33E9F02210B45A33E90
S1134E6038D45FE67100221047E33E9942A2904491
S1134E702411493DC700231D4B633F07915C241651
S1134E80110D06AA482C221A0C5491982416C945CF
S1134E90F28C00241F49233F4530360845129948B7
S1134EA02213490D6203594215E94491D00C6479E7
S1134EB00A0025224EC33FC7A3544493CA446299AF
S1134EC0482CA2082E22C3845924138B6452998837
S1134ED02AB4670D261B4B633FEB5D2696890D7242
S1134EE09B8C429229C964069990CD68A0D033273F
S1134EF00B46C33E8928D59E1B00280E46C33E4D53
S1134F002A244AF52B552100290D45A33E38542463
S1134F10EA1B4DA80E2A0F4A433F37919C6C30D3AD
S1134F200DF27C032B0E4FE33FBF8B371D9CC6DB7A
S1134F3073072C0A44833E63892413052D0A46C350
S1134F403ED7833C35002E0944833EEB4C1E022F92
S1134F500F46C33E51AA2855946A94CAE300301BF5
S1134F6048033FF12023C96424A14828128A8422DB
S1134F70A1484622090DF24400310D48033FB96AA5
S1134F80A4C8F5F74400321348033FF12023B1C904
S1134F90C554B298CA6CB0A701331648033FF12038
S1134FA09351886222614E971045329A419E08348B
S1134FB01648033F03D52A118A642499124D64309C
S1134FC088E5EA6900351548033FED4093ABD848BE
S1134FD024A15C49462209EDA900361B48033FF58C
S1134FE020A2518414B9C420A251A412A9442AA114
S1134FF0D10CF23400371148033FED6010338BC9F4
S11350006266317B2A00381848033FF120239184DB
S1135010223623492614094542119B419E08391A18
S113502048033FF140A251A412A984463248E462E5
S11350308A9042A219E489003A0C44833E51260F17
S1135040CAE421003B0C44833E51260F8A98440154
S11350503C124FE33FBF0D4BA7E23C600FD803F473
S1135060BC013D0E4FE33FFF66704F36B8E7370093
S11350703E134FE33FBFC903F4803D400FC82EA742
S11350807A9E023F1148033FF120A2D1C564EDEAA4
S11350900179320040274FE33FAF0642956146B2A3
S11350A08864224E8A3291A24CA42813A9914822E2
S11350B02619C94425D703067A1400411A4B633FC5
S11350C007C26122A79049521A9146341848549253
S11350D05C42A72707421C4A433FB3C128A4496541
S11350E052999066304A656291582425190CF2C48D
S11350F00043144A433FC38148235145925DAA3279
S113510021D1404F0C441B4A433FB3812AA4496533
S11351105292582416894552925426A419E8C9017A
S1135120451149233F8BC126D870B009361CEC09C0
S113513001460F48033FED60926B3798E4BA2704A9
S113514047194B633FF3414A249145A24583482EB6
S1135150928BC832AAD0609067481B4A433FB392EF
S113516058241689456291C140128BC422B1482C3F
S113517012CBD302490943633E22D27F0D4A0F4822
S1135180033F8B5C3F0945329A419E084B194923E2
S11351903F8B9024A3898812AAD92CA18A88329A99
S11351A09024A527034C0B47E33E59FFD9608F0693
S11351B04D254DA33F673AC96AB24A44122145249A
S11351C0A151446A224D24258A4C2493C844329B1D
S11351D048A89E21004E1F4A433F33556414194585
S11351E0129A48421389486A22358A482811094D7F
S11351F0527A5A004F1A4B633FEB814A632589491F
S113520072915C2417894954218D6AA06702501455
S113521049233F8BC12624494552919064B00976B5
S11352204F0D511C4C833F37039946A4D2C434B963
S11352304C2E93CBC4342A91463618E81901521ADD
S113524049233F8BC1262449455291906420AA09E1
S1135250494292542495A70353184A433FC34148F3
S11352609449499283DC60B88CC42222CD404F0D0E
S1135270540C4B633FDBC159B47FCF08551A4A43E2
S11352803FB3925824168945629158241689455291
S113529012516A90A70656184A433F2B59242511E8
S11352A049443522892A124BC80639A19E1C572726
S11352B04FE33F0F44AA486823096D2416995044CC
S11352C0910945220A912293480D32899828111395
S11352D0CD54798E0058184B633F5B5548A38AC858
S11352E014C1A170908BA834219B989E0159134A34
S11352F0433F33952495318AA814B961B27B720077
S11353005A134A433FBBC120A813EAEC767607033D
S11353103D2D005B0B46C33EC926D5FF6A075C0FD3
S113532046C33E45AA2C55966A96CA83005D0B4631
S1135330C33EC5AAFF9B21005E184FE33FDFC5D3E0
S11353408970221BC966A299642A980AA6F21C01D4
S11353505F0B48033FFF6230D02300600943637250
S113536044922705611548033F67838C4497194885
S113537034915024A359E46900621649233F8B6099
S11353808B41C6242449455291904453B1A70463E8
S11353901348033F67838C44128AE48A2236833C91
S11353A01100641849233FBB60CD2011D1484292BB
S11353B0542415094934A2459E0E651448033F67D9
S11353C0838C26128A0C26B950C466902702660E76
S11353D047E33EE128161A88627D4F01671B492383
S11353E03FE78344442309495291542424D1680655
S11353F0899C44A3198401681748033F6DAEC546D0
S11354002209454291502414094542791A00690A37
S113541043633E2218E9D7006A0B44833E2E9BE97E
S11354209FA8006B1447E33E5937919A4468940847
S113543025341149468F066C0943633E22D27F0D01
S11354406D194DA33F3F484C3692892454122A09C2
S113545095844A4225A17A86006E1648033F5789EF
S11354608D44128A8422A14828128A84F234006F5F
S11354701549233FE78390A648928AA422218926CE
S113548034C85302701949233FD78941C62424499B
S1135490455291904423490C32C17A040071184951
S11354A0233FE78344442309495291542424D16877
S11354B00689605300720C45A33EED20A109F51E38
S11354C008731348033F67834C46921BE476918C20
S11354D066902702740E46C33E652A3308A57AA552
S11354E08702751548033F57A14828128A8422A1D0
S11354F0482862B3C8D300761348033F4716A188EF
S11355004D2414090D52323D1500771C4C833F9FE6
S1135510692C3216914124A288D42422094D2232C6
S1135520DAA8427A5600781348033F579A12CD20DE
S113553025530D321249484F02791348033F471649
S1135540A1884D44A3080D5232B398187A1047E34A
S11355503EE3814A55A54AA9067A38007B0F47E302
S11355603EA548156B2592C93AB3007C0A46C33E52
S113557038D5FF4F007D0E47E33E99596746AA5838
S11355802B91087E0C48033FCF2783C89E3100A08F
S11355900745A33E9F02A10A45A33E713CD4EF00F8
S11355A0A21948033FC35C6890514C2A2245895490
S11355B02212596806A15C1E06A31349233F9B418E
S11355C048A209E606AA607783419E0EA4164A43C0
S11355D03FB39A84221549857A1549251499589E12
S11355E00B00A51449233F8B5444A329394AC436DC
S11355F083812AD89E14A60C46C33E4DAAF7905424
S11356000F01A71947E33EDD209289C4641B85245A
S11356101389480629992C25192401A80944833E95
S11356202A92670BA9244DA33F9703D960A09A2817
S113563032A38424918B24729144285221516812FC
S1135640834848951BE8D902AA1146C33EC9A464FD
S113565010692151E4067B6200AB1248033F0F221C
S1135660994846A1518822A9489E16AC0C4A433F4A
S11356705F0C06CA7A9E01AE244DA33F9703D960FE
S1135680A04A641219452621890C329112499B487B
S1135690449149687221BB819E2D00AF0944833E29
S11356A06A90670BB00D45A33E76928824227BB6A0
S11356B000B1114FE33FDFC54B07A7F17AD2C13DDB
S11356C03700B20D46C33EC9A4486334C83305B39A
S11356D01046C33EC5202109692499C89E2D00B4F3
S11356E00944833E4652CF12B62349233F93C164F3
S11356F090C80C1299412233488416B1442C114BA2
S1135700C412B1442C114BC4125900B70944833E4E
S113571071264F03B80A45A33E0F45891900B90BFA
S113572045A33E58920875CF02BA1247E33EDD46C0
S113573021C944321185663AD0B302BB1248033FF3
S1135740D70A512415094532918C424F0CBC1E4C8A
S1135750833F27A28A4C2E938B0423C14444179180
S1135760451229C920940AA9F2AC00BD1E4DA33FDD
S113577077AA502294CB0433C1483292D845AA4424
S1135780AA902AA4120DF20C01BE204C833F178369
S11357904C2EA2D2E414A24C22B688E822B24822AB
S11357A09618885221559E1500BF1248033F8779E9
S11357B0402EA632CB85220BCD200AC01D4B638F11
S11357C0349B27110E1339854C92D28834A2C140E0
S11357D0A292E4123A3D3900C11C4B639BB29E4431
S11357E0384CE41432494A23D2880603894A924B3E
S11357F0E8F4E400C21D4B63577218C91308878983
S11358009C42264969441AD16020514972099D9EDF
S11358101CC31E4B633F40114BE82984C3444E21F3
S113582093A434228D683090A824B9844E4F0EC4BA
S11358301D4B633F369227100E1332854C12CB88D2
S113584044A1C140A292E406393D3900C51D4B6311
S1135850D33011DC532495896022978965521AD17B
S11358606090514972099D9E1CC61E4EC33F2F066F
S1135870835822AA882A9292A464B0D104073B5187
S11358802E15530DF68C01C7174A433FC3814814A4
S11358905145925DAA3221D140A754C63600C8139F
S11358A049234BB21E38D8041B0E36C186833D21D2
S11358B000C9134923572E98070E36C186834DB06D
S11358C0E1604F08CA1449238F4E16C9E3069B6052
S11358D0C3C126D870B02704CB1248036B240F1E13
S11358E04C72ED06935CBBC19E06CC0C44838226AD
S11358F094CDF4DF4300CD0C44838A4292CDF4DF8F
S11359006300CE0C4363466290C845FAAF01CF0BE7
S11359104483622499E9BFC700D01C4B633FE381F1
S11359202C244A85529A586220CAC432294D2A141A
S1135930120DF46C00D1224A43B72296D02355911C
S1135940516414496822094D2422A989D42822A12A
S113595044243449E96901D21D4B638F349B2718D1
S1135960A8345692982417C9457291984415D2A820
S1135970067A2600D31D4B635B52992718A8345628
S113598092982417C9457291984415D2A8067A268C
S113599000D41E4B63577298C8C3072A8D952426DA
S11359A0C94572915C2426518534AA819E0900D58B
S11359B01E4B633F4098D0C3072A8D952417C945D1
S11359C072915C2426518516AB819E0900D61D4B2D
S11359D0633F2092A71CA8345692982417C9457295
S11359E091984415D2A8067A2600D7134FE33F7F37
S11359F0944A66B289744536934CE57904D8204BB1
S1135A00633FC3D060A4319A8414918CA4A624A2C9
S1135A10892434925148A3190C42796200D91D4A51
S1135A20434F34A987C622B1482C128BC422B148F3
S1135A302C128B882413D5204F0DDA1D4A4397B0BE
S1135A401E1B8BC422B1482C128BC422B1482C22B9
S1135A50924C54833C3500DB1E4A43935017C923B0
S1135A6063915824168945629158241689454492B5
S1135A70896A90A706DC1D4A4377244F148BC422FD
S1135A80B1482C128BC422B1482C92928852833C88
S1135A903500DD144A439BB01EAA92A432461195E8
S1135AA022374C764F0EDE1649233F8B6070B009C7
S1135AB0495291542424196C82F5D400DF1B480305
S1135AC03FF120239184221949512414998414A963
S1135AD044429288EC6900E01748033F5530971E12
S1135AE06424BACC40A289842219CD224F03E11840
S1135AF048033F5A1693C50719892E33906822A18B
S1135B004846B3C8D300E21848033F954528121EFF
S1135B106424BACC40A289842219CD224F03E3170E
S1135B2048033FF1208F1A6424BACC40A28984220E
S1135B3019CD224F03E41748033F71248F1A6424BC
S1135B40BACC40A289842219CD224F03E51A480316
S1135B503F5815094552EA414693CB0C249A4828EC
S1135B6092D12CF23400E61C4DA33F3F182806992D
S1135B708A4C2E24191C2834B98C4821494434F702
S1135B802C01E71548033F67838C44128AE48A2278
S1135B903683944E97D200E81748033F36980BA6F5
S1135BA007194D2414194C72A188CD204F04E9170C
S1135BB048033F3C968BC507194D2414194C72A118
S1135BC088CD204F04EA1848033F954528121E64E7
S1135BD03491506430C9852236833C1100EB174858
S1135BE0033F71248F1A642492506430C98522368D
S1135BF0833C1100EC0B43637226928AF46B00ED34
S1135C000A43637AA22CD2AF01EE0E46C33E7493CC
S1135C10886492A97E0F06EF0C44833E2A92CCF44A
S1135C207B0C00F01949233F13456A95490D34262E
S1135C3021492A928A84249AD0204F09F1184803D2
S1135C403FF1200F4A6C249250241409454291508C
S1135C502494A701F21949233F5C980CE601839030
S1135C60A648928AA42221892634C85302F31849EB
S1135C70233F894C578F188434459254241509497D
S1135C8034A1419E12F41949233FE52C91CAA4077B
S1135C90214D912415494542124D6890A704F518E9
S1135CA049233F93411E3808698A24A9482A12923D
S1135CB06842833C2500F61749233F937AE020A4E9
S1135CC02992A422A94848A2090DF29400F7104F82
S1135CD0E33F7F17CF4307F7D0789E7700F8164944
S1135CE0233FA79981465333E9425211B1C90C3479
