:100000000C94560E0C94770E0C94770E0C94770E7D
:100010000C94770E0C94770E0C94770E0C94770E4C
:100020000C94770E0C94770E0C94770E0C94770E3C
:100030000C94770E0C94770E0C94770E0C94770E2C
:100040000C94770E0C94770E0C94770E0C94770E1C
:100050000C94770E0C94770E0C94770E0C94770E0C
:100060000C94770E0C94770E0C94770E0C94770EFC
:100070000C94770E0C94770E0C94770E0C94770EEC
:100080000C94770E0C94770E0C941A1B0C94770E2C
:100090000C94770E0C94770E0C94770E0C94770ECC
:1000A0000C94770E0C94770E0C94770E0C94770EBC
:1000B0000C94770E0C94770E0C94770E0C94AB196D
:1000C0000C94770E0C94770E0C94770E0C94770E9C
:1000D0000C94770E0C94770E0C94770E0C94770E8C
:1000E0000C94770E0C94770E0C94770E0C94770E7C
:1000F0000C94770E0C94770E0C94770E0C94770E6C
:100100000C94770E0C94770E0C94911A0C94770E35
:100110000C94770E0C94770E0C94770E0C94770E4B
:100120000C94770E0C94770E0C94770E0C94770E3B
:100130000C94770E0C94770E0C94770E0C94770E2B
:100140000C94770E0C94770E0C94770E0C94770E1B
:100150000C94770E0C94770E0C94770E0C94770E0B
:100160000C94770E0C94770E0C94770E0C94770EFB
:100170000C94770E0C94770E0C94770E0C94770EEB
:100180000C94770E0C94770E0C94770E0C94770EDB
:100190000C94770E0C94770E0C94770E0C94770ECB
:1001A0000C94770E0C94770E0C94770E0C94770EBB
:1001B0000C94770E0C94770E0C94770E0C94770EAB
:1001C0000C94770E0C94770E0C94770E0C94770E9B
:1001D0000C94770E0C94770E0C94770E0C94770E8B
:1001E0000C94770E0C94770E0C94770E0C94770E7B
:1001F0000C94770E0C94770E0C94770E37123712FE
:100200003712F612F612611273128A129912A8129C
:10021000C312F612F612F612DE12D71CF01CD41C12
:10022000041D0E1D181D221DD01CCC1CC81CC41C76
:100230000C948A120C9499120C94DE120C94CC1C1F
:100240000C940B190C94F01C0C94C81C0C94221DDB
:100250000C9461120C94D71C0C94A8120C94731279
:100260000C94041D0C94CF140C94B7150C941F1C03
:100270000C9447150C94C3120C94B11C0C943712B7
:100280000C94D41C0C94181D0C9422130C940E1D69
:100290000C94C41C0C94F6120C94D01CF410101086
:1002A00028F500F4113680113680102AA00000A035
:1002B000FF00A00000A0FF00102BB00000B0FF0066
:1002C00062009F102C7000F4113640113640102A45
:1002D000A00000A0FF0062007F102BB80100B0FF5B
:1002E0000062009F102C7000F4113600102AA0004C
:1002F00000A0FF00A00000A0FF00102BB00000B085
:10030000FF0062009F102C7000F4113600102AA02C
:100310000000A0FF0062007F102BB00000B0FF00C3
:1003200062009F102C7000F4113600102AA000000B
:10033000A0FF0062007F102BB00000B0FF00620041
:100340009F102C7000FDF1F58005F08005F18032E2
:10035000F41011800A10131020113A0610291136DA
:1003600000142A0000007F142B0000009F102CF5C1
:1003700000BF01040305050104061D1DFDFB12FB62
:1003800012FD039C086B2009A79FF3F1FF100021C9
:1003900015A79FF391CF94B419DAABB078A09992D6
:1003A0009A797400220EA81FF43112D13F8989C7AF
:1003B000BF01232CAE1FF7F15C445044504450441D
:1003C0005044EA80E6804A44504450445044EA8015
:1003D000E6804A4450445044504450441E0F243553
:1003E000AE1FF771121D7B351123241242321242C7
:1003F0003212C22246C6F020EE40EE20F02EA24677
:10040000248445CC0845CC08458C9048C8D46974F0
:100410007A5400253EB59FFAF1A754731422127244
:100420003323723441724331823341823331A22209
:1004300041B243F24032B42214A2223391223491C9
:1004400022438132339132338152229162F3F81187
:10045000002632B61FFBF1AFEA0146A687A487A4A7
:1004600087A449C4EF21EA21CC47686C666A86D824
:10047000483109A33A232B8A21AB89293A10BBA919
:10048000C70F01270BA61FF3110AE93D3E072815E8
:10049000A81FF4B10C9352262526B59FA913935398
:1004A000170F022916A81FF4318AD34C4E4C6C6AE0
:1004B0005F89498949298B87032A1BAB9FF5713ACC
:1004C000382512223211315456341131221222357C
:1004D000388F7F0C2B12AE1FF7F19F0AEBEEA0E4D2
:1004E000A04E58F7F8002C0EA79FF3F1EF664A6A6A
:1004F00088A432062D0CA81FF4F19726EEF10C000B
:100500002E0DA79FF3F1EF664A6AE6D1012F15A9D8
:100510009FF47120A74C4E999C32396572CAE4D47D
:1005200063063027AE1FF7F19C70646A681B2212C5
:10053000221222122212221222122212221222121B
:10054000229AA1AD4606E9F1003111AE1FF7F19CE8
:10055000EE94FF5F9A1DCCE318003221AE1FF7F135
:10056000BA4E866888861F09918E926E2A152516C6
:1005700034257340734073408F63003323AE1FF7FD
:10058000F1BC4E8668110D1F098D0E520F0F499157
:100590001091109110914C0D0991D9E31C00342257
:1005A000AE1FF7F18DEC2865433B09BA1032112AD2
:1005B000192A192221A283928342528607F1B80593
:1005C0003522AE1FF7F1F680E660E8402A3A8BBA92
:1005D0009929A9595236522444244424444342635D
:1005E000F6783627AE1FF7F1BC6E466A86688647F6
:1005F00042A414542534443344244424442444243D
:10060000443443432464F63807371EAE1FF7F1F431
:10061000A0E4A0E480464E264E286C74767476944E
:1006200025296FE5F104003825AE1FF7F19C7064B1
:100630006A688F68864AC40EED0EA2266C864AA6AA
:1006400048C646C646C68486E4EC710E3926AE1FFF
:10065000F7F1DA8C84680D110911091109110911DA
:10066000CD100D4915052991100D374334533273C0
:10067000F5783A12A79FF3F176A6A4661EC94C49F5
:10068000CD3C3A003B13A79FF3F176A6A4661EC9A2
:100690004C490D9154C6003C11AE1FF7F13F102597
:1006A000E429318FE5F114003D14AE1FF7F1FFE4AA
:1006B000A0E4A01EC141C9413DFE0E003E10AE1F88
:1006C000F7F15F09F329214FE5F115003F1BAD9FBD
:1006D000F6F1CC4C86131A1A214ACA2D4565E5D18C
:1006E0004D1656CEE31600403BB41FFAF187A754CF
:1006F00092AA8485548CC8C84CD08888CCCC48C871
:10070000AC9110199A91109919921099190A11998E
:1007100099111119211112A1B092071A8D5B79203C
:100720008F1F412EB39FF9F137F220F210F400E44D
:1007300011D411C422B431B431A44294519407832A
:10074000627471747164824483244707F1F80A006B
:10075000422CB39FF9F1D30343A232AA2AAA2AAAB0
:100760002AAA2A66447407845464ACC88AC88AC812
:100770008AC88AC88AA86A0EEEF125004326B39F6C
:10078000F9F1172762444584439432A432B421B569
:1007900021E5BD07A08DA10DA28CA28CA312BDC71F
:1007A000A7004428B41FFAF11707A5448464BCA32A
:1007B000A2A3A22BA22BA22BA22BA22BA22BA2A3E1
:1007C000A2A322E311D9413D7E02452EB21FF9F1C9
:1007D000A3838328EEA408A308A38862A2882269C1
:1007E000240F2469248922892209A308A308A3E8E5
:1007F000A4D81C1CC4E313004628B19FF8F1F5C12E
:10080000411015119D1061106110514C1051208D37
:10081000E081208D2051205120356F0FE2F10D0035
:10082000472EB41FFAF1772772445584539442A49B
:1008300042B431B531F500F500F5007526854484E4
:100840004484547454748C24246FE2F1310048338E
:10085000B59FFAF177073107417464746474647466
:1008600064746474647464070761746474647464A5
:1008700074647464746474647444073107F1F80533
:10088000004910AA1FF571711044C6FF1F1DC463F3
:10089000064A19B01FF8F1F1412831FF9514118F64
:1008A000A688C4C684E8EEF118004B30B59FFAF173
:1008B0007707415684727482649254A244B234C25F
:1008C00024C314B507A415A53495448554755475EF
:1008D00064657435074107F1F8014C1AB19FF8F1CE
:1008E000F5412C35FF8741844184417442542407EB
:1008F00007F1780B4D47B81FFCF14F2D8F28CBEA3D
:10090000CCEA22C822E622C822A824C842A642C8AD
:10091000428842C8426844C8626662C8624862C887
:10092000622864C8822682C8828AC8A2A6C8A2A6F3
:10093000A8A6A4888A820EE2F117004E34B61FFBE7
:10094000F1D776478573858176816781115681213C
:10095000468131458141358151258151168161871B
:10096000718681859184A173A35297F1F825004F78
:100970002CB59FFAF1D7C7348474647454944494AA
:10098000349525952595259525952595359444945B
:10099000547464748434C4F7F81D005022B21FF9F3
:1009A000F1A38333AA223222B21AB21AB21AB21AAD
:1009B0003222AAA2033A727E7C208F0F01513BB5EE
:1009C0009FFAF1D7C7348474647454944494349572
:1009D00025952595259525952515353526234445B9
:1009E000225444226354128334C407F230F3302477
:1009F000F100F510F52033005231B59FFAF1770779
:100A0000A64485547554755475547554844494079C
:100A1000C234A444944494448554845425416424A9
:100A20004164360742F4F80D00532BB01FF8F1ADC6
:100A300049D41091A0CCA0CC640C61CCE5C1DC0100
:100A4000D901DDC1E4492449E888E488A40CD550E3
:100A5000C83D9E025421B21FF9F1A3830391199A54
:100A60001121229128AA9028AA9028AA4072FEC794
:100A700007F1F80A00552FB59FFAF177074147842F
:100A8000639471947194719471947194719471944C
:100A90007194719471947194718491749136C207B8
:100AA000F1F81D00562DB39FF9F1CB83A013C2219D
:100AB0004231BA38BA383241AA48AA4822519A5823
:100AC0009A5812618A688A707A007A087910797C5B
:100AD0000E5742BA1FFDF19F1D441C849C50910D7E
:100AE0005191895151C55151C5511109D2D844D2A2
:100AF00044D044D2449088528850C452C450C45206
:100B0000C4181751535153918FC903C8C903C8C999
:100B1000E3DF00582DB41FFAF107074236856265FE
:100B200072469235B215D2E6F510F510E5D612B53B
:100B300032A551855275725592255607F2F8140068
:100B40005922B21FF9F19B8320134229BA3032395E
:100B5000AA4022499A5012598A606B727E7C108F8B
:100B6000AF005A24B19FF8F1F9C1CD588D58511CEE
:100B7000555831E362C6C58CEB8208630845EA46E6
:100B80000E0EE2F116005B0EA81FF4313299DAFF67
:100B90007F650F025C1BAC1FF6712D3A393A393A6A
:100BA000393A393A393A393A393A392A8F0B005DAC
:100BB0000EA81FF431B2DAFFFFC41E04005E19AFA5
:100BC0009FF7F199B4302DA988A488A0909C9098A3
:100BD0002A3179FCBF015F0DAC1FF6F1FF7F7CF07D
:100BE000601800600EA79FF3510F4D4D89C9E3EFC8
:100BF00000611FAF9FF7F17F71104643C4488AB46C
:100C00006E828886110D110D114DC989CD3C9E0053
:100C10006221B19FF8F1B135BFA8B3992A62364479
:100C20004643464346434643364445543415728F43
:100C30000F631CAE1FF7F1BF3B081A2221221913C4
:100C400021E5962E842E8648EA201ED7006424B122
:100C50009FF8F12B6BBEABA09A31222A1AA321A3D5
:100C600021A321A321231A2322AA9AB1ABB0C75BE7
:100C700000651DAF9FF7F17F643734C4666C848CC8
:100C8000E2E08296982E862E8848EE1E8F00661827
:100C9000AC1FF6F1C4688466848D0C21D9811421BF
:100CA000FFD9413C8E006727AF9FF7F1BF9D3A986F
:100CB0002121624344434443C484EC4E78F860EC01
:100CC00080E8A0466E4452644EE86006006815B2A3
:100CD0001FF9F11B737E5247715653C5FFBF798FC1
:100CE0002F006913A99FF43116A3229387B3E27FE3
:100CF00073108F05006A15AB9FF5712B4847280FBD
:100D00006DC7FF372243225364006B24B19FF8F173
:100D1000B1353F39221A2392A31124913C883C100B
:100D200024A1A32123A262721071108FA7006C0E60
:100D3000A99FF4B1B4E2FFDF1CC463016D28B99F21
:100D4000FCF1FF7F60424447616256625245C48AAB
:100D50008815112B225644AC885811B12262736257
:100D6000728F3F036E14B21FF9F1FF99491DC559E7
:100D70004D15FFFFE63DBE006F1EAF9FF7F17F648C
:100D80003734C4666C848C828C828C828C646C86D2
:100D900088689D3D5E017024B19FF8F1FFD2A2CE1C
:100DA000668A11D910190D190D190D190DD9501187
:100DB00091CD14451D35B70791007124B01FF8F18E
:100DC000FFA228886442868A668C848C848C848CFA
:100DD000848C668C86A868C6AC8298A707017216B8
:100DE000AC1FF6F12F4D66284A2A48686408F9D9E5
:100DF000413C8E00731FAB9FF5F1E7153132235252
:100E000022532156073207521661136212432211F0
:100E1000F658037417AA1FF5F12050DD18D1810C84
:100E2000197F13421363458F1D007515B21FF9F129
:100E3000FFD98915FFFFAAA6EC82AEC41E5F00761B
:100E40001FB19FF8F1FFF220A6862E8C4A8C2A90C3
:100E500046902694429422B8987C5C1EDF00772F3F
:100E6000B81FFCF1FFBF390831A9A1A28A6215465B
:100E7000632346134113471341134821422148116C
:100E800043115A544A453C362C278FBF037821B270
:100E90001FF9F1FFD9414C51955C8D6485AC353D0E
:100EA00000B5AD44A54C9D5451CD413CBE007924C4
:100EB000B19FF8F1FFF2C6864C8C2A8E489026929C
:100EC000449422D6989A7C5C1E4052289244F29612
:100ED00018007A1FAC1FF6F12F0F288628842A826B
:100EE0004A62EAD8D58414451449104D1CD0E30257
:100EF000007B13A81FF4B11B92DAAFD4894DED33F8
:100F0000B97910007C0DAF9FF7F1D9F0FEFF3D9E3F
:100F1000017D14A81FF4319A139BDA67725252FBB9
:100F200095D03C14007E15AF9FF7F1FF9BA9289345
:100F300099839A11ABA879FC2300A009A79FF3F12C
:100F4000FF1000A114A79FF3F168A6A4661E282C29
:100F50006A686F4ADA8C00A224AE1FF7F15F0407BB
:100F60009ACD30A999899021892389A308A488243E
:100F70008B210BA2918AB08AC71D00A325AF9FF7D2
:100F8000F1592189DC081509158D182DCB83415A9B
:100F9000C6AB42AC24440E26440E6466EAF1060059
:100FA000A423AE1FF7F1CF4448440E6A0E86D68CB8
:100FB0008D8C8D8C8D8CCD0C0D1DCC1C948890C887
:100FC000E34B00A52BB39FF9F1CB0399933AA93AD0
:100FD000B12AB92AC11AC91AD10AD983C8835A7A3F
:100FE00000DA835A7A007A0072DB83797C0AA60FD2
:100FF000AE1FF7F1C1ECBEC77076BFC703A729AD1E
:101000009FF6F1AE2E664A664A468CB4F02AA64692
:101010008A646A844AA646C822AE74564C286A2856
:101020006A26AE1E3900A810AC1FF6712E2443C2EA
:101030008D903CFE7F05A936B59FFAF1D7C707848E
:101040007464B2524236422233BA0A12111915118F
:10105000191511191511191591998A514213232443
:101060005424252B464778407C8FDF01AA16AA1FFF
:10107000F5714225322864A3C9D0C43CDC413CFE52
:101080001600AB17AD9FF6F17F363234323432346E
:10109000323632363236328F1FAC10AD9FF6F17FCA
:1010A00073407240AB7BFC1A00AD0CA81FF4F197A3
:1010B00026EEF10C00AE38B59FFAF1D7C70784745D
:1010C00064B25222476A74242324222423242264F3
:1010D00025222421262224222522242225A323116D
:1010E00092112959313AC203E27BFC0E00AF0EAADD
:1010F0001FF5717B1072108FFF6700B014A99FF469
:10110000B12512512421242124A2881EFF1800B1E8
:1011100017AE1FF7F1BF14567750725027AC1EEC74
:10112000A0E4A01E4F01B214A81FF4312A11999017
:101130009190919AD24DC47B7C07B318A81FF431CB
:101140002A119990119312221B9390911019A9C7FB
:101150008700B40DA79FF3510ACD0CA9C73F01B575
:101160001EB21FF9F1FFD9CD0D15FF7F5553751034
:1011700041154262230F210F404E0F200EB634B2AC
:101180001FF9F1BB039B8390A98390A10391A10355
:1011900091A10391A98390A983903993D191D19181
:1011A000D191D191D191D191D191D191C1837A7CB9
:1011B00001B70BA79FF3F193A1ED710CB80DA79F99
:1011C000F3F13F888A5A254202B90EA81FF4B112E2
:1011D00022D31FD9E34300BA17AB9FF5713A2623F8
:1011E000B36466646646D93CF0813CFE2500BB18BA
:1011F000AD9FF6F17F333236323632363234323406
:101200003234328FDF00BC34B59FFAF197CA28051B
:1012100055CA89CA898AC94A094BC9C809C9CCC9EA
:10122000084D59C8D0CA48880A8588CA8848CA283B
:10123000143A10939493A4C76F00BD33B59FFAF18D
:1012400097CA280555CA89CA898AC94A094B499447
:101250000989844CC988C8C85888C848CA0DAA9446
:1012600093949394930913BB92BBC74F00BE3AB5B6
:101270009FFAF17785522273523262B252B2629271
:1012800063C242E2328A64446486442684A64A6485
:10129000226465244465444465442465140A1D8819
:1012A00049CA49D2E33700BF19AD9FF6F1CF270BEA
:1012B0002BE7D1C98A4A6EC94886090D1B311B002C
:1012C000C036B39FB9E441E641E641E661E491C925
:1012D00083C843D00390475047108BD0C6D0C690E8
:1012E0000A5146511E0C8AD1C5D1C59109120D92E1
:1012F0001C1DC4E32B00C136B39FB9E521E601E60E
:1013000001E421E491C983C843D0039047504710BA
:101310008BD0C6D0C6900A5146511E0C8AD1C5D179
:10132000C59109120D921C1DC4E32B00C235B39F59
:10133000F9A1E521C8458485E4D1C883C843D00319
:1013400090475047108BD0C6D0C6900A5146511EC8
:101350000C8AD1C5D1C59109120D921C1DC4E32B75
:1013600000C333B39FF9B19889BD8D9947240F22EB
:101370000F410F401E411D412C421B431B432A4479
:10138000194579302846174717472648344872745C
:10139000108FAF00C434B39FF9414766476647E6F4
:1013A000B193079187A007208FA08E2016A18DA151
:1013B0008D2115A28CA23C1814A38BA38B2313247C
:1013C0001A24393A88C75700C535B39F19C945A4AF
:1013D00083A245C4E951C983C843D003904750470D
:1013E000108BD0C6D0C6900A5146511E0C8AD1C56A
:1013F000D1C59109120D921C1DC4E32B00C642BA3F
:101400001FFDF15F1F1C904A908D4AD0498A1046FB
:101410008A1006CA10C504CA10C50AD1C80A1D8898
:101420004AD1881E10458A11458A1106C91106C97C
:1014300011C608D2890C924D181D1CC4E36F01C758
:101440002CB39FF9F1172762444584439432A432A8
:10145000B421B521E5BD07A08DA10DA28CA28CA35E
:10146000123D8F0799079907112704C836B21FB993
:10147000E421E621E641E441E4610F0EA2B89322A3
:101480008C228C228A89228AA4913C90A491248A5D
:10149000248A248C228C228CA293627370108F4F2A
:1014A00000C934B21F99E501C6C7E501E4810F0EFA
:1014B000A2B893228C228C228A89228AA4913C9001
:1014C000A491248A248A248C228C228CA293627375
:1014D00070108F4F00CA35B21FF961E501A845644D
:1014E00085E4210F0EA2B893228C228C228A8922B5
:1014F0008AA4913C90A491248A248A248C228C2250
:101500008CA293627370108F4F00CB34B21FF9011D
:101510004746474647E6111F1C44712745184518A2
:101520004514134514492379204923491449144982
:1015300018451845184527C5E6E0201E9F00CC1227
:10154000AA1F3504572A3F0822E3FF8F0EE231031A
:10155000CD15AA1FF5E4C6C6E4E4210E82C8F8FF43
:10156000A38378CC00CE15AA1FD5E5A84464848453
:101570000F82C8F8FFA38378CC00CF13AA1F75474A
:10158000F61EEE20888CFF3F3A88C70C00D029B4A5
:101590001FFAF11707A5448464BCA3A2A3A22BA23F
:1015A0002B39102AA22BA22BA22BA2A3A2A322E3A7
:1015B00011D9413D7E02D139B61FFB319C093F8FC5
:1015C00099476177543857186817781618611518B5
:1015D00062141853141854131855121865111876FC
:1015E000186718581849183A372A75198F5F02D2A8
:1015F00034B59FDAE481E681E6A1E4A1E4D11DD30C
:1016000010D291D151511251D254965496549654AD
:1016100096549654D650125152D191D111D210DF16
:10162000E37700D333B59FFAD1C8C3CC83C8C3C80E
:10163000233CA621A423A3A3A224A2A4A92CA92CC1
:10164000A92CA92CA92CA9ACA124A2A4A223A32330
:10165000A421BEC7EF00D434B59FFA51C8C3D0430C
:1016600088880BC9233AA621A423A3A3A224A2A459
:10167000A92CA92CA92CA92CA92CA9ACA124A2A4E1
:10168000A223A323A421BEC7EF00D531B59FFA3111
:101690009B89BE8E9947754C434847464745494408
:1016A000495359525952595259525952594349441E
:1016B000494547464748437C8FDF01D632B59FFAFC
:1016C000816786678667E6313DA621A423A3A3A28E
:1016D00024A2A4A92CA92CA92CA92CA92CA9ACA181
:1016E00024A2A4A223A323A421BEC7EF00D71EAE29
:1016F0001FF7F15F098A8CCD0C4D8DCC599252DACF
:101700008D4C0DCD8C8D08CAE32900D834B59FFAD5
:10171000F1D74762341452746474547446641234BA
:1017200055228D644A6A844A4AA44A2AC44AEE6A07
:101730000A892889EA88EC68645885DDE37700D94E
:1017400037B59FFAE481E681E6A1E4A1E4111C0427
:101750001D118E51C651C651C651C651C651C651F2
:10176000C651C651C651C651C651C65106D245DAF8
:10177000CC1EC4E37700DA37B59FDAE561E641E6CF
:1017800041E461E4511C041D118E51C651C651C67D
:1017900051C651C651C651C651C651C651C651C691
:1017A00051C65106D245DACC1EC4E37700DB37B50B
:1017B0009FFA51C8C3D04388880BC9431F041D1129
:1017C0008E51C651C651C651C651C651C651C65199
:1017D000C651C651C651C651C65106D245DACC1EB5
:1017E000C4E37700DC35B59FFA816786678667E6D4
:1017F000313A083A221CA38CA38CA38CA38CA38C13
:10180000A38CA38CA38CA38CA38CA38CA38CA30CE0
:10181000A48BB4993D88C7EF00DD27B21FB9E5015D
:10182000C6C7E501E4410F824C08A5C8C4C8E488D6
:10183000048924494449648DADC9F9F1413CBE0293
:10184000DE23B21FF9F1A3035972E6077444555C15
:10185000155115511551155131AA3A1824677C209C
:101860008F0F01DF28B01FF8F1AD2109D9103F9A81
:10187000A219A3A02362454345434543454345433D
:1018800045433544114262518F9700E024AF9FF7E2
:10189000F191F46A7179B883301A224652A4751313
:1018A00044348C68886888684A4E6CE6F10400E12C
:1018B00024AF9FF7F19DF0ECB07AD083301A224626
:1018C00052A4751344348C68886888684A4E6CE664
:1018D000F10400E226AF9FF7F159F46CA58C9C94BB
:1018E0003CD441180D112329D2BA09221A46344496
:1018F000344434252736F37802E325AF9FF7F1A36C
:1019000099B8BB987974076134448CA448EB268855
:101910006818D110D110D1949CD8CCE30900E426EA
:10192000AF9FF7F19399B199B19979540761344414
:101930008CA448EB26886818D110D110D1949CD87B
:10194000CCE30900E527AF9FF7F1D5AC84684CA83C
:1019500084EC3CE041180D112329D2BA09221A4621
:101960003444344434252736F37802E62AB79FFB03
:10197000F1FF5F9E9891182D2AA219229B2CA39A01
:101980003838A1A125A225AA0B21AA0B2991201242
:10199000B2BAC7CF01E71FAE1FF7F1BF3B081A224B
:1019A0002122191321E5962E842E8648EA203278CA
:1019B000B1241900E821AF9FF7F191F46A717950D1
:1019C000BBA12136632364140717B4C47431744176
:1019D0004472F77804E921AF9FF7F1A5F0EC5A794A
:1019E00060BBA12136632364140717B4C474317437
:1019F000414472F77804EA24AF9FF7F159F46CA5DB
:101A00008C9C943CA0DDD0109BB111328A830B5A80
:101A100062BA18BA2022B97B3C02EB23AF9FF7F1E0
:101A20009B65336333F3E8EC8686D88C8D90511C2C
:101A30005CD012D3C5D00511C9DDE31100EC12A9A9
:101A40009FF431955B27286CC5FFE6201E0B00ED47
:101A500013A99FF4B1169B1A530F60C5FFE6201E11
:101A60000B00EE14A99FF4B18E9BAA51212569C5E4
:101A7000FFE6201E0B00EF15A99FF47133323132BF
:101A800031320F64C5FFE6201E0B00F027AF9FF731
:101A9000F1813CC0C8242DA5CCF4E041D4D0109BEA
:101AA000B111320A320A320A3292B11922A275F603
:101AB0007805F11AB21FF9F1C733A1A731F3A84D88
:101AC000EA28CE6AAAF8FF37EFF10500F223AF9FAC
:101AD000F7F191F46A717950BBA121366323641444
:101AE00064146414642463334444EBECF10A00F39B
:101AF00023AF9FF7F1A5F0ECACB03CB0DDD0109B6C
:101B0000B111320A320A320A3292B11922A275F6A2
:101B10007805F425AF9FF7F159F46CA58C9C943CA3
:101B2000A0DDD0109BB111320A320A320A3292B1D2
:101B30001922A275F67805F524AF9FF7F1AB99B895
:101B4000BB9879947643436CC646C828C828C828F1
:101B5000C848C6668888D6D9E31500F625AF9FF732
:101B6000F19399B199B19979847643436CC646C88B
:101B700028C828C828C848C6668888D6D9E315006A
:101B8000F713AE1FF7F19F0AAB47755072508F4A9B
:101B9000583D3EF829AF9FF7F16FC3A303CF868668
:101BA000D80C458C1045B009A1A009A120892119A4
:101BB0008999A921A299B38C0E8F470BF91FB21FE7
:101BC000F9F14B798879887908791079D09B1B2AAB
:101BD000FEFFAAA6EC82AEC41E5F00FA1EB21FF979
:101BE000F1637980F17900790079E89B1B2AFEFF87
:101BF000AAA6EC82AEC41E5F00FB1EB21FF9F1DB89
:101C00007888F16219512979C09B1B2AFEFFAAA688
:101C1000EC82AEC41E5F00FC1CB21FF9F1A7339327
:101C2000339333F3686F6EA8F8FFAB9AB20BBA1216
:101C30007B7C01FD28B19FF8F13BF1E971F5A037FC
:101C400036646254714482349124A214B1C6D4E43F
:101C5000E3F2009242912492B7C400FE25B19FF8AE
:101C6000F1B135BFA8B39962443644464346434672
:101C70004346433654446433455147CDED41240037
:101C8000FF29B19FF8F1370B670667E611DED890A0
:101C90008951C51109D244928852C41A53938FCBEB
:101CA00003480A459248DE120300000011241FBEBB
:101CB000CFEFCDBFDFE5DEBF00E00CBF10E2A0E05C
:101CC000B0E2E4E9F3E400E00BBF02C007900D923C
:101CD000A032B107D9F720E2A0E2B0E201C01D9224
:101CE000A93CB207E1F70E94EA1B0C94C8210C94AE
:101CF0000000E0E5F0E08BEC8283808188608083E7
:101D0000818183FFFDCFE0E5F0E082EC8583808177
:101D100080618083818184FFFDCF88ED84BF84E072
:101D200080934000E0E5F0E080818E7F80838081B9
:101D30008D7F80830895AF92BF92CF92DF92EF9212
:101D4000FF920F931F93CF93DF937C016B01EA0106
:101D500059011016110664F4040F151F9501AE0108
:101D6000B601C7010E94E9182196C017D107B1F743
:101D7000DF91CF911F910F91FF90EF90DF90CF9067
:101D8000BF90AF9008950F931F93CF93DF93EC0113
:101D900000E020E040E060E00E94FC18CE010E94DC
:101DA0000B150B811C8129813A8140E050E060E0F5
:101DB00070E0CE010E949B0E0FEF2FEF4FEF60E01F
:101DC000CE010E94FC18DF91CF911F910F910895D1
:101DD0001F93CF93DF93FC01162F6183C42FD0E0B4
:101DE000C61BD109C483D58321503109208731878F
:101DF00081E090E082839383CE01B9010E94551D5A
:101E000066837783DD234CF4D195C195D109C483D2
:101E1000D5838FEF9FEF8283938384819581B9016E
:101E20000E94551D82879387C90199230CF401965E
:101E300095958795848795871083DF91CF911F9122
:101E40000895FC0120818681280F208344855585D3
:101E500082859385840F951F84879587408551855A
:101E6000841795073CF03281230F2083841B950B48
:101E7000848795870895CF93DF93FC014681469F21
:101E8000402D11244083C085D18582859385689F2C
:101E90009001699F300D789F300D1124CE01DD2314
:101EA0000CF4019695958795280F391F82819381AF
:101EB00099233CF0C901BE010E94551D460F408385
:101EC00006C0C901BE010E94551D461B4083C901C1
:101ED000BE010E94551D8487958790818181890F5D
:101EE0008083DF91CF910895FC0123893489E45ADE
:101EF000FF4F40815181241B350B52F0349681E015
:101F000090E0408151812417350724F080E0089546
:101F100080E090E00895FC0125893689E25AFF4F60
:101F200040815181241B350B52F0349681E090E0C2
:101F3000408151812417350724F080E0089580E026
:101F400090E00895CF93DF93DC01ED91FC91E217CF
:101F5000F307ACF4EB01A881B9814A175B0794F44D
:101F6000E417F5071CF4FC01408351832A173B0753
:101F700064F4DB012D933C9381E090E008C080E0A5
:101F800090E005C080E090E002C081E090E0DF9149
:101F9000CF910895CF93DF93EC010E94740F0097C7
:101FA00051F0CE010E948B0F31E020E0892B09F423
:101FB00030E0832F922FDF91CF910895EF92FF921F
:101FC0000F931F93CF93DF9300D01F92CDB7DEB74F
:101FD0008C01FC01168E178EE48CF58CF1E0EF1667
:101FE000F10409F447C01CF4EF2861F0EDC052E0A1
:101FF000E516F10409F475C083E0E816F10409F46C
:10200000AAC0E2C00E948B0F009709F4DFC0F8015C
:102010008389948989839A83228D338D820F931FBC
:102020008B839C83E45AFF4F4081518134962081F9
:102030003181240F351FBE016D5F7F4FCE010196A8
:102040000E94A20F009709F4C1C029813A81F801CA
:1020500083899489A901481B590B468F578F238B7D
:10206000348B8B819C81821B930B828F938F81E0B9
:1020700090E0ACC00E94740F009709F4A7C0F8016B
:102080008589968989839A83228D338D820F931F48
:102090008B839C83E25AFF4F40815181349620818B
:1020A0003181240F351FBE016D5F7F4FCE01019638
:1020B0000E94A20F009709F489C029813A81F80192
:1020C00085899689A901481B590B468F578F258B07
:1020D000368B8B819C81821B930B828F938FC701E0
:1020E00075C00E948B0F009709F470C0F8018389B6
:1020F000948901968B839C83228D338D821B930B55
:1021000089839A83E45AFF4F40815181349620811C
:102110003181240F351FBE016D5F7F4FCE010196C7
:102120000E94A20F009709F451C08B819C812981E4
:102130003A81AC01421B530BF801428F538F019738
:1021400023893489281B390B268F378F838B948BF7
:1021500081E090E03BC0C8010E94740F0097B1F18C
:10216000F8018589968901968B839C83228D338D16
:10217000821B930B89839A83E25AFF4F40815181DE
:10218000349620813181240F351FBE016D5F7F4F52
:10219000CE0101960E94A20F0097C1F08B819C8115
:1021A00029813A81AC01421B530BF801428F538FB6
:1021B000019725893689281B390B268F378F858B08
:1021C000968B81E090E002C081E090E02496CDBF44
:1021D000DEBFDF91CF911F910F91FF90EF90089597
:1021E000EF92FF920F931F93CF93DF938C010E9486
:1021F000DE0F009791F0E801E29678018CE5E80E99
:10220000F11CF801668D778DCE010E943B0F2E9652
:10221000CE15DF05B1F781E090E0DF91CF911F91FE
:102220000F91FF90EF900895CF93DF93EC01FC01A5
:10223000ED56FF4F808183FF0AC0E989FA8920E0CB
:1022400030E040E050E06BE070E0CE011995CD56F3
:10225000DF4F8881877F8883DF91CF9108950F9327
:102260001F93CF93DF9300D01F92CDB7DEB78C01C1
:1022700069837A834B835C830E941411F801EE56C4
:10228000FF4F1082D8015196ED91FC9152979E011B
:102290002F5F3F4F40E050E06AE070E0C8011995C1
:1022A000009731F0F801ED56FF4F20812860208320
:1022B0002496CDBFDEBFDF91CF911F910F9108957E
:1022C0001F93CF93DF93EC01142F611123C0FC0106
:1022D000EE56FF4F8081842329F03196808184233C
:1022E000481337C0622F70E0E989FA8920E030E0B6
:1022F00040E050E0CE011995FE01ED56FF4F812FD1
:102300008095908189238083CE56DF4F8881182B5A
:1023100018831FC0FC01EE56FF4F8081842321F0FB
:10232000319680818423A9F4462F50E0622F70E01B
:10233000E989FA8920E030E0CE011995FE01ED56D9
:10234000FF4F8081812B8083CE56DF4F8881182BF1
:102350001883DF91CF911F9108952DE044E00E94F2
:10236000601108952EE042E00E94601108952FE070
:1023700041E00E9460110895AB01DC015196ED919E
:10238000FC91529720E030E06CE070E019950895E0
:102390000F931F93CF93DF938C01EB01209739F0BC
:1023A00068EE73E0C8010E94BC112197C9F7DF9164
:1023B000CF911F910F910895462F50E0DC01519667
:1023C000ED91FC91529720E030E060E170E01995CA
:1023D0000895EF92FF920F931F93CF93DF937C01A9
:1023E000EB018A01209791F0F801449150E0D70168
:1023F0005196ED91FC91529720E030E060E170E061
:10240000C70119950F5F1F4F219771F7DF91CF918A
:102410001F910F91FF90EF9008957F928F929F925E
:10242000AF92BF92CF92DF92EF92FF920F931F93E2
:10243000CF93DF937C018B016C0184E9C80ED11C22
:1024400077247394F8016491D62FD295DF70C62F4C
:10245000CF708D2F90E0FC013197EF30F10508F03F
:10246000C5C08827E250FF4F8F4F0C94691D48016B
:10247000FFEF8F1A9F0AF601608166956170C701B0
:102480000E94B711AD2EB12CA401B501C7010E9465
:10249000E911CC2371F0A80CB91CF60160816170C0
:1024A000C7010E94B7116C2F70E0A501C7010E94FF
:1024B000E9118D2F90E001968C0F911D080F191FC7
:1024C000C1CFF60160816170C7010E94B711A801F8
:1024D0004F5F5F4FD0E0BE01C7010E94E911219616
:1024E0000C0F1D1FAFCFF6016081669561706725E7
:1024F000C7010E94B711CC2341F06C2F70E0A801F6
:102500004F5F5F4FC7010E94E911D0E021960C0F89
:102510001D1F98CFF8013196E4916C2F70E0762F53
:1025200066276E0F711DC7010E94C8110E5F1F4FF5
:1025300089CFF8013196E4916C2F70E0762F6627F1
:102540006E0F711DC7010E94BC110E5F1F4F7ACF25
:10255000F8013196B4903196D4910D5F1F4FF6017A
:1025600060816170C7010E94B711F70163897489A6
:1025700002C075956795CA95E2F76B216D2BC7016F
:102580000E94DC115FCFF8013196B4903196D4915E
:102590000D5F1F4FF60160816170C7010E94B71186
:1025A000F7016589768902C075956795CA95E2F746
:1025B0006B216D2BC7010E94DC1144CFC695C695D7
:1025C000C13049F018F0C33059F00DC06170C70137
:1025D0000E94AD1108C06170C7010E94B21103C012
:1025E0006370F60160830F5F1F4F2CCFDF91CF9197
:1025F0001F910F91FF90EF90DF90CF90BF90AF9021
:102600009F908F907F9008956C30710561F06731D5
:102610007105A9F4DC011796ED91FC91189767E11B
:1026200070E019950895DC01A45ABF4F88E0FA01C3
:1026300001900D928A95E1F781E090E0089581E0A4
:1026400090E0089581E090E00895EF92FF920F935B
:102650001F93CF93DF9300D0CDB7DEB78C010E94DC
:10266000DE0F009709F459C0D8015C968D919C91BA
:102670005D978130910559F08230910571F0892B79
:1026800001F569E073E0C8010E940D122DC068EEEB
:1026900072E0C8010E940D1227C0F801E388F48897
:1026A0008FE790E08E199F09838B948B67EC72E023
:1026B000C8010E940D12D8015396ED92FC925497D6
:1026C00013C0F801E588F6888FE990E08E199F091C
:1026D000858B968B63EA72E0C8010E940D12D801C7
:1026E0005596ED92FC925697F80187898983808DE3
:1026F0008A83818D8B83428D538D0188F289E02DF1
:102700009E012F5F3F4F63E170E0C801199561E0C2
:10271000C8010E94B21181E090E02396CDBFDEBFD8
:10272000DF91CF911F910F91FF90EF9008958F92BD
:102730009F92AF92BF92CF92DF92EF92FF920F9350
:102740001F93CF93DF9300D0CDB7DEB78C017C0110
:1027500086E2E80EF11C5801A2E3AA0EB11C650145
:102760004801B9E28B0E911CF7018FEFE81AF80AC5
:10277000D8015A962D913C915B9743816081C601A7
:102780000E94E80EBEE0CB0ED11CE814F90461F7FC
:10279000C8010E94F010009709F481C0F801848DEF
:1027A000958D8130910599F082309105B1F0892B9A
:1027B00041F569E073E0C8010E940D12D8015A96F4
:1027C0008D919C915B97181619067CF162C068EE9A
:1027D00072E0C8010E940D12F1CFF801E388F4887D
:1027E0008FE790E08E199F09838B948B67EC72E0E2
:1027F000C8010E940D12D8015396ED92FC92549795
:10280000DDCFF801E588F6888FE990E08E199F0901
:10281000858B968B63EA72E0C8010E940D12D80185
:102820005596ED92FC925697C9CFE12CF12C4801B8
:10283000B0E48B0E911C6801EEE4CE0ED11CD801E1
:10284000D2968C918983F40180818A83D6018C9100
:102850008B83D8015196ED91FC9152979E012F5F89
:102860003F4F41E050E063E170E0C8011995C501B8
:102870000E94210FC4010E94210FC6010E94210F56
:10288000BFEFEB1AFB0AF801828D938DE816F9066B
:10289000B4F261E0C8010E94B21181E090E0239699
:1028A000CDBFDEBFDF91CF911F910F91FF90EF90D1
:1028B000DF90CF90BF90AF909F908F9008950F932F
:1028C0001F93CF93DF9300D0CDB7DEB76F30710584
:1028D00009F18C01603171053CF46A30710561F0D9
:1028E0006B30710581F04DC06431710511F16531B6
:1028F000710509F441C045C042E450E064E670E06F
:102900000E942F1144C06CE972E00E940D1281E018
:1029100090E03DC080E890E0DA018D939C931197A0
:1029200080EA90E012968D939C93139781E090E05B
:102930002EC00E94CA0F892B41F167E273E0C801E3
:102940000E940D12F80187898983808D8A83818D89
:102950008B830188F289E02D9E012F5F3F4F41E07C
:1029600050E063E170E0C801199561E0C8010E9480
:10297000B21181E090E00BC00E94251381E090E04D
:1029800006C0C8010E94041302C081E090E02396B3
:10299000CDBFDEBFDF91CF911F910F9108956731B9
:1029A000710511F40E94971381E090E00895CF9390
:1029B000DF93FC01208120FF0CC0EC010580F68133
:1029C000E02D40E050E06BE070E0199588818E7F4B
:1029D0008883DF91CF910895CF93DF93EC010E941C
:1029E000D714ED81FE8140E050E06AE070E0CE0156
:1029F0001995009719F0288121602883DF91CF91E4
:102A00000895AB01DC011596ED91FC9116976CE0F1
:102A100070E019950895CF93DF93CDB7DEB728976F
:102A2000CDBFDEBFFC0141815281638174814D8342
:102A30005E836F83788719821A821B821C82BE0193
:102A40006F5F7F4F0E9401152896CDBFDEBFDF91DB
:102A5000CF910895CF93DF93EC01AC014F5F5F4FAF
:102A6000ED81FE816FE070E01995CE010E940B159B
:102A7000DF91CF910895AC014D5E5F4FDC0115965B
:102A8000ED91FC91169765E170E019950895CF934B
:102A9000DF93EC016B307105A1F06F307105B1F07F
:102AA0006A307105F9F46AE070E00E945F140097E3
:102AB000D9F065E473E0CE010E940D1281E090E050
:102AC00013C06BE070E00E945F140EC080E890E0DD
:102AD000FA018083918380EA90E08283938381E08E
:102AE00090E002C00E945F14DF91CF910895FC0135
:102AF000E60FF11D849190E0982F88273196E4919C
:102B00008E0F911D0895213049F018F0223059F0B0
:102B10000FC0840F911D47FD9A950895860F911D52
:102B200067FD9A950895841B910947FD9395089533
:102B3000861B910967FD93950895213049F018F09F
:102B4000223059F00FC0860F911D67FD9A950895A8
:102B5000841B910947FD93950895861B910967FD94
:102B600093950895840F911D47FD9A95089580E0EF
:102B700090E008950F931F93CF93DF93EC018B01A7
:102B8000FB01849188833196E491E983FB013296BD
:102B9000E491EA83FB013396E491EB83FB013496E5
:102BA000E491EC83FB013596E491ED83FB013696CD
:102BB000E491EE83FB013796E491EF83FB013896B5
:102BC000E491E887FB013996E491E987FB013A96A5
:102BD000E491EA87FB013B96E491EB87FB013C968D
:102BE000E491EC87FB013D96E491ED87FB013E9675
:102BF000E491EE87FB013F96E491EF87FB0170962D
:102C0000E491E88B61E1C8010E947715898B9A8B6A
:102C100063E1C8010E9477158B8B9C8BDF91CF916C
:102C20001F910F910895DC011A969C911A97ED91CE
:102C3000FC911197249130E0092E02C0359527951B
:102C40000A94E2F7892F860F883010F4E22F0FC024
:102C50003196ED93FC931197E491F0E038E0391B45
:102C600002C0EE0FFF1F3A95E2F7E22B88501A964A
:102C70008C9381E090E002C0880F991F6A95E2F77B
:102C800081508E2308950F931F93CF93DF938C0170
:102C9000EC01C859DF4F1A866E5F7F4F68837983D6
:102CA000FC01E758FF4F6081CE010E941316888710
:102CB000F801E658FF4F6081CE010E941316898704
:102CC000DF91CF911F910F910895CF93C62F0E944E
:102CD0001316C15021E030E002C0220F331FCA9505
:102CE000E2F7821BCF9108953F924F925F926F92CD
:102CF0007F928F929F92AF92BF92CF92DF92EF928C
:102D0000FF920F931F93CF93DF934C01D62F442E46
:102D1000FC01E859FF4FC680D7803F01F301C08511
:102D2000CC193D2ECD1708F43C2EF301E480F5803C
:102D300004855D2C202F4D2D6C2D828193810E9466
:102D40009D155C01202F4D2D6C2DC7010E94831510
:102D5000442059F010E0232D30E0E12CF12CAC019F
:102D6000B501C4010E94C1180FC0F30123852111D0
:102D70000BC010E0232D30E0EE24E394F12CAC01E5
:102D8000B501C4010E94C118DC1720F0DC1BD394EC
:102D9000C12CC4CFF401E859FF4FDC0DD683578214
:102DA000DF91CF911F910F91FF90EF90DF90CF9027
:102DB000BF90AF909F908F907F906F905F904F905B
:102DC0003F9008956F927F928F929F92AF92BF92A1
:102DD000CF92DF92EF92FF920F931F93CF93DF93E7
:102DE000EC018C0108591F4F0E944316FE01EF5859
:102DF000FF4F70803A966081C8010E946516C82E08
:102E0000FE01E458FF4F6081C8010E946516D82E6C
:102E1000FE01E358FF4F6081C8010E946516682ECD
:102E2000F801808518160CF042C0B484D70CD194F8
:102E30002B2D4D2D6C2D828193810E949D15F801C3
:102E4000828393832B2D4D2D6C2D848195810E943F
:102E50008315F80184839583168217824E01F7E764
:102E60008F0E911C5E0188E7A80EB11C6801F40169
:102E70006081C8010E941316E82EF5016081C80127
:102E80000E941316F82E40E06E2DCE010E9474169B
:102E900041E06F2DCE010E94741661E0C8010E94CE
:102EA00013168111F0CFF6018781871504F3862D63
:102EB000DF91CF911F910F91FF90EF90DF90CF9016
:102EC000BF90AF909F908F907F906F900895FC017E
:102ED000EC59FF4F208131812B5E3F4F613630F03E
:102EE000B49680819181280F391F09C0613438F070
:102EF000FC01EA57FF4F80819181280F391FC901DA
:102F00000196FC0144914423B1F0F901449164130A
:102F100005C014C0F9014491641799F0FC01849133
:102F2000280F311DC9010196FC0144914111F2CFD6
:102F300080E090E0089580E090E00895822F932F44
:102F40000895822F932F08950F93CF93DF93EC0171
:102F5000FC01E659FF4F60837183329640835183B1
:102F600038962083602F0E946717009741F0BC01BC
:102F7000CE010E94E216082E000C990B02C080E0E0
:102F800090E0DF91CF910F9108958D589F4FFC01F4
:102F900060830895AF92BF92CF92DF92EF92FF923B
:102FA0000F93CF937C016B015A01C22F213081F026
:102FB00028F02230B9F02330F9F027C0FC01EA599B
:102FC000FF4F0190F081E02D1995A80EB91E1DC08C
:102FD000FC01EA59FF4F0190F081E02D1995C81AC4
:102FE000D90A13C0FC01EA59FF4F0190F081E02D8E
:102FF0001995A81AB90A09C0FC01EA59FF4F0190B6
:10300000F081E02D1995C80ED91E2C2FA501B6010F
:10301000C7010E94A417CF910F91FF90EF90DF900E
:10302000CF90BF90AF900895FC01EC59FF4F2081E5
:103030003181232BE1F17E9620813E9620833D97BE
:1030400040813E96408332973081332381F1313085
:1030500079F43B973081231714F43C963083FC01BC
:10306000EB57FF4F2081241714F53C9620830895D9
:10307000FC01E158FF4FE081DC01AF57BF4F5C918D
:10308000022E000C330B652F052E000C770B6E0FF4
:10309000711DE7FD7A95261737071CF41F96E50F7B
:1030A000EC93541724F4FC01EF56FF4F508308951E
:1030B0008A599F4F27EB35E1FC0120833183089526
:1030C000CF93DF93FC01EC59FF4F2081318126170C
:1030D000370751F0EC01608371838B589F4F0E943A
:1030E000BA15CE010E941418DF91CF910895FC010A
:1030F00080818E7F80831186128681E090E080A39C
:1031000091A3DF01AC59BF4F1D921C9211971F96DE
:103110008C935F961C9211961C92EC56FF4F108276
:103120000895CF92DF92EF92FF920F931F93CF9368
:10313000DF93EC016B018A0179010E947718011578
:10314000110529F482E293E18F83988702C00F83EF
:103150001887CD82DE82E98AFA8ACE010E94581849
:10316000CE010E94EC148C01CE010E942A15C801E8
:10317000DF91CF911F910F91FF90EF90DF90CF9053
:103180000895EF92FF920F931F93FC01D701AA0FAE
:10319000BB1FEA0EFB1EDC01AE0DBF1D96968C9187
:1031A0009697878B97968C919797808F98968C910E
:1031B000818F638B748B458B568B228F338F048F5B
:1031C000158FCF010E943B151F910F91FF90EF903B
:1031D0000895FC0186A1878B87A1808F80A5818FB0
:1031E000638B748B458B568B228F338F148E158E89
:1031F000CF010E943B1508950F9370E0FB01EE0F85
:10320000FF1F6E0F7F1FFC01E60FF71F46A327A3CA
:1032100000A70F9108950F931F93CF93DF93EC01B5
:103220008A01663171055CF4643171050CF04BC0A4
:103230006C307105F9F06F30710531F058C06731AD
:10324000710509F440C053C0AC01455F5F4FE9858B
:10325000FA856FE070E019958B859C85D8011296F0
:103260008D939C9313978D859E858D939C9381E080
:1032700090E042C0FA01468157819A0121503109FC
:1032800082819381280F391F228333830190F0813B
:10329000E02D8B859C85821B930B0197D8018D9324
:1032A0009C9311971296ED93FC93139714968D911E
:1032B0009C91159714964D935C93159716968D9344
:1032C0009C93179714C08C8D9D8D019683709927C0
:1032D0008C8F9D8F2B893C898B859C854D895E8940
:1032E000841B950B01978B8B9C8B2D8B3E8BE985DB
:1032F000FA85A801CE011995DF91CF911F910F9109
:103300000895CF93DF93EC0189859A85009721F08A
:103310008D839E8319861A86CE010E942A15CE01BE
:103320000E940B15DF91CF910895CF93DF93EC01AD
:103330000E9481198D819E8189879A878BE099E10E
:103340008D839E83CE010E942A15CE010E940B150B
:10335000DF91CF9108951F920F920FB60F92112413
:103360000BB60F922F933F934F935F936F937F937F
:103370008F939F93AF93BF93EF93FF9380910A2016
:1033800090910B2001968A30910529F080930A20B4
:1033900090930B200DC010920A2010920B20809168
:1033A000242090912520019680932420909325201D
:1033B0008091242090912520069769F41092242072
:1033C00010922520809122209091232001968093B5
:1033D00022209093232080912220909123200A97ED
:1033E0006CF0109222201092232080912020909146
:1033F00021200196809320209093212080912020ED
:1034000090912120069769F410922020109221209B
:103410008091082090910920019680930820909334
:10342000092080910820909109200A976CF0109251
:103430000820109209208091062090910720019683
:10344000809306209093072080910620909107207A
:103450009C01220F331F880F991F880F991F880F17
:10346000991F820F931F2091082030910920820F0D
:10347000931F489741F41092062010920720109253
:1034800008201092092043E250E06FE070E086E2ED
:1034900090E20E945C1C80910B208F9380910A2007
:1034A0008F93809125208F93809124208F938091FA
:1034B00023208F93809122208F93809121208F93BE
:1034C000809120208F93809109208F9380910820F4
:1034D0008F93809107208F93809106208F938CE0AB
:1034E00090E29F938F9386E290E29F938F930E9446
:1034F0006B1C8DB79EB740968DBF9EBFFF91EF911D
:10350000BF91AF919F918F917F916F915F914F91FB
:103510003F912F910F900BBE0F900FBE0F901F90F9
:1035200018951F920F920FB60F9211240BB60F929F
:103530002F933F934F935F936F937F938F939F93BB
:10354000AF93BF93EF93FF9380912220909123201C
:103550000196809322209093232010920A201092AB
:103560000B2010922420109225200A97ACF0109284
:1035700022201092232080912020909121200196DA
:10358000863091052CF4809320209093212004C054
:10359000109220201092212043E250E06FE070E072
:1035A00086E290E20E945C1C80910B208F938091B8
:1035B0000A208F93809125208F93809124208F93D0
:1035C000809123208F93809122208F9380912120BE
:1035D0008F93809120208F93809109208F938091E9
:1035E00008208F93809107208F93809106208F93DE
:1035F0008CE090E29F938F9386E290E29F938F936B
:103600000E946B1C8DB79EB740968DBF9EBFFF91E9
:10361000EF91BF91AF919F918F917F916F915F914A
:103620004F913F912F910F900BBE0F900FBE0F90B7
:103630001F9018951F920F920FB60F9211240BB680
:103640000F922F933F934F935F936F937F938F933B
:103650009F93AF93BF93EF93FF9380910820909136
:1036600009200196809308209093092010920A2047
:1036700010920B2010922420109225200A976CF0B3
:103680001092082010920920809106209091072026
:1036900001968093062090930720809106209091B8
:1036A00007209C01220F331F880F991F880F991F35
:1036B000880F991F820F931F2091082030910920B5
:1036C000820F931F489744F010920820109209200F
:1036D000109206201092072043E250E06FE070E065
:1036E00086E290E20E945C1C80910B208F93809177
:1036F0000A208F93809125208F93809124208F938F
:10370000809123208F93809122208F93809121207C
:103710008F93809120208F93809109208F938091A7
:1037200008208F93809107208F93809106208F939C
:103730008CE090E29F938F9386E290E29F938F9329
:103740000E946B1C8DB79EB740968DBF9EBFFF91A8
:10375000EF91BF91AF919F918F917F916F915F9109
:103760004F913F912F910F900BBE0F900FBE0F9076
:103770001F901895E0E0FAE0118287E0808381E0F5
:10378000868381E19AE786A397A3E0EAF0E082814D
:1037900081608283789408950F9386E290E20E947C
:1037A000C30E86E290E20E94951902E322E34FEFF6
:1037B00060E086E290E20E94FC1860E086E290E21F
:1037C0000E94C51761E773E086E290E20E946018EC
:1037D0000F910895C1E0C09341060F2EE12CF6E051
:1037E000FF2EF02DD0E8F701D28300E216E0F801B9
:1037F000C28388E1F701878BF801808B0E94790EE4
:103800000E94BA1B21EB3CE14FEC54E167E475E107
:1038100086E290E20E9491180E94CC1BF701D287A9
:10382000C78BC187F801C287C08BC187FFCF809348
:10383000C309E0ECF9E082818823ECF708950F9347
:10384000CF93DF93082F8091BD209091BE20FC0183
:10385000EB56FF4FC081D1814C815D816A817B81B4
:103860002E810E94CA179C019E81913059F018F058
:10387000923079F015C08A819B81280F391F2A83E5
:103880003B8314C08C819D81280F391F2C833D837D
:103890000DC08A819B81821B930B8A839B8306C008
:1038A0008C819D81821B930B8C839D8381E090E0B2
:1038B000DF91CF910F910895FC01EB56FF4FA0814E
:1038C000B18112966D937C9313970190F081E02D56
:1038D000448355830895CF93DF93CDB7DEB78E81B0
:1038E0009F818093BD209093BE20FC01EB56FF4F3B
:1038F0000190F081E02DAE01465F5F4F68857985CC
:10390000808191810E94F11EDF91CF9108950F93E4
:103910001F93CF93DF93FC01EB56FF4F2081318142
:10392000232BD1F4EC0187E090E00E94851D8C01EF
:10393000892B91F060E070E08FE19CE10E94A61E6F
:10394000F801808391831282138214821582168279
:10395000CB56DF4F08831983DF91CF911F910F91D1
:1039600008950F931F93CF93DF93DC01EA01890140
:10397000FB013A97EB30F10508F090C08827E35F30
:10398000FE4F8F4F0C94691D209709F080C086C0B0
:10399000209709F06DC082C0209709F05EC07EC0FC
:1039A000209709F053C07AC0209719F577C0E0E658
:1039B000F6E088E0818384E0818382E081838583EF
:1039C00080E8818380E2818380E18183858380E454
:1039D000828380E58093C009CD010E94871C5EC070
:1039E000E0ECF9E080818F7B808382E08093660643
:1039F00055C080E090E02AE62A95F1F700C00196D4
:103A0000C817D907C1F74AC0CD2B21F088E08093B1
:103A1000650644C088E08093660640C0CD2B21F047
:103A200080E1809365063AC080E18093660636C0E7
:103A3000CD2B21F084E08093650630C084E0809334
:103A400066062CC0842F0E94171C28C0F8018081B4
:103A50000E94171C2197D1F721C0F80180810E9494
:103A6000171CF80181810E94171C2197B1F716C01D
:103A7000F80180810E94171CF80181810E94171CA7
:103A8000F80182810E94171C219791F707C0F80165
:103A900081918F010E94171C2197C9F781E090E066
:103AA000DF91CF911F910F91089597FB072E16F488
:103AB000009407D077FD09D00E94711D07FC05D046
:103AC0003EF4909581959F4F0895709561957F4F35
:103AD0000895EE0FFF1F881F8BBF0790F691E02D12
:103AE0001994AA1BBB1B51E107C0AA1FBB1FA61735
:103AF000B70710F0A61BB70B881F991F5A95A9F797
:103B000080959095BC01CD0108950F931F93CF939D
:103B1000DF938230910510F482E090E0E091C120C3
:103B2000F091C22020E030E0A0E0B0E0309719F141
:103B3000408151810281138148175907C8F08417C9
:103B4000950769F4109731F012960C93129713961B
:103B50001C9327C00093C1201093C22022C02115BE
:103B6000310519F04217530718F49A01BD01EF010E
:103B7000DF01F801DBCF21153105F9F0281B390BE6
:103B80002430310580F48A819B816115710521F013
:103B9000FB018283938304C08093C1209093C22051
:103BA000FE01329644C0FE01E20FF31F8193919310
:103BB00022503109288339833AC02091BF203091A7
:103BC000C020232B41F42091022030910320209328
:103BD000BF203093C020209100203091012021157A
:103BE000310541F42DB73EB7409104205091052096
:103BF000241B350BE091BF20F091C020E217F307A2
:103C0000A0F42E1B3F0B2817390778F0AC014E5F4C
:103C10005F4F2417350748F04E0F5F1F4093BF20BA
:103C20005093C0208193919302C0E0E0F0E0CF0177
:103C3000DF91CF911F910F910895CF93DF9300975C
:103C400009F481C0FC01329712821382A091C12035
:103C5000B091C220109781F420813181820F931F8F
:103C60002091BF203091C0202817390751F5E093EB
:103C7000BF20F093C02067C0ED0120E030E0CE17F8
:103C8000DF0740F44A815B819E0141155105F1F047
:103C9000EA01F5CFC283D38340815181840F951F00
:103CA000C817D90759F488819981840F951F029606
:103CB000808391838A819B8182839383211531053F
:103CC00029F4E093C120F093C2203DC0E901EA83CA
:103CD000FB8349915991C40FD51FEC17FD0761F47F
:103CE00080819181840F951F0296E90188839983D1
:103CF000828193818A839B83E0E0F0E012968D912C
:103D00009C911397009719F0FD01DC01F7CF8D917D
:103D10009C9111979D012E5F3F4F820F931F209121
:103D2000BF203091C0202817390769F4309729F453
:103D30001092C1201092C22002C012821382A0935E
:103D4000BF20B093C020DF91CF9108950F931F93B0
:103D5000CF93DF93009731F46115710519F480E07A
:103D600090E03AC08B01EC016EE070E081E090E001
:103D70000E94F520FC01892B91F380E883830115D3
:103D8000110571F00287138781E883838091C32036
:103D90009091C420892B21F4E093C320F093C42098
:103DA0002097C9F0C087D187838182608383809107
:103DB000C5209091C620892B71F4E093C520F09323
:103DC000C6208091C7209091C820892B21F4E093D0
:103DD000C720F093C820CF01DF91CF911F910F91A1
:103DE00008952F923F924F925F926F927F928F929F
:103DF0009F92AF92BF92CF92DF92EF92FF920F937A
:103E00001F93CF93DF93CDB7DEB72B97CDBFDEBF28
:103E10006C017B018A01FC0116821782838181FF7C
:103E2000CCC1CE0101963C01F6019381F70193FDCF
:103E3000859193FF81917F01882309F4BAC185326E
:103E400039F493FD859193FF81917F01853229F4A7
:103E5000B60190E00E942E21E7CF912C212C312C2D
:103E6000FFE1F315D8F08B3279F038F4803279F035
:103E70008332A1F4232D20611DC08D3261F0803387
:103E800069F4232D216016C0832D8260382EE32D26
:103E9000E4603E2E2AC0F32DF8601DC037FC2DC013
:103EA00020ED280F2A3040F08E32B9F436FC81C163
:103EB000232D2064322E19C036FE06C08AE0989E5B
:103EC000200D1124922E11C0EAE02E9E200D112407
:103ED000222EF32DF0623F2E08C08C3621F4832D64
:103EE0008068382E02C0883641F4F70193FD859131
:103EF00093FF81917F018111B3CF982F9F7D9554BE
:103F0000933028F40C5F1F4F9FE399830DC08336D5
:103F100031F0833771F0833509F059C021C0F801C1
:103F2000808189830E5F1F4F88248394912C5301D5
:103F300013C02801F2E04F0E511CF801A080B1809F
:103F400036FE03C0692D70E002C06FEF7FEFC50140
:103F50000E9423214C018201F32DFF773F2E16C0D2
:103F6000280122E0420E511CF801A080B18036FEEB
:103F700003C0692D70E002C06FEF7FEFC5010E94A2
:103F800011214C01F32DF0683F2E820133FC1BC040
:103F9000822D90E088169906B0F4B60180E290E098
:103FA0000E942E212A94F4CFF50137FC859137FE2B
:103FB00081915F01B60190E00E942E2121102A9488
:103FC00021E0821A91088114910471F7E8C08436C7
:103FD00011F0893641F5F80137FE07C06081718123
:103FE000828193810C5F1F4F08C060817181072E11
:103FF000000C880B990B0E5F1F4FF32DFF763F2EA1
:1040000097FF09C090958095709561957F4F8F4F70
:104010009F4FF0683F2E2AE030E0A3010E946A2102
:10402000882E861845C0853731F4232D2F7EB22E79
:104030002AE030E025C0932D997FB92E8F36C1F04C
:1040400018F4883579F0B5C0803719F0883721F039
:10405000B0C0E92FE061BE2EB4FE0DC0FB2DF460B0
:10406000BF2E09C034FE0AC0292F2660B22E06C01A
:1040700028E030E005C020E130E002C020E132E07D
:10408000F801B7FE07C060817181828193810C5F66
:104090001F4F06C06081718180E090E00E5F1F4F6E
:1040A000A3010E946A21882E8618FB2DFF773F2EE0
:1040B00036FE0DC0232D2E7FA22E891458F434FE17
:1040C0000BC032FC09C0832D8E7EA82E05C0B82CF3
:1040D000A32C03C0B82C01C0B92CA4FE0FC0FE0154
:1040E000E80DF11D8081803321F49A2D997EA92E4F
:1040F00009C0A2FE06C0B394B39404C08A2D86788A
:1041000009F0B394A3FC11C0A0FE06C0B21488F459
:10411000280C922C9B180EC0B21460F4B60180E2F9
:1041200090E00E942E21B394F7CFB21418F42B180C
:1041300002C0982C212CA4FE10C0B60180E390E0B0
:104140000E942E21A2FE17C0A1FC03C088E790E0C8
:1041500002C088E590E0B6010CC08A2D867859F03F
:10416000A1FE02C08BE201C080E2A7FC8DE2B60195
:1041700090E00E942E21891438F4B60180E390E08B
:104180000E942E219A94F7CF8A94F301E80DF11D35
:104190008081B60190E00E942E218110F5CF22206F
:1041A00009F442CEB60180E290E00E942E212A94CA
:1041B000F6CFF6018681978102C08FEF9FEF2B9695
:1041C000CDBFDEBFDF91CF911F910F91FF90EF9098
:1041D000DF90CF90BF90AF909F908F907F906F9027
:1041E0005F904F903F902F9008950F931F93CF9320
:1041F000DF93869F8001879F100D969F100D1124DD
:10420000C8010E94851DEC01009729F0A80160E01B
:1042100070E00E941C21CE01DF91CF911F910F9180
:104220000895FC010590615070400110D8F7809509
:1042300090958E0F9F1F0895DC0101C06D93415032
:104240005040E0F70895FC0161507040019001106A
:10425000D8F7809590958E0F9F1F08950F931F9309
:10426000CF93DF93FB01238121FD03C08FEF9FEFED
:104270002CC022FF16C04681578124813581421708
:10428000530744F4A081B1819D012F5F3F4F2083EC
:1042900031838C93268137812F5F3F4F268337836D
:1042A00014C08B01EC01FB010084F185E02D199510
:1042B000892BE1F6D80116968D919C91179701965E
:1042C00016968D939C931797CE01DF91CF911F91F6
:1042D0000F910895FA01AA27283051F1203181F178
:1042E000E8946F936E7F6E5F7F4F8F4F9F4FAF4FFE
:1042F000B1E03ED0B4E03CD0670F781F891F9A1F11
:10430000A11D680F791F8A1F911DA11D6A0F711DC4
:10431000811D911DA11D20D009F468943F912AE0D0
:10432000269F11243019305D3193DEF6CF010895B8
:10433000462F4770405D4193B3E00FD0C9F7F6CFE9
:10434000462F4F70405D4A3318F0495D31FD4052B1
:10435000419302D0A9F7EACFB4E0A6959795879547
:1043600077956795BA95C9F7009761057105089526
:104370009B01AC010A2E06945795479537952795D2
:10438000BA95C9F7620F731F841F951FA01D08956A
:04439000F894FFCFCF
:104394000000C920200002000300050025642564F4
:1043A400203A2025642564203A20256425640000F1
:00000001FF
